:030000000209F9F9
:0C09F900787FE4F6D8FD758144020A40C6
:100C3E0053797374656D2052756E21200D0A007400
:0D0C4E00656D70203D20252E33660D0A00D7
:10000E0053B1F753B2F753C9CF43CA30120C75D25E
:04001E00AF020C1D04
:100B310043BA8012000E7BFF7A0C793E1205ECC29B
:030B4100CCD2CD46
:100B4400120AE38F258E248D238C227BFF7A0C7965
:100B54004D8F2C8E2B8D2A8C291205EC7FE87E0379
:030B6400120C8DE3
:020B670080DB31
:100C7500759850E4F589758BCC758DFFD28E438EB2
:080C850040F509F508C209223F
:080CC9002009FDD2098F9922D8
:100BF8008B428A438944AB42AA43A9441204EE605B
:100C0800130544E5447002054314F91204EEFF127B
:050C18000CC980E2227E
:03002300020B9F2E
:100B9F00C0E0C0D075D000C000C007309904C29922
:100BAF00C20930980FC298AF090509740A2FF8A629
:0D0BBF009953090FD007D000D0D0D0E032FC
:080CD1008F993099FDC29922B0
:100C5B00EF1FAC0670011E4C600F0000000000007F
:0A0C6B000000000000000080E722F6
:100C8D00AB07AA06EB1BAE0270011A4E60097FE896
:080C9D007E03120C5B80ED22C6
:080CC000C10A011B00011A002A
:100CA500438E80438908E4F58CF58AD2A9D2AFD268
:020CB5008C228F
:070CD900D288D2A8D2AF229D
:03000B00020A8561
:100A8500C0E0C0D075D000C000C006C007C28CE56C
:100A95001BC394205035E58CC394FC4022AF1A74D7
:100AA5001C2FF8C000E6FFE51B5407FEC374079E24
:100AB500FEF87401088002C333D8FC4FD000F60558
:100AC5001BE51B5407700C051A8008D20A751B001C
:0E0AD500751A00D007D006D000D0D0D0E03285
:03000300020CB735
:090CB700758C00758A00D28C32A4
:060CE000120CD9020CA564
:100C1D00C2B37FE07E01120C5BD2B37F467E001221
:100C2D000C5BA2B392007F9A7E01120C5BA200B303
:010C3D002294
:020BCC008F2771
:100BCE00E4F528C2B37F027E00120C5BE527139278
:100BDE00B37F3C7E00120C5BD2B3E527C313F5271F
:090BEE000528E528C3940840DA4B
:010BF70022DB
:100B6900E4F528F527C2B37F027E00120C5BD2B3ED
:100B79007F0C7E00120C5BE528C313F52830B30304
:100B89004328807F327E00120C5B0527E527C3943A
:050B99000840D2AF2866
:010B9E002234
:100AE300120C1D400280167FCC120BCC7F44120BDC
:100AF300CC7FEE7E02120C8D120C1D4008E4FFFE2B
:100B03007D7A7CC4227FCC120BCC7FBE120BCC121D
:100B13000B698F26120B69EFFEE526FFFDAC06EC91
:0D0B2300120131E4FBFA7980783D120026C2
:010B300022A2
:10002600EC4D6011E8497017ED33EC3304600DE4D4
:10003600FCFFFEFD22E933E8330470F802019F124B
:10004600016A58046009E4CC24815006285009024C
:1000560001A92840030201A6C0E0EB4A7044B9801A
:1000660006D0E0FB020195EF4E701CBD8008EBFF49
:10007600EAFEE9FD80EBE98DF0A4FEE5F002010F52
:10008600E9CDF9EAFEEBFFEF89F0A4FCE5F0CE89B5
:10009600F0A42EFFE435F0CD89F0A42DFEE435F072
:1000A6008067EF4E7005BD80D780C3EF8BF0A4ACA0
:1000B600F0EE8BF0A42CFCE435F0F8EF8AF0A42CDB
:1000C600E5F038FCE433CB8DF0A42CFCE5F03BF8EE
:1000D600EE8AF0A42CFCE5F038F8E433CF89F0A4DE
:1000E6002CFCE5F038CF3400CE89F0A42FFFE5F0E4
:1000F6003EFEE433C98DF0A42EFEE5F039CD8AF03C
:10010600A42FFFE5F03EFEE43DFD33D0E0FB5007B3
:100116000BBB000F0201A9EC2CFCEF33FFEE33FE04
:06012600ED33FD02018132
:10012C0075F020800E75F010800575F0087D007E4E
:10013C00007F003392D530D503120546EC334010C6
:10014C00EF33FFEE33FEED33FDEC33FCD5F0ED2257
:0E015C00E5F0247EA2D513CC92E7CDCEFF2293
:10058A00E53D2429F8E6053D227826300702782938
:10059A00E475F0011205540204EE2000EB7F2ED21E
:1005AA00008018EF540F2490D43440D4FF30040B49
:1005BA00EF24BFB41A0050032461FFE53E60021520
:1005CA003E0541E5417002054030070D7826E47585
:1005DA00F001120554EF020534020CD17403D2075C
:1005EA008003E4C207F53D8B268A278928E4F53E75
:1005FA00F540F541E53E60077F201205C580F57597
:10060A003FFFC201C200C202C203C205C206C2083B
:10061A00120593FF700D3007057F001205D6AF4112
:10062A00AE4022B4255FC2D5C204120593FF24D07E
:10063A00B40A00501A75F00A783E30D50508B6FF9C
:10064A000106C6A426F620D5047002D20380D92456
:10065A00CFB41A00EF5004C2E5D2040208C3D20193
:10066A0080C6D20080C0D20280BCD2D580BAD20560
:10067A0080B47F201205C52002077401B53E0040F0
:10068A00F112058AFF1205C50205FED208D20680BC
:10069A009512058AFB12058AFA12058AF94A4B70E5
:1006AA000679BA7A097BFF20022EE53E602A7E008F
:1006BA008E8275830012050760060EEE653F70F0A4
:1006CA00C2D5EBC0E0EAC0E0E9C0E0EE120923D0EF
:1006DA00E0F9D0E0FAD0E0FB1204EEFF60AAEBC02A
:1006EA00E0EAC0E0E9C0E01205C5D0E02401F9D093
:1006FA00E03400FAD0E0FBE53F0460DCD53FD98066
:10070A0087D20280A212090660F7E53F700104123F
:10071A0001B4A93F600DE53F600914F53F1209AD28
:10072A00EF60F3EA30E702F404C3995077EAF4255C
:10073A003F0430E701E404F53F800D12090660C169
:10074A00EA053F253F1201B4EA783CF630E701E4B6
:10075A00253F04D53F0420050114120923E4C0E013
:10076A001209AD783CE6601320E70714F61205ADCE
:10077A00802204F6D0E014C0E07F001205ADE53F08
:10078A0060071205A4153F800B3005031205A4D09B
:10079A00E00205FED0E00480C512090660A0E53F2C
:1007AA00041201B4783CEAF6E53F20050260010430
:0507BA002404120923D4
:1007BF0074FF04C0E01209AD1205ADE53F2005023C
:1007CF0060031205A4D0E0B53FE87F451205B77866
:1007DF003CE67F2B30E7047F2DF404C0E01205C503
:1007EF00D0E075F00A84C0F01205AED0E01205AE6D
:1007FF000205FE791080027908C206C2088008D26D
:10080F00D5790A8004790AC2D5E53F047002F53F15
:10081F00E4FAFDFEFF12058AFC7B08200113120586
:10082F008AFD7B1030000A12058AFE12058AFF7BB3
:10083F0020EC3382D592D55013C3E43000069FFFCE
:10084F00E49EFEE42001039DFDE49CFCE4CBF8C292
:10085F0001EC700CCFCECDCCE824F8F870F38017F4
:10086F00C3EF33FFEE33FEED33FDEC33FCEB33FB25
:10087F00994002FB0FD8E9EB300105F8D0E0C448EE
:10088F00B201C0E00AEC4D4E4F78207B0070C2EAF7
:10089F00B53F0040BCC0E0120925D0F0D0E02001E8
:1008AF0004C4C0E0C4B201C0F01205AED0F0D5F060
:1008BF00EB0205FE120564069B53080258066C4CAA
:1008CF0006684208064F080E44080E490681430881
:1008DF00145507454607A345070F4709DA50067019
:1008EF002D06742E06972B06782306952009C32A0A
:1008FF000630480000068FE53FB4FF03753F061230
:10090F00058AFC12058AFD12058AFE12058AFF78F8
:10091F00350201E3790AA2D5200314300509B91075
:10092F00020404B9080104A2D520060250010420D4
:10093F0002689202B53E005034C0E07F20300319A8
:10094F007F30A20272067205500F12097CC202C2DA
:10095F0006C205C2087F30800F300503E9C0E012E0
:10096F0005C5300503D0E0F9D0E0B53ECC30051712
:10097F007F30B9100C1205C57F583004077F78807F
:10098F0003B908031205C53002057F2D0205C57F87
:10099F00202008F87F2B2006F322920280CF7F00C1
:1009AF00B4070050052435F8E6FF22286E756C6CED
:1009BF002900D20112058A3001F8C201783E30D5E4
:1009CF000108F60206302D5043495812058A2403B8
:1009DF00B405004001E49009D5931205B6743A129C
:0A09EF0005B6D203753E04020802AB
:10016A00E9D2E7C933E833F892D5EDD2E7CD33ECDB
:07017A0033FC5002B2D52254
:10018100EC30E7100FBF000C0EBE00080DBD0004DF
:100191000BEB6014A2D5EB13FCED92E7FD2274FF8B
:1001A100FCFDFEFF22E480F8A2D574FF13FC7D80E4
:0301B100E480EFF8
:1001B400F920E72824F950037907E4F42402FB1812
:1001C400DBFDE624FB5014E9600DE4F618E604F6C2
:0F01D400B40A08E4F6D9F57401F60A22C2D5225E
:1001E300ED33EC3392D5FA602AB4FF33EDC2E77BEB
:1001F300FF60067A027908E4227A02791120D50495
:100203007A02790C224E614E002B494E46002D494D
:100213004E4600E47A08F608DAFC7B00740722E80D
:10022300C0E0ECC0E0EDC0E0EEC0E0EFC0E0EA7596
:10023300F010A4CAABF075F04DA42BFBE435F0FC31
:10024300EA2410FAEB34C5FBEC34D9FCEDC2E7FF2A
:1002530075F056A4F42411C5F0F434C58FF0A42A24
:10026300E5F03BE43CF620E7141204AED0E0FFD007
:10027300E0FED0E0FDD0E0FC1203E18014F40412B0
:1002830004AED0E0FFD0E0FED0E0FDD0E0FC1200F1
:1002930026D0E0F8E6FAEDD2E7CD33EC332482FB47
:1002A300E4C3CF33CFCE33CECD33CD33DBF37B07B4
:1002B30075F00A846004F6081B0AE5F0F6088FF06F
:1002C300740AA4FFACF08EF0740AA42CFEACF050B8
:1002D300010C8DF0740AA42CFDE435F0F608DBDE86
:0302E3007407227B
:1002E60002019FE86480F8E933E83360110460F0A6
:1002F600ED33EC337009E8FCE9FDEAFEEBFF22047E
:1003060060DED3EB9FEA9EE99DE8C2E78CF0C2F778
:1003160095F0400CE8CCF8E9CDF9EACEFAEBCFFB44
:1003260012016A85D0F05804700320D5B3E8047032
:10033600075002B2D50201A992D5EC0460F7E4CCCD
:10034600C0E0C398F8603B94186008400DD0E0FB0D
:10035600020181E4FBFAC9FC8028E830E406E4C91E
:10036600FBE4CAFCE830E305E4C9CACBFCE8540761
:100376006010F8C3E913F9EA13FAEB13FBEC13FC6C
:10038600D8F130F52FC3E49CFCEF9BFFEE9AFEED0F
:1003960099FDD0E0FBEF4E4D4C701222DB030201BB
:1003A600A6EC2CFCEF33FFEE33FEED33FDED30E72C
:1003B600EB020181EF2BFFEE3AFEED39FDD0E0FBBB
:1003C60050130BBB00030201A9ED13FDEE13FEEF64
:0803D60013FFEC13FC0201818E
:1003DE000201A9EC5D046005E85904700302019F57
:1003EE0012016A580460F6EC4860F2EC7004FDFEEF
:1003FE00FF22C860DB2481C85009C39860025006F2
:10040E000201A69850CAF582E9294B4A7005AB82C3
:10041E0002019575F0007C1A7880C3EF9BEE9AED81
:10042E0099400DC3EF9BFFEE9AFEED99FDE842F069
:10043E00DC23ACF0D0E0FFD0E0FED0E0FDAB8220BC
:10044E00E7101BEB60BAEC2CFCEF33FFEE33FEED46
:10045E0033FD020181E803F830E705C0F075F000C6
:10046E00EF2FFFEE33FEED33FD40B830E7C280AA2A
:10047E003F8000004120000042C80000447A000086
:10048E00461C400047C35000497424004B18968008
:10049E004CBEBC205A0E1BCA6753C21C749DC5AEFF
:1004AE00FB60065407601C23231204DCEB543860F7
:1004BE00091204C81204D7120026ECF8EDF9EEFA70
:1004CE00EFCB22EB1204D780F1543803241C900496
:1004DE007EFE93FC0EEE93FD0EEE930ECE93FF2258
:100A0500020B31E493A3F8E493A34003F68001F2CB
:100A150008DFF48029E493A3F85407240CC8C333F2
:100A2500C4540F4420C8834004F456800146F6DFC1
:100A3500E4800B0102040810204080900CC0E47E85
:100A4500019360BCA3FF543F30E509541FFEE493B6
:100A5500A360010ECF54C025E060A840B8E493A37D
:100A6500FAE493A3F8E493A3C8C582C8CAC583CAA8
:100A7500F0A3C8C582C8CAC583CADFE9DEE780BE60
:010CC800002B
:1004EE00BB010689828A83E0225002E722BBFE020C
:0904FE00E32289828A83E493223F
:10050700BB010CE58229F582E5833AF583E02250A9
:1005170006E92582F8E622BBFE06E92582F8E222F3
:0D052700E58229F582E5833AF583E493220D
:10053400BB010689828A83F0225002F722BBFE01A6
:02054400F322A0
:0E054600C3E49FFFE49EFEE49DFDE49CFC22C6
:10055400FAE6FB0808E6F925F0F618E6CA3AF622A8
:10056400D083D082F8E4937012740193700DA3A326
:1005740093F8740193F5828883E47374029368603A
:06058400EFA3A3A380DF3A
:00000001FF
