:0900000002000EB2EE32B2ED3244
:0F000B00020AE3787FE4F6D8FD75812902001E12
:10001B0002000343BA80750800750980750A0175E3
:10002B000B00750C02750D00750E04750F00120E8A
:10003B0008120066120C83D2AFC2C080FEB2EC3243
:03004B00B2EB32E3
:10006300020006E4F521752201F5237524A2752506
:1000730040752601FB7A007921FF120733E4FD7FE7
:0400830001020DB3B6
:03009B0002004818
:1000A30002004BAD07ED6401707A90FECCE054FE84
:1000B300F0E054FBF090FEC8E054FCF0120BDAFFC2
:1000C30090FEC8E0548F4FF0900006120BF3FF90A0
:1000D300FECC30E00DE04401F090FEB1E04401F0CD
:1000E300800BE054FEF090FEB1E054FEF0EF90FE82
:1000F300CC30E10DE04404F090FEB1E04402F08026
:100103000BE054FBF090FEB1E054FDF090000312BD
:100113000C4BE5F090FED5F0900003120C4B90FED3
:10012300D6020462ED6402707A90FECCE054EFF0E4
:10013300E054BFF090FEC9E054FCF0120BDAFF90DC
:10014300FEC9E0548F4FF0900006120BF3FF90FEB0
:10015300CC30E20DE04410F090FEB1E04404F080B6
:100163000BE054EFF090FEB1E054FBF0EF90FECCC7
:1001730030E30DE04440F090FEB1E04408F0800B22
:10018300E054BFF090FEB1E054F7F0900003120C7E
:100193004BE5F090FED7F0900003120C4B90FED885
:1001A300020462ED6403707A90FECDE054FEF0E049
:1001B30054FBF090FECAE054FCF0120BDAFF90FE01
:1001C300CAE0548F4FF0900006120BF3FF90FECD60
:1001D30030E40DE04401F090FEB1E04410F0800BF8
:1001E300E054FEF090FEB1E054EFF0EF90FECD301E
:1001F300E50DE04404F090FEB1E04420F0800BE014
:1002030054FBF090FEB1E054DFF0900003120C4B6E
:10021300E5F090FED9F0900003120C4B90FEDA0249
:100223000462ED6404707A90FECDE054EFF0E05484
:10023300BFF090FECBE054FCF0120BDAFF90FECB44
:10024300E0548F4FF0900006120BF3FF90FECD3079
:10025300E60DE04410F090FEB1E04440F0800BE086
:1002630054EFF090FEB1E054BFF0EF90FECD30E7D5
:100273000DE04440F090FEB1E04480F0800BE05488
:10028300BFF090FEB1E0547FF0900003120C4BE5F9
:10029300F090FEDBF0900003120C4B90FEDC0204A6
:1002A30062ED64807051900005120BF390FEDEF056
:1002B300900001120C4BE5F090FED2F09000011279
:1002C3000C4B90FED3F0900008120BF3640190FEE8
:1002D300DD7006E04480F08004E0547FF090000776
:1002E300120BF3640190FEC07006E04401F0800439
:1002F300E054FEF07F0022ED6405705690FEECE0C2
:1003030054FEF090FEE8E054FCF0120BDAFF90FE8E
:10031300E8E0548F4FF0900006120BF390FEEC30A0
:10032300E00DE04401F090FEB5E04401F0800BE005
:1003330054FEF090FEB5E054FEF0900003120C4B17
:10034300E5F090FEF5F0900003120C4B90FEF602E0
:100353000462ED6406705690FEECE054EFF090FEFC
:10036300E9E054FCF0120BDAFF90FEE9E0548F4F02
:10037300F0900006120BF390FEEC30E20DE0441017
:10038300F090FEB5E04404F0800BE054EFF090FEF3
:10039300B5E054FBF0900003120C4BE5F090FEF730
:1003A300F0900003120C4B90FEF8020462ED640718
:1003B300705590FEEDE054FEF090FEEAE054FCF040
:1003C300120BDAFF90FEEAE0548F4FF09000061212
:1003D3000BF390FEED30E40DE04401F090FEB5E048
:1003E3004410F0800BE054FEF090FEB5E054EFF0C3
:1003F300900003120C4BE5F090FEF9F0900003120D
:100403000C4B90FEFA8058ED6408705790FEEDE0B7
:1004130054EFF090FEEBE054FCF0120BDAFF90FE89
:10042300EBE0548F4FF0900006120BF390FEED308B
:10043300E60DE04410F090FEB5E04440F0800BE0A0
:1004430054EFF090FEB5E054BFF0900003120C4B54
:10045300E5F090FEFBF0900003120C4B90FEFCF0D5
:100463007F0022ED6481704E900005120BF390FE25
:10047300FEF0900001120C4BFDACF0EC90FEF2F09C
:10048300AF05A3EFF0900008120BF3640190FEFD9B
:100493007006E04480F08004E0547FF0900007127F
:1004A3000BF3640190FEE07006E04401F08004E089
:1004B30054FEF07F00227FFF22EFD39407748094D1
:1004C3008040037FFF22120BDAFED39403748094DF
:1004D3008040037FFF22EF7044EE700B9000011207
:1004E3000BF3F452935294120BDA6401700B9000E5
:1004F30001120BF34293F45294120BDAFE6402706E
:100503000A900001120BF342934294EE6403700DC0
:10051300900001120BF3FEF45293EE4294EF640148
:100523007046120BDAFE700B900001120BF3F452BB
:10053300915292EE6401700B900001120BF3429101
:10054300F45292120BDA6402700A900001120BF358
:1005530042914292120BDA6403700D900001120B68
:10056300F3FEF45291EE4292EF64027046120BDAFC
:10057300FE700B900001120BF3F452955296EE6449
:1005830001700B900001120BF34295F45296120B7B
:10059300DA6402700A900001120BF342954296123C
:1005A3000BDA6403700D900001120BF3FEF4529505
:1005B300EE4296EF64037046120BDAFE700B900066
:1005C30001120BF3F452B152B2EE6401700B9000BE
:1005D30001120BF342B1F452B2120BDA6402700A45
:1005E300900001120BF342B142B2120BDA640370B2
:1005F3000D900001120BF3FEF452B1EE42B2EF6420
:10060300047046120BDAFE700B900001120BF3F428
:1006130052B352B4EE6401700B900001120BF3421B
:10062300B3F452B4120BDA6402700A900001120B95
:10063300F342B342B4120BDA6403700D900001125B
:100643000BF3FEF452B3EE42B4EF64057046120BA3
:10065300DAFE700B900001120BF3F452C952CAEE8A
:100663006401700B900001120BF342C9F452CA12D9
:100673000BDA6402700A900001120BF342C942CAFA
:10068300120BDA6403700D900001120BF3FEF452A7
:10069300C9EE42CAEF64067046120BDAFE700B9085
:1006A3000001120BF3F452CB52CCEE6401700B90A9
:1006B3000001120BF342CBF452CC120BDA6402703A
:1006C3000A900001120BF342CB42CC120BDA640303
:1006D300700D900001120BF3FEF452CBEE42CCEFFF
:1006E30064077049120BDAFF7E00700B9000011251
:1006F3000BF3F452E152E2EF64014E700B900001F0
:10070300120BF342E1F452E2120BDA6402700A9024
:100713000001120BF342E142E2120BDA6403700DA3
:10072300900001120BF3FFF452E1EF42E27F00224B
:10073300AD07ED707EC28C120BDAFED39403748086
:10074300948040037FFF22E58954FC4EF589900095
:1007530001120BF3FED394027480948040037FFF55
:1007630022EEFF7E007006538E7F5389FBEF6401F8
:100773004E7006438E805389FBEF64024E70034331
:100783008904900002120BF3FFE58F54FE4FF58F9F
:10079300900003120C4BE5F0F58C900003120C4B08
:1007A300F58A900005120BF37004C28C8002D28C80
:1007B3007F0022ED64016003020843C28E120BDA4C
:1007C300FED394037480948040037FFF22EEC454CD
:1007D300F0FFE58954CF4FF589900001120BF3FE2A
:1007E300D394027480948040037FFF22EEFF7E0047
:1007F3007006538EBF5389BFEF64014E7006438E5C
:10080300405389BFEF64024E700343894090000256
:10081300120BF325E0FFE58F54FD4FF58F90000396
:10082300120C4BE5F0F58D900003120C4BF58B90F9
:100833000005120BF37004C28E8002D28E7F002259
:10084300ED64027061538EEF900001120BF3FF7E93
:10085300007006538EFB538EF7EF64014E70064310
:100863008E04538EF7EF64024E7003438E0890009C
:1008730002120BF325E025E0FFE58F54FB4FF58FC4
:10088300900003120C4BE5F0F5D6900003120C4BCD
:10089300F5D7900005120BF3C454F0FFE58E54EF27
:1008A3004FF58E7F0022ED6403706953D1F79000FA
:1008B30001120BF3FED394027480948040037FFFF4
:1008C30022EEFF7E00700653D1FD53D1FBEF64018E
:1008D3004E700643D10253D1FBEF64024E700343C3
:1008E300D104900002120BF3FFE5D154FE4FF5D172
:1008F300900003120C4BE5F0F5D4900003120C4B5F
:10090300F5D5900005120BF333333354F8FFE5D1DB
:1009130054F78076ED6404707753D17F9000011211
:100923000BF3FD7C00D394027480948040037FFF1B
:1009330022ED4C700653D1DF53D1BF900001120B4F
:10094300F36401700643D12053D1BF900001120B11
:10095300F36402700343D140900002120BF3C454BA
:10096300F0FFE5D154EF4FF5D1900003120C4BFD8E
:10097300ACF0ECF5D2AF058FD3900005120BF3C4A6
:100983003333335480FFE5D1547F4FF5D17F0022B9
:100993007FFF22EF24807003020A51147003020ABE
:1009A300962480B408004003020AE29009BC75F063
:1009B30003A4C58325F0C583730209D40209E102A8
:1009C30009F1020A01020A11020A21020A31020A8A
:1009D30041120C20FDACF0EC90FED5020ADC900035
:1009E30002120C4BFDACF0EC90FED7020ADC900037
:1009F30004120C4BFDACF0EC90FED9020ADC900023
:100A030006120C4BFDACF0EC90FEDB020ADC90000E
:100A130008120C4BFDACF0EC90FEF5020ADC9000E2
:100A23000A120C4BFDACF0EC90FEF7020ADC9000CE
:100A33000C120C4BFDACF0EC90FEF9020ADC9000BA
:100A43000E120C4BFDACF0EC90FEFB020ADC120C18
:100A530020FDACF0EC90FED5F0AF05A3EFF09000D5
:100A630002120C4BFDACF0EC90FED7F0AF05A3EFF8
:100A7300F0900004120C4BFDACF0EC90FED9F0AFFB
:100A830005A3EFF0900006120C4BFDACF0EC90FECA
:100A9300DB8046900008120C4BFDACF0EC90FEF5A9
:100AA300F0AF05A3EFF090000A120C4BFDACF0EC95
:100AB30090FEF7F0AF05A3EFF090000C120C4BFD86
:100AC300ACF0EC90FEF9F0AF05A3EFF090000E123E
:100AD3000C4BFDACF0EC90FEFBF0AF05A3EFF02266
:100AE300C0E0C0F0C083C082C0D075D000C000C0D9
:100AF30001C002C003C004C005C006C00720001522
:100B03000509E50970020508C394FFE50894074049
:100B130019D2008015E509150970021508D3E509F6
:100B23009400E50894005002C200200115050BE56E
:100B33000B7002050AC394FFE50A94074019D2011A
:100B43008015E50B150B7002150AD3E50B9400E530
:100B53000A94005002C201200215050DE50D700232
:100B6300050CC394FFE50C94074019D2028015E5E8
:100B73000D150D7002150CD3E50D9400E50C9400D2
:100B83005002C202200315050FE50F7002050EC3C4
:100B930094FFE50E94074019D2038015E50F150F56
:100BA3007002150ED3E50F9400E50E94005002C2B7
:100BB300037B007A0079087F80120996D007D0065C
:100BC300D005D004D003D002D001D000D0D0D08241
:100BD300D083D0F0D0E032BB010689828A83E02241
:100BE3005002E722BBFE02E32289828A83E4932236
:100BF300BB010CE58229F582E5833AF583E02250B7
:100C030006E92582F8E622BBFE06E92582F8E22200
:100C1300E58229F582E5833AF583E49322BB010A51
:100C230089828A83E0F5F0A3E022500687F009E782
:100C33001922BBFE07E3F5F009E3192289828A83AF
:100C4300E493F5F074019322BB0110E58229F58248
:100C5300E5833AF583E0F5F0A3E0225009E9258224
:100C6300F886F008E622BBFE0AE92582F8E2F5F0F1
:100C730008E222E5832AF583E993F5F0A3E99322B9
:100C83007521608508248509257527037B007A0073
:100C930079217F011200A6752160850A24850B2521
:100CA30075270C7B007A0079217F021200A675213B
:100CB30060850C24850D257527307B007A0079210A
:100CC3007F031200A6752160850E24850F257527E5
:100CD300C07B007A0079217F041200A67522077574
:100CE30023FFE4F526752901752801FB7A00792194
:100CF3007F801200A690FEB2E054FC4402F0E05460
:100D0300F34408F0E054CF4420F0E0543F4480F033
:100D1300E4FBFD7F80020D1BEFD3948174809480EC
:100D230040037FFF22EBD394037480948040037FBE
:100D3300FF22EF247F603A04706E90FEC4EDF0EB67
:100D4300FF7E00700653B6FB53B5FBEF64014E7094
:100D53000653B6FB43B504EF64024E700643B60474
:100D630053B5FBEF64034E704443B60443B50480AC
:100D73003C90FEE4EDF0EBFF7E00700653B6F753B4
:100D8300B5F7EF64014E700653B6F743B508EF6449
:100D9300024E700643B60853B5F7EF64034E700D69
:100DA30043B60843B508800590FEE4EDF07F0022CA
:100DB300EFFB7A00D394017480948040037FFF2279
:100DC300EDD394037480948040037FFF22EB4A7039
:100DD30004C2A98002D2A9ED700553B7FDC2B9EDD3
:100DE300FF7E006401700553B7FDD2B9EF64024E74
:100DF300700543B702C2B9EF64034E700543B702EF
:100E0300D2B97F0022752201E4F521FB7A00792112
:100E13007F041204BC7522FFE4F521FB7A007921DB
:050E23007F060204BC83
:00000001FF
