:100000000208D0EFD394057480948040037FFF22D0
:10001000EF706D1207686401700543F101800353AE
:10002000F1FE900004120781540FFE90FF02E0548D
:10003000F04EF0900003120781640190FF027006F9
:10004000E04410F08004E054EFF09000051207C483
:10005000FDE5F0547F90FF00F0A3EDF09000021258
:1000600007816401700543F604800353F6FB90009A
:10007000011207816401700543F601800353F6FE07
:10008000EF6401706D1207686401700543F102802E
:100090000353F1FD900004120781540FFE90FF52AC
:1000A000E054F04EF0900003120781640190FF527B
:1000B0007006E04410F08004E054EFF09000051268
:1000C00007C4FDE5F0547F90FF50F0A3EDF09000E1
:1000D000021207816401700543F640800353F6BFA6
:1000E0009000011207816401700543F610800353EC
:1000F000F6EFEF6402706D1207686401700543F15A
:1001000004800353F1FB900004120781540FFE900A
:10011000FFA2E054F04EF0900003120781640190BA
:10012000FFA27006E04410F08004E054EFF090006D
:10013000051207C4FDE5F0547F90FFA0F0A3EDF099
:100140009000021207816401700543F70480035395
:10015000F7FB9000011207816401700543F70180ED
:100160000353F7FEEF6403706D12076864017005B6
:1001700043F108800353F1F7900004120781540FF4
:10018000FE90FC02E054F04EF090000312078164F0
:100190000190FC027006E04410F08004E054EFF09F
:1001A0009000051207C4FDE5F0547F90FC00F0A319
:1001B000EDF09000021207816401700543F7408062
:1001C0000353F7BF9000011207816401700543F7E4
:1001D00010800353F7EFEF6404706D120768640139
:1001E000700543F110800353F1EF90000412078172
:1001F000540FFE90FC52E054F04EF09000031207B2
:1002000081640190FC527006E04410F08004E054D8
:10021000EFF09000051207C4FDE5F0547F90FC500C
:10022000F0A3EDF09000021207816401700543FE17
:1002300004800353FEFB90000112078164017005E6
:1002400043FE01800353FEFEEF6405706D120768E4
:100250006401700543F120800353F1DF9000041224
:100260000781540FFF90FCA2E054F04FF090000380
:10027000120781640190FCA27006E04410F0800433
:10028000E054EFF09000051207C4FFE5F0547F90B2
:10029000FCA0F0A3EFF0900002120781640170054A
:1002A00043FE40800353FEBF9000011207816401AA
:1002B000700543FE10800353FEEF7F0022EFD394BE
:1002C000077480948040037FFF22120768FED39456
:1002D000037480948040037FFF22EF7044EE700B24
:1002E000900001120781F45293529412076864013E
:1002F000700B9000011207814293F4529412076828
:10030000FE6402700A90000112078142934294EE4B
:100310006403700D900001120781FEF45293EE42C7
:1003200094EF64017046120768FE700B9000011292
:100330000781F452915292EE6401700B9000011209
:1003400007814291F452921207686402700A900089
:1003500001120781429142921207686403700D9066
:100360000001120781FEF45291EE4292EF64027096
:1003700046120768FE700B900001120781F4529537
:100380005296EE6401700B9000011207814295F4C1
:1003900052961207686402700A90000112078142A7
:1003A0009542961207686403700D90000112078150
:1003B000FEF45295EE4296EF64037046120768FE13
:1003C000700B900001120781F452B152B2EE640139
:1003D000700B90000112078142B1F452B21207680B
:1003E0006402700A90000112078142B142B2120702
:1003F000686403700D900001120781FEF452B1EEA3
:1004000042B2EF64047046120768FE700B90000160
:10041000120781F452B352B4EE6401700B900001E4
:1004200012078142B3F452B41207686402700A9052
:10043000000112078142B342B41207686403700DD1
:10044000900001120781FEF452B3EE42B4EF64054E
:100450007046120768FE700B900001120781F4527B
:10046000C952CAEE6401700B90000112078142C9A3
:10047000F452CA1207686402700A900001120781E0
:1004800042C942CA1207686403700D900001120746
:1004900081FEF452C9EE42CAEF6406704612076844
:1004A000FE700B900001120781F452CB52CCEE6427
:1004B00001700B90000112078142CBF452CC12075D
:1004C000686402700A90000112078142CB42CC128C
:1004D00007686403700D900001120781FEF452CB8F
:1004E000EE42CCEF64077049120768FF7E00700B84
:1004F000900001120781F452E152E2EF64014E7064
:100500000B90000112078142E1F452E21207686485
:1005100002700A90000112078142E142E21207686C
:100520006403700D900001120781FFF452E1EF4265
:10053000E27F002243BA801208AB1206D1E4900099
:100540000FF0A3F0A3F0A3F0A3F0A3F0C200C20148
:100550007F011208C030001990000F74FFF5F012EF
:1005600007AEFED3E5F09410EE94005015C2008063
:100570001190000FE475F0011207AEC3940F400212
:10058000D20090000FE0FAA3E0FBE4FDFCFF1207AD
:10059000FC30011990001174FFF5F01207AEFED384
:1005A000E5F09410EE94005015C2018011900011F6
:1005B000E475F0011207AEC3940F4002D20190001F
:1005C00011E0FAA3E0FBE4FDFC7F011207FC9000C0
:1005D00013E0FEA3E0FFC394B8EE940B4009E4904F
:1005E0000013F0A3F0802BC3EF94D0EE94074006E5
:1005F000E4FB7D018017C3900014E094E8900013A1
:10060000E0940340057B01E48002E4FBFD7F0212DD
:100610000864900014E004F07006900013E004F009
:10062000020550AC03EFD3942F7480948040037F75
:10063000FF22EDD394017480948040037FFF22EC6D
:10064000D394017480948040037FFF2290000AE0DD
:10065000D394017480948040037FFF2290000BE0CC
:10066000F9D394017480948040037FFF2290000CA2
:10067000E0FED394017480948040037FFF22EF2535
:10068000E024DCF582E43408F583E493F874019304
:10069000F5828883FBAA8390000DEAF0A3EBF0AF0C
:1006A00004EFC4333354C0FFEDC433333354804FAD
:1006B000FF90000AE025E025E04FFFE925E04F4EDE
:1006C000FF90000DE0FCA3E0F5828C83EFF07F004B
:1006D000229000007401F09000057410F0A3E4F083
:1006E000900003F0A3F090000104F0FB7A00790081
:1006F000E4FF1200037B007A02E4FDFCFF1207FC1A
:100700007B007A04E4FDFC7F011207FC7B007A0881
:10071000E4FDFC7F021207FC7B007A0C7D007C026A
:100720007F031207FCE490000AF0A3F0A3F0FB7D26
:1007300001FF120623E490000AF0A3F0A3F0FB7D72
:10074000017F01120623E490000AF0A3F0A3F0FB5E
:100750007D017F02120623E490000AF0A3F0A3F0CB
:10076000FB7D017F03020623BB010689828A83E0A9
:10077000225002E722BBFE02E32289828A83E493AD
:1007800022BB010CE58229F582E5833AF583E0225C
:100790005006E92582F8E622BBFE06E92582F8E24A
:1007A00022E58229F582E5833AF583E49322C5F0B8
:1007B000F8A3E028F0C5F0F8E582158270021583F1
:1007C000E038F022BB0110E58229F582E5833AF595
:1007D00083E0F5F0A3E0225009E92582F886F008CD
:1007E000E622BBFE0AE92582F8E2F5F008E222E5FE
:1007F000832AF583E993F5F0A3E99322A907E9D3C6
:10080000942F7480948040037FFF22D3ED94FFECFB
:10081000947F40037FFF22D3EB94FFEA947F400351
:100820007FFF22E925E0243CF582E43409F583E4E6
:1008300093FE740193F5828E83AF05EC547FF0A391
:10084000EFF0E925E0249CF582E43409F583E49394
:10085000FE740193F5828E83AF03EA547FF0A3EF19
:10086000F07F0022EFD3942F7480948040037FFFA9
:1008700022EBD394017480948040037FFF22EDD358
:1008800094017480948040037FFF22EF25E024FCD4
:10089000F582E43409F583E493FE740193F5828EC6
:1008A00083AF03EF25E04DF07F002290000174FF3D
:1008B000F0E4900000F07B017A007900FF0202BDB5
:1008C0007D607C09ED1D70011C144C70F7DFF12276
:1008D000787FE4F6D8FD758120020534FF14FF1CF3
:1008E000FF24FF2CFF34FF3CFF44FF4CFF64FF6CF0
:1008F000FF74FF7CFF84FF8CFF94FF9CFFB4FFBC60
:10090000FFC4FFCCFFD4FFDCFFE4FFECFC14FC1CB5
:10091000FC24FC2CFC34FC3CFC44FC4CFC64FC6CD7
:10092000FC74FC7CFC84FC8CFC94FC9CFCB4FCBC47
:10093000FCC4FCCCFCD4FCDCFCE4FCECFF10FF1899
:10094000FF20FF28FF30FF38FF40FF48FF60FF68AF
:10095000FF70FF78FF80FF88FF90FF98FFB0FFB81F
:10096000FFC0FFC8FFD0FFD8FFE0FFE8FC10FC1875
:10097000FC20FC28FC30FC38FC40FC48FC60FC6897
:10098000FC70FC78FC80FC88FC90FC98FCB0FCB807
:10099000FCC0FCC8FCD0FCD8FCE0FCE8FF12FF1A4D
:1009A000FF22FF2AFF32FF3AFF42FF4AFF62FF6A3F
:1009B000FF72FF7AFF82FF8AFF92FF9AFFB2FFBAAF
:1009C000FFC2FFCAFFD2FFDAFFE2FFEAFC12FC1A05
:1009D000FC22FC2AFC32FC3AFC42FC4AFC62FC6A27
:1009E000FC72FC7AFC82FC8AFC92FC9AFCB2FCBA97
:1009F000FCC2FCCAFCD2FCDAFCE2FCEAFF15FF1DDB
:100A0000FF25FF2DFF35FF3DFF45FF4DFF65FF6DC6
:100A1000FF75FF7DFF85FF8DFF95FF9DFFB5FFBD36
:100A2000FFC5FFCDFFD5FFDDFFE5FFEDFC15FC1D8C
:100A3000FC25FC2DFC35FC3DFC45FC4DFC65FC6DAE
:100A4000FC75FC7DFC85FC8DFC95FC9DFCB5FCBD1E
:0C0A5000FCC5FCCDFCD5FCDDFCE5FCED9C
:00000001FF
