:10034F00750C80E4F50BFB7A00790B7F0402000338
:10033E00750B01E4F50C750D03FB7A00790B0203C6
:01034E00149A
:10027A0043BA8012034FC2C77F6412035FD2C77F9B
:10028A006412035FC2C77F6412035FD2C77F64121E
:10029A00035FC2C712033E7F0112035FD3E50894CE
:1002AA000574809480500312037B050AE50A7002E4
:1002BA000509C394E8E509940340DCE4F509F50A65
:0402CA00050880D3D0
:0F035F007D607C09ED1D70011C144C70F7DFF1FF
:01036E00226C
:10000300EFD394077480948040037FFF221202CEC3
:10001300FED394037480948040037FFF22EF7044E7
:10002300EE700B9000011202E7F452935294120205
:10003300CE6401700B9000011202E74293F45294D4
:100043001202CEFE6402700A9000011202E742938C
:100053004294EE6403700D9000011202E7FEF45225
:1000630093EE4294EF640170461202CEFE700B9041
:1000730000011202E7F452915292EE6401700B9068
:1000830000011202E74291F452921202CE6402700E
:100093000A9000011202E7429142921202CE6403D7
:1000A300700D9000011202E7FEF45291EE4292EFBE
:1000B300640270461202CEFE700B9000011202E73A
:1000C300F452955296EE6401700B9000011202E710
:1000D3004295F452961202CE6402700A9000011205
:1000E30002E7429542961202CE6403700D9000011E
:1000F3001202E7FEF45295EE4296EF640370461245
:1001030002CEFE700B9000011202E7F452B152B21C
:10011300EE6401700B9000011202E742B1F452B297
:100123001202CE6402700A9000011202E742B14249
:10013300B21202CE6403700D9000011202E7FEF4C6
:1001430052B1EE42B2EF640470461202CEFE700B5F
:100153009000011202E7F452B352B4EE6401700B43
:100163009000011202E742B3F452B41202CE6402C9
:10017300700A9000011202E742B342B41202CE6445
:1001830003700D9000011202E7FEF452B3EE42B485
:10019300EF640570461202CEFE700B90000112024E
:1001A300E7F452C952CAEE6401700B9000011202C7
:1001B300E742C9F452CA1202CE6402700A900001E7
:1001C3001202E742C942CA1202CE6403700D9000C4
:1001D300011202E7FEF452C9EE42CAEF640670460A
:1001E3001202CEFE700B9000011202E7F452CB52C2
:1001F300CCEE6401700B9000011202E742CBF45283
:10020300CC1202CE6402700A9000011202E742CBC4
:1002130042CC1202CE6403700D9000011202E7FE7D
:10022300F452CBEE42CCEF640770491202CEFF7E4C
:1002330000700B9000011202E7F452E152E2EF6406
:10024300014E700B9000011202E742E1F452E212F8
:1002530002CE6402700A9000011202E742E142E218
:100263001202CE6403700D9000011202E7FFF452F4
:07027300E1EF42E27F0022EF
:100314001202CE6401700375C1209000021202E73C
:100324005407FFE5C154F84FF5C19000011202E7EC
:0A033400700453C1F72243C10822F0
:04037B0043C1102248
:0300000002036F89
:0C036F00787FE4F6D8FD75810D02027A5B
:1002CE00BB010689828A83E0225002E722BBFE022E
:0902DE00E32289828A83E4932261
:1002E700BB010CE58229F582E5833AF583E02250CC
:1002F70006E92582F8E622BBFE06E92582F8E22216
:0D030700E58229F582E5833AF583E493222F
:00000001FF
