:080B02000102040810204080EC
:100AC600750901E4F508FB7A0079087F041208002D
:100AD6007509FFE4F508FB7A0079087F060208002D
:100A9A0043BA80120AC6C2C0E4F50AE50A900B02FC
:100AAA0093F4F5E8050AE50AD394074003E4F50A46
:0C0ABA007FFA120AE67FFA120AE680DFDB
:0F0AE6007D607C09ED1D70011C144C70F7DFF171
:010AF50022DE
:10080000EFD3940740037FFF22120A54FED39403D0
:1008100040037FFF22EF7041EE700B900001120A3F
:100820006DF452935294120A54B4010B90000112C9
:100830000A6D4293F45294120A54FEB4020A9000D4
:1008400001120A6D42934294EEB4030D900001121E
:100850000A6DFEF45293EE4294EF64017043120A63
:1008600054FE700B900001120A6DF452915292EEF8
:10087000B4010B900001120A6D4291F45292120AD7
:1008800054B4020A900001120A6D42914292120A77
:1008900054B4030D900001120A6DFEF45291EE4221
:1008A00092EF64027043120A54FE700B9000011222
:1008B0000A6DF452955296EEB4010B900001120AA3
:1008C0006D4295F45296120A54B4020A9000011235
:1008D0000A6D42954296120A54B4030D900001121B
:1008E0000A6DFEF45295EE4296EF64037043120ACD
:1008F00054FE700B900001120A6DF452B152B2EE28
:10090000B4010B900001120A6D42B1F452B2120A06
:1009100054B4020A900001120A6D42B142B2120AA6
:1009200054B4030D900001120A6DFEF452B1EE4270
:10093000B2EF64047043120A54FE700B900001126F
:100940000A6DF452B352B4EEB4010B900001120AD6
:100950006D42B3F452B4120A54B4020A9000011268
:100960000A6D42B342B4120A54B4030D900001124E
:100970000A6DFEF452B3EE42B4EF64057043120AFE
:1009800054FE700B900001120A6DF452C952CAEE67
:10099000B4010B900001120A6D42C9F452CA120A46
:1009A00054B4020A900001120A6D42C942CA120AE6
:1009B00054B4030D900001120A6DFEF452C9EE42C8
:1009C000CAEF64067043120A54FE700B90000112C5
:1009D0000A6DF452CB52CCEEB4010B900001120A16
:1009E0006D42CBF452CC120A54B4020A90000112A8
:1009F0000A6D42CB42CC120A54B4030D900001128E
:100A00000A6DFEF452CBEE42CCEF64077043120A3B
:100A100054FF700B900001120A6DF452E152E2EFA4
:100A2000B4010B900001120A6D42E1F452E2120A85
:100A300054B4020A900001120A6D42E142E2120A25
:100A400054B4030D900001120A6DFFF452E1EF421D
:040A5000E27F00221F
:03000000020AF6FB
:0C0AF600787FE4F6D8FD75810A020A9AA8
:100A5400BB010689828A83E0225002E722BBFE02A0
:090A6400E32289828A83E49322D3
:100A6D00BB010CE58229F582E5833AF583E022503E
:100A7D0006E92582F8E622BBFE06E92582F8E22288
:0D0A8D00E58229F582E5833AF583E49322A2
:00000001FF
