:10000000020036120803FF600C120073740129F914
:10001000E43AFA80EE22EF6401700443BC8022537C
:10002000BC7F22020E2F7DA37C08ED1D70011C14E5
:100030004C70F7DFF122787FE4F6D8FD758133024A
:020040000A2391
:10004300020DE2750B40751000750FC2750E017538
:100053000D007512017B007A00790B7F0212009666
:100063007D017F01120C99E5BA54FE4401F5BA22D1
:0A0073008F9B752501E52570FC2226
:03008B00020D441F
:10009300020D938F148B158A168917EF6401600381
:1000A300020214F51EF51FF520F521F522F518F5CA
:1000B3001974402519F58274013518F583E4F005A8
:1000C30019E519700205186480451870E4E4F51801
:1000D300F51974002519F58274003518F583E4F0D9
:1000E3000519E519700205186480451870E4AB150D
:1000F300AA16A917120803FFE598543F4FF598EF86
:1001030064C06008EF644060030201C39000021200
:1001130009907F007E607D547C001208DA8F1D8E6B
:100123001C8D1B8C1AE4FFFE7D01FCAB1DAA1CA9D0
:100133001BA81AC312096C40037FFF22C3E4951D59
:10014300F51DE4951CF51C7401951BF51BE4951A2C
:10015300F51AAB15AA16A91790000112081CFB7A11
:10016300006401702CC28E538EFE5389BF5389CF16
:10017300438E40AF1DAE1CAD1BAC1A780812097D2F
:100183008F8D851D8BC2AB5389BF538FFDD28E805C
:1001930069EB64024A7026538EEF438E01538EF748
:1001A300438E04AF1DAE1CAD1BAC1A780812097D3B
:1001B3008FD6851DD753AFFB438E10803D7FFF2223
:1001C300AB15AA16A917120803FF7E00701490003E
:1001D3000812081C64017005438E20801D538EDFB6
:1001E3008018EF64804E701290000812081C64019E
:1001F3007005438780800353877FAB15AA16A91721
:1002030090000712081C7004C29C8002D29C7F00DD
:1002130022E51464026003020311F523F524F52596
:10022300F526F527F518F51974E02519F5827401FB
:100233003518F583E4F00519E51970020518648093
:10024300451870E4E4F518F51974802519F58274DE
:10025300003518F583E4F00519E5197002051864F3
:1002630080451870E4AB15AA16A917120803FF7E80
:100273000064C06005EF64407077EF64C04E7005A2
:10028300439A808003539A7F9000021209907F0063
:100293007E607D547C001208DA8F1D8E1C8D1B8CB2
:1002A3001AE4FFFE7D01FCAB1DAA1CA91BA81AC3FF
:1002B30012096C40037FFF22C3E4951DF51DE495ED
:1002C3001CF51C7401951BF51BE4951AF51A538E46
:1002D300EF538EF7438E04AF1DAE1CAD1BAC1A78E3
:1002E3000812097D8FD6851DD753AFFB438E10802F
:1002F300037FFF22AB15AA16A91790000712081C4B
:10030300C454F0FFE59A54EF4FF59A7F0022E514A9
:100313006403600302044DF528F529F52AF52BF54E
:100323002CF518F51974602519F58274023518F542
:1003330083E4F00519E51970020518644045187047
:10034300E4E4F518F51974002519F58274013518DC
:10035300F583E4F00519E5197002051864404518A2
:1003630070E4AB15AA16A917120803FF7E0064C038
:100373006008EF64406003020430EF64C04E700510
:1003830043AC80800353AC7F9000021209907F003E
:100393007E607D547C001208DA8F1D8E1C8D1B8CB1
:1003A3001AE4FFFE7D01FCAB1DAA1CA91BA81AC3FE
:1003B30012096C40037FFF22C3E4951DF51DE495EC
:1003C3001CF51C7401951BF51BE4951AF51AAB1566
:1003D300AA16A91790000112081CFB7A0064037087
:1003E3001D43AC40AF1DAE1CAD1BAC1A78081209FF
:1003F3007D8FD4851DD553D1F043D10A8032EB6470
:10040300024A7026538EEF53ACBF538EF7438E04CC
:10041300AF1DAE1CAD1BAC1A780812097D8FD685B3
:100423001DD753AFFB438E1080067FFF227FFF2231
:10043300AB15AA16A91790000712081CC454F0FFA5
:10044300E5AC54EF4FF5AC7F0022E5146404600380
:10045300020589F52DF52EF52FF530F531F518F553
:100463001974A02519F58274023518F583E4F00593
:1004730019E519700205186420451870E4E4F518AD
:10048300F51974C02519F58274013518F583E4F064
:100493000519E519700205186420451870E4AB15B9
:1004A300AA16A917120803FF7E0064C06008EF6450
:1004B30040600302056CEF64C04E70054384808086
:1004C3000353847F9000021209907F007E607D5465
:1004D3007C001208DA8F1D8E1C8D1B8C1AE4FFFE24
:1004E3007D01FCAB1DAA1CA91BA81AC312096C40F1
:1004F300037FFF22C3E4951DF51DE4951CF51C74D1
:1005030001951BF51BE4951AF51AAB15AA16A91745
:1005130090000112081CFB7A006404701D438440A0
:10052300AF1DAE1CAD1BAC1A780812097D8FD285A6
:100533001DD353D10F43D1A08032EB64024A7026FE
:10054300538EEF5384BF538EF7438E04AF1DAE1CFF
:10055300AD1BAC1A780812097D8FD6851DD753AF12
:10056300FB438E1080067FFF227FFF22AB15AA1666
:10057300A91790000712081CC454F0FFE58454EF38
:100583004FF5847F00227FFF22EFD394077480947A
:100593008040037FFF22120803FED39403748094E8
:1005A3008040037FFF22EF7044EE700B9000011236
:1005B300081CF4529352941208036401700B9000C8
:1005C3000112081C4293F45294120803FE64027051
:1005D3000A90000112081C42934294EE6403700DCA
:1005E30090000112081CFEF45293EE4294EF640152
:1005F3007046120803FE700B90000112081CF4529F
:10060300915292EE6401700B90000112081C42910A
:10061300F452921208036402700A90000112081C3B
:10062300429142921208036403700D900001120874
:100633001CFEF45291EE4292EF64027046120803DC
:10064300FE700B90000112081CF452955296EE6452
:1006530001700B90000112081C4295F45296120887
:10066300036402700A90000112081C42954296121C
:1006730008036403700D90000112081CFEF45295E8
:10068300EE4296EF64037046120803FE700B90006F
:100693000112081CF452B152B2EE6401700B9000C7
:1006A3000112081C42B1F452B21208036402700A28
:1006B30090000112081C42B142B212080364037095
:1006C3000D90000112081CFEF452B1EE42B2EF6429
:1006D300047046120803FE700B90000112081CF40C
:1006E30052B352B4EE6401700B90000112081C4225
:1006F300B3F452B41208036402700A9000011208A2
:100703001C42B342B41208036403700D900001123B
:10071300081CFEF452B3EE42B4EF640570461208AF
:1007230003FE700B90000112081CF452C952CAEE6A
:100733006401700B90000112081C42C9F452CA12E2
:1007430008036402700A90000112081C42C942CADD
:100753001208036403700D90000112081CFEF4528A
:10076300C9EE42CAEF64067046120803FE700B908E
:10077300000112081CF452CB52CCEE6401700B90B2
:10078300000112081C42CBF452CC1208036402701D
:100793000A90000112081C42CB42CC1208036403E6
:1007A300700D90000112081CFEF452CBEE42CCEF08
:1007B30064077049120803FF7E00700B900001125A
:1007C300081CF452E152E2EF64014E700B900001F9
:1007D30012081C42E1F452E21208036402700A9008
:1007E300000112081C42E142E21208036403700D87
:1007F30090000112081CFFF452E1EF42E27F002255
:10080300BB010689828A83E0225002E722BBFE02F3
:10081300E32289828A83E49322BB010CE58229F5D2
:1008230082E5833AF583E0225006E92582F8E62241
:10083300BBFE06E92582F8E222E58229F582E583FB
:100843003AF583E49322BC000BBE0029EF8DF084BC
:10085300FFADF022E4CCF875F008EF2FFFEE33FE86
:10086300EC33FCEE9DEC984005FCEE9DFE0FD5F0BD
:10087300E9E4CEFD22EDF8F5F0EE8420D21CFEADC6
:10088300F075F008EF2FFFED33FD4007985006D5C4
:10089300F0F222C398FD0FD5F0EA2275F0087582B5
:1008A30000EF2FFFEE33FECD33CDCC33CCC58233F7
:1008B300C5829BED9AEC99E58298400CF582EE9BFC
:1008C300FEED9AFDEC99FC0FD5F0D6E4CEFBE4CD1A
:1008D300FAE4CCF9A88222B800C1B90059BA002DB4
:1008E300EC8BF084CFCECDFCE5F0CBF97818EF2F6D
:1008F300FFEE33FEED33FDEC33FCEB33FB10D7039C
:10090300994004EB99FB0FD8E5E4F9FA227818EF44
:100913002FFFEE33FEED33FDEC33FCC933C910D7A3
:10092300059BE99A4007EC9BFCE99AF90FD8E0E4B0
:10093300C9FAE4CCFB2275F010EF2FFFEE33FEED86
:1009430033FDCC33CCC833C810D7079BEC9AE89956
:10095300400AED9BFDEC9AFCE899F80FD5F0DAE438
:10096300CDFBE4CCFAE4C8F922EB9FF5F0EA9E4212
:10097300F0E99D42F0E89C45F022E8600FECC313D8
:10098300FCED13FDEE13FEEF13FFD8F122BB010DB7
:10099300E58229F582E5833AF5830209FA5007E9EE
:1009A3002582F80209EDBBFE07E92582F8020A0653
:1009B300E58229F582E5833AF583020A13EC8EF08A
:1009C300A4CCC5F0CCCDF8EFA4CEC5F02DFDE43C0E
:1009D300FCE8A42EC8C5F03DFDE43CFCEFA4FFE514
:1009E300F028FEE43DFDE43CFC22E6FB08E6F908C2
:1009F300E6FA08E6CBF822E0F8A3E0F9A3E0FAA3CD
:100A0300E0FB22E2FB08E2F908E2FA08E2CBF82273
:100A1300E493F8740193F9740293FA740393FB2239
:100A230043BA80120E98120046120E76D2AF7BFFA5
:100A33007A0E79B9120003E4F508C3E50894047447
:100A43008094804003020BAF7FFA120026C3E508AF
:100A5300940374809480501AAF08120BBB8E098FD5
:100A63000A7F411200737F44120073E5082430FFAC
:100A730080257F0F120BBB8E098F0A850932850AE9
:100A8300337F411200737F441200737F721200732D
:100A93007F651200737F661200737F3D120073AE91
:100AA30009AF0A7C037DE8120849EF2430FF1200E6
:100AB30073AE09AF0A7C037DE81208497E007F64A8
:100AC300CFCDCFCECCCE120849EF2430FF12007326
:100AD300AE09AF0A7C007D641208497E007F0ACF0D
:100AE300CDCFCECCCE120849EF2430FF120073AE27
:100AF30009AF0A7C007D0A120849ED2430FF120079
:100B0300737F201200737F201200737F56120073CD
:100B13007F3D120073AE09AF0A7C047DA61209C0A3
:100B2300C006C007AE32AF33AB07AA06E4F9F8D06C
:100B330007D0061208DA8E098F0A7C037DE81208B3
:100B430049EF2430FF1200737F2E120073AE09AFFA
:100B53000A7C037DE81208497E007F64CFCDCFCEA7
:100B6300CCCE120849EF2430FF120073AE09AF0A4E
:100B73007C007D641208497E007F0ACFCDCFCECCA6
:100B8300CE120849EF2430FF120073AE09AF0A7C7E
:100B9300007D0A120849ED2430FF1200737F2012F2
:100BA30000737F201200730508020A3D7BFF7A0E53
:100BB30079DC120003020A3AEFD3940F7480948015
:100BC30040028069E4F5BDF5BEE5BC54F044404FF6
:100BD300F5BC00000000000000000000E4FDEDC3D0
:100BE30094FA748094805045E5BC30E53D53BCDFF6
:100BF300E5DEAFBD30E50EEFFEACBEECFBEEF50B74
:100C0300EBF50C8020750B008F0CE5BEC4540FFB75
:100C1300E50CC4F8540FC868FFE50BC454F048F55D
:100C23000BEF4BF50CAE0BAF0C220D80B17E107F9A
:100C3300002290000112081CFFE5DE54F04FF5DEA0
:100C430090000212081CC43354E0FFE5DE54DF4F6A
:100C5300F5DE120803D3941F7480948050379000FC
:100C63000312081CFFD394017480948050279000D2
:100C73000412081CFED39403748094805017EEC4AE
:100C83003354E0FEEFC433333354804EFF12080372
:100C93004F90FEA8F022EFD3940174809480400318
:100CA3007FFF22EDFB7A00D394037480948040038A
:100CB3007FFF22E5AF54FE4FF5AFEB4A700653B604
:100CC300FE53B5FEED6401700653B6FE43B501ED68
:100CD300FF7E006402700643B60153B5FEEF640362
:100CE3004E700643B60143B5017F0022EFFB7A0045
:100CF300D394017480948040037FFF22EDD3940347
:100D03007480948040037FFF22EB4A7004C2AD805D
:100D130002D2ADED700553B7DFC2BDEDFF7E0064B7
:100D230001700553B7DFD2BDEF64024E700543B7C0
:100D330020C2BDEF64034E700543B720D2BD7F00D0
:100D430022C0E0C083C082C0D075D000C007E5AC2C
:100D53005401602553ACFEC3E52B9440748094800A
:100D63004003752B00AF2B052B74002FF582E43461
:100D730001F583E5ADF0752C05E5AC54026006532F
:100D8300ACFD752A00D007D0D0D082D083D0E0321A
:100D9300C0E0C083C082C0D075D000C007E58454D2
:100DA3000160255384FEC3E5309420748094804011
:100DB30003753000AF30053074C02FF582E4340181
:100DC300F583E585F0753105E584540260065384A7
:100DD300FD752F00D007D0D0D082D083D0E032C0B1
:100DE300E0C083C082C0D075D000C007E59A30E070
:100DF30025539AFEC3E5269480748094804003753E
:100E03002600AF26052674802FF582E43400F5838F
:100E1300E59BF0752705E59A30E106539AFD7525A4
:100E230000D007D0D0D082D083D0E032C0E0C083DE
:100E3300C082C0D075D000C007309824C298C3E5E3
:100E4300219480748094804003752100AF21052193
:100E530074002FF582E43400F583E599F0752205DB
:100E6300309905C299752000D007D0D0D082D083A5
:100E7300D0E032750B1FE4F50E750F01750C0F757D
:100E83000D01FB7A00790B120C357F01120016E479
:100E9300FDFF020CEF750C07750B017B007A0079DF
:100EA3000B7F0112058C750CC0E4F50BFB7A0079FE
:100EB3000B7F0402058C5354433820414420746F44
:100EC30020554152543220546573742050726F6719
:0C0ED30072616D6D65210D0A000D0A00B2
:00000001FF
