:0900000002000EB2EF32B2EE3242
:0F000B00020003787FE4F6D8FD75810E020049EC
:10001B00020006EFD394017480948040037FFF228B
:10002B00EDD394037480948040037FFF22EFC4339D
:10003B003354C0FFE5AF54BF4FF5AFE4FF2243BAD3
:10004B008012079B1205A2D2AFC2C080FEB2ED3266
:06005B00B2EC32B2EB3200
:10006300020058EFD394017480948040037FFF22F1
:10007300EDD394037480948040037FFF22EF25E047
:0D00830025E0FFE5AF54FB4FF5AFE4FF2291
:03009B0002005B05
:1000A30002005EAD07ED707EC28C120649FED3944A
:1000B300037480948040037FFF22E58954FC4EF54E
:1000C30089900001120662FED394027480948040EA
:1000D300037FFF22EEFF7E007006538E7F5389FB62
:1000E300EF64014E7006438E805389FBEF64024E2A
:1000F3007003438904900002120662FFE58F54FEE9
:100103004FF58F90000312068FE5F0F58C900003F6
:1001130012068FF58A9000061206627004C28C8064
:1001230002D28C7F0022ED640160030201B6C28E0D
:10013300120649FED394037480948040037FFF2208
:10014300EEC454F0FFE58954CF4FF58990000112B6
:100153000662FED394027480948040037FFF22EEF4
:10016300FF7E007006538EBF5389BFEF64014E704C
:1001730006438E405389BFEF64024E7003438940A8
:1001830090000212066225E0FFE58F54FD4FF58FC4
:1001930090000312068FE5F0F58D90000312068F91
:1001A300F58B9000061206627004C28E8002D28E16
:1001B3007F0022ED6402706B538EEF9000011206F4
:1001C30062FF7E007006538EFB538EF7EF64014E81
:1001D3007006438E04538EF7EF64024E7003438E12
:1001E3000890000212066225E025E0FFE58F54FB2C
:1001F3004FF58F90000312068FE5F0F5D6900003BC
:1002030012068FF5D790000512066290FEA2F090B9
:100213000006120662C454F0FFE58E54EF4FF58ECC
:100223007F0022ED6403707453D1F790000112062E
:1002330062FED394027480948040037FFF22EEFF1A
:100243007E00700653D1FD53D1FBEF64014E70065F
:1002530043D10253D1FBEF64024E700343D10490A8
:100263000002120662FFE5D154FE4FF5D190000360
:1002730012068FE5F0F5D490000312068FF5D590A2
:10028300000512066290FEA3F09000061206623388
:10029300333354F8FFE5D154F7020322ED640460CD
:1002A3000302032853D17F900001120662FD7C00F4
:1002B300D394027480948040037FFF22ED4C700638
:1002C30053D1DF53D1BF900001120662640170065F
:1002D30043D12053D1BF9000011206626402700320
:1002E30043D140900002120662C454F0FFE5D1549A
:1002F300EF4FF5D190000312068FFDACF0ECF5D271
:10030300AF058FD390000512066290FEA4F0900013
:1003130006120662C43333335480FFE5D1547F4F52
:10032300F5D17F00227FFF22EFD39407748094805E
:1003330040037FFF22120649FED394037480948006
:1003430040037FFF22EF7044EE700B900001120612
:1003530062F4529352941206496401700B900001A7
:100363001206624293F45294120649FE6402700A22
:1003730090000112066242934294EE6403700D9062
:100383000001120662FEF45293EE4294EF64017090
:1003930046120649FE700B900001120662F4529158
:1003A3005292EE6401700B9000011206624291F4C6
:1003B30052921206496402700A90000112066242C8
:1003C3009142921206496403700D90000112066275
:1003D300FEF45291EE4292EF64027046120649FE19
:1003E300700B900001120662F452955296EE64016E
:1003F300700B9000011206624295F4529612064960
:100403006402700A90000112066242954296120637
:10041300496403700D900001120662FEF45295EEDA
:100423004296EF64037046120649FE700B9000017A
:10043300120662F452B152B2EE6401700B900001E5
:1004430012066242B1F452B21206496402700A9073
:10045300000112066242B142B21206496403700DF2
:10046300900001120662FEF452B1EE42B2EF640450
:100473007046120649FE700B900001120662F45298
:10048300B352B4EE6401700B90000112066242B3E2
:10049300F452B41206496402700A90000112066213
:1004A30042B342B41206496403700D900001120670
:1004B30062FEF452B3EE42B4EF640570461206498D
:1004C300FE700B900001120662F452C952CAEE6428
:1004D30001700B90000112066242C9F452CA12065F
:1004E300496402700A90000112066242C942CA12AC
:1004F30006496403700D900001120662FEF452C9AE
:10050300EE42CAEF64067046120649FE700B900075
:1005130001120662F452CB52CCEE6401700B9000D0
:100523000112066242CBF452CC1206496402700AED
:1005330090000112066242CB42CC1206496403705A
:100543000D900001120662FEF452CBEE42CCEF6432
:10055300077049120649FF7E00700B9000011206D6
:1005630062F452E152E2EF64014E700B900001120B
:10057300066242E1F452E21206496402700A9000F4
:100583000112066242E142E21206496403700D90D1
:100593000001120662FFF452E1EF42E27F0022E41F
:1005A300F508750901F50A750BFF750C10750E0139
:1005B300FB7A007908FF1200A6E4FD7F011206C74B
:1005C300E4F508750901F50A750BF6750CA0750EAF
:1005D30001FB7A0079087F011200A6E4FD7F011276
:1005E300071C750901E4F50A750BA2750C40F50D9E
:1005F300750E01FB7A0079087F021200A6E4FD7FE5
:1006030001120066E4F509F50A750BB1750CE0F506
:100613000D750E01FB7A0079087F031200A6E4FD35
:100623007F01120771E4F509F50A750B63750CC0B8
:10063300F50D750E01FB7A0079087F041200A6E41C
:10064300FD7F0102001EBB010689828A83E02250DE
:1006530002E722BBFE02E32289828A83E49322BB60
:10066300010CE58229F582E5833AF583E022500601
:10067300E92582F8E622BBFE06E92582F8E222E5B7
:100683008229F582E5833AF583E49322BB0110E5E1
:100693008229F582E5833AF583E0F5F0A3E0225061
:1006A30009E92582F886F008E622BBFE0AE92582DD
:1006B300F8E2F5F008E222E5832AF583E993F5F001
:1006C300A3E99322EFFB7A00D394017480948040D2
:1006D300037FFF22EDD394037480948040037FFF54
:1006E30022EB4A7004C2A98002D2A9ED700553B768
:1006F300FDC2B9EDFF7E006401700553B7FDD2B9A9
:10070300EF64024E700543B702C2B9EF64034E7043
:100713000543B702D2B97F0022EFFB7A00D39401DD
:100723007480948040037FFF22EDD39403748094FC
:100733008040037FFF22EB4A7004C2AB8002D2AB3E
:10074300ED700553B7F7C2BBEDFF7E006401700582
:1007530053B7F7D2BBEF64024E700543B708C2BB71
:10076300EF64034E700543B708D2BB7F0022EFD37B
:1007730094017480948040037FFF22EDD39403742B
:1007830080948040037FFF22EFC43354E0FFE5AF42
:1007930054DF4FF5AFE4FF22750901E4F508FB7A56
:1007A3000079087F0412032B7509FFE4F508FB7A2F
:0807B3000079087F0602032B08
:00000001FF
