:10000000021272AE0702127ED20932020008539524
:10001000CF5396CF53B1FC53B2FC2202001EB2EE76
:0100200032AD
:1000230002117212128812003590FE817403F002DD
:1000330000B590FE86EFF090FE817402F00200B5E9
:1000430002112590FE817404F01200B590FE87E042
:10005300FF2290FE82E4F090FE817405F00200B569
:1000630002008E750B01750A01E4F50C750910FB8E
:100073007A007909120EF2E4FBFD7F01120F6EE59F
:0E008300BA54CF4410F5BA22021087B2ED3203
:060093000210D6B2EC32AF
:06009B00020096B2EB32F8
:1000A30002009E90FE827401F090FE817405F002BE
:0E00B30000B590FE82E030E6F9E054BFF02286
:1000C300020E4F8F128B138A148915EF640160039C
:1000D300020244F522F523F524F525F526F516F558
:1000E3001774402517F58274013516F583E4F0057E
:1000F30017E517700205166480451670E4E4F516DB
:10010300F51774002517F58274003516F583E4F0AE
:100113000517E517700205166480451670E4AB13E6
:10012300AA14A915120B7BFFE598543F4FF598EFDE
:1001330064C06008EF644060030201F390000212A0
:100143000CFD7F807E8D7D5B7C00120C478F1B8EA8
:100153001A8D198C18E4FFFE7D01FCAB1BAA1AA9AA
:1001630019A818C3120CD940037FFF22C3E4951BBF
:10017300F51BE4951AF51A74019519F519E4951808
:10018300F518AB13AA14A915900001120B94FB7A6E
:10019300006401702CC28E538EFE5389BF5389CFE6
:1001A300438E40AF1BAE1AAD19AC187808120CEA97
:1001B3008F8D851B8BC2AB5389BF538FFDD28E802E
:1001C30069EB64024A7026538EEF438E01538EF718
:1001D300438E04AF1BAE1AAD19AC187808120CEAA3
:1001E3008FD6851BD753AFFB438E10803D7FFF22F5
:1001F300AB13AA14A915120B7BFF7E007014900099
:1002030008120B9464017005438E20801D538EDF0A
:100213008018EF64804E7012900008120B946401F2
:100223007005438780800353877FAB13AA14A915F6
:10023300900007120B947004C29C8002D29C7F0032
:1002430022E51264026003020341F527F528F5292C
:10025300F52AF52BF516F51774E02517F5827401C9
:100263003516F583E4F00517E5177002051664806B
:10027300451670E4E4F516F51774802517F58274B6
:10028300003516F583E4F00517E5177002051664CB
:1002930080451670E4AB13AA14A915120B7BFF7EDD
:1002A3000064C06005EF64407077EF64C04E700572
:1002B300439A808003539A7F900002120CFD7F8043
:1002C3007E8D7D5B7C00120C478F1B8E1A8D198CE3
:1002D30018E4FFFE7D01FCAB1BAA1AA919A818C3D9
:1002E300120CD940037FFF22C3E4951BF51BE49551
:1002F3001AF51A74019519F519E49518F518538E22
:10030300EF538EF7438E04AF1BAE1AAD19AC1878BA
:1003130008120CEA8FD6851BD753AFFB438E108090
:10032300037FFF22AB13AA14A915900007120B94A5
:10033300C454F0FFE59A54EF4FF59A7F0022E5127B
:100343006403600302047DF52CF52DF52EF52FF5DE
:1003530030F516F51774602517F58274023516F516
:1003630083E4F00517E5177002051664404516701F
:10037300E4E4F516F51774002517F58274013516B4
:10038300F583E4F00517E51770020516644045167A
:1003930070E4AB13AA14A915120B7BFF7E0064C093
:1003A3006008EF64406003020460EF64C04E7005B0
:1003B30043AC80800353AC7F900002120CFD7F801E
:1003C3007E8D7D5B7C00120C478F1B8E1A8D198CE2
:1003D30018E4FFFE7D01FCAB1BAA1AA919A818C3D8
:1003E300120CD940037FFF22C3E4951BF51BE49550
:1003F3001AF51A74019519F519E49518F518AB1344
:10040300AA14A915900001120B94FB7A00640370DF
:100413001D43AC40AF1BAE1AAD19AC187808120CD3
:10042300EA8FD4851BD553D1F043D10A8032EB64D4
:10043300024A7026538EEF53ACBF538EF7438E049C
:10044300AF1BAE1AAD19AC187808120CEA8FD6851B
:100453001BD753AFFB438E1080067FFF227FFF2203
:10046300AB13AA14A915900007120B94C454F0FF00
:10047300E5AC54EF4FF5AC7F0022E5126404600352
:100483000205B9F531F532F533F534F535F516F5E1
:100493001774A02517F58274023516F583E4F00569
:1004A30017E517700205166420451670E4E4F51687
:1004B300F51774C02517F58274013516F583E4F03A
:1004C3000517E517700205166420451670E4AB1393
:1004D300AA14A915120B7BFF7E0064C06008EF64A9
:1004E30040600302059CEF64C04E70054384808026
:1004F3000353847F900002120CFD7F807E8D7D5B11
:100503007C00120C478F1B8E1A8D198C18E4FFFE8A
:100513007D01FCAB1BAA1AA919A818C3120CD94058
:10052300037FFF22C3E4951BF51BE4951AF51A74A8
:10053300019519F519E49518F518AB13AA14A91523
:10054300900001120B94FB7A006404701D438440F5
:10055300AF1BAE1AAD19AC187808120CEA8FD2850E
:100563001BD353D10F43D1A08032EB64024A7026D0
:10057300538EEF5384BF538EF7438E04AF1BAE1AD3
:10058300AD19AC187808120CEA8FD6851BD753AF78
:10059300FB438E1080067FFF227FFF22AB13AA143A
:1005A300A915900007120B94C454F0FFE58454EF8F
:1005B3004FF5847F00227FFF22E518240CF8E6051F
:1005C30018227809300702780CE475F001120D63E4
:1005D300020B7B2000EB7F2ED2008018EF540F24F8
:1005E30090D43440D4FF30040BEF24BFB41A00502E
:1005F300032461FFE51960021519051CE51C70024F
:10060300051B30070D7809E475F001120D63EF0245
:100613000BC10200037403D2078003E4C207F51879
:100623008B098A0A890BE4F519F51BF51CE519609A
:10063300077F201205F780F5751AFFC201C200C2B9
:1006430002C203C205C206C2081205C5FF700D30FF
:1006530007057F00120608AF1CAE1B22B4255FC23C
:10066300D5C2041205C5FF24D0B40A00501A75F090
:100673000A781930D50508B6FF0106C6A426F62068
:10068300D5047002D20380D924CFB41A00EF5004EA
:10069300C2E5D204020808D20180C6D20080C0D2CB
:1006A3000280BCD2D580BAD20580B47F201205F770
:1006B3002002077401B5190040F11205BCFF1205B1
:1006C300F7020630D208D20680951205BCFB12054C
:1006D300BCFA1205BCF94A4B700679D97A087BFF3C
:1006E30020022EE519602A7E008E82758300120B8C
:1006F3009460060EEE651A70F0C2D5EBC0E0EAC056
:10070300E0E9C0E0EE12084FD0E0F9D0E0FAD0E023
:10071300FB120B7BFF60AAEBC0E0EAC0E0E9C0E09C
:100723001205F7D0E02401F9D0E03400FAD0E0FB61
:10073300E51A0460DCD51AD980877BFF7A08794BE8
:10074300D202809C791080027908C206C208800810
:10075300D2D5790A8004790AC2D5E51A047002F564
:100763001AE4FAFDFEFF1205BCFC7B0820011312FC
:1007730005BCFD7B1030000A1205BCFE1205BCFF50
:100783007B20EC3382D592D55013C3E43000069F0F
:10079300FFE49EFEE42001039DFDE49CFCE4CBF812
:1007A300C201EC700CCFCECDCCE824F8F870F38006
:1007B30017C3EF33FFEE33FEED33FDEC33FCEB33C6
:1007C300FB994002FB0FD8E9EB300105F8D0E0C4F8
:1007D30048B201C0E00AEC4D4E4F78207B0070C256
:1007E300EAB51A0040BCC0E0120851D0F0D0E020B6
:1007F3000104C4C0E0C4B201C0F01205E0D0F0D5DA
:10080300F0EB020630120D7306CD53074758069ED0
:100813004C069A42074B4F07534407534906B343C9
:10082300075955073D46073D45073D4708F950061B
:10083300A22D06A62E06C92B06AA2306C72008E268
:100843002A066248000006C13F3F3F00790AA2D54D
:10085300200314300509B910020404B9080104A2E5
:10086300D52006025001042002689202B5190050F7
:1008730034C0E07F203003197F30A2027206720574
:10088300500F1208A8C202C206C205C2087F3080F8
:100893000F300503E9C0E01205F7300503D0E0F996
:1008A300D0E0B519CC3005177F30B9100C1205F71D
:1008B3007F583004077F788003B908031205F730A7
:1008C30002057F2D0205F77F202008F87F2B2006E5
:1008D300F322920280CF286E756C6C2900D201122C
:1008E30005BC3001F8C201781930D50108F60206BB
:1008F300622D504349581205BC2403B4050040013E
:10090300E49008F4931205E8743A1205E8D20375EB
:100913001904020747AD07ED707EC28C120B7BFEF4
:10092300D394037480948040037FFF22E58954FCB1
:100933004EF589900001120B94FED39402748094B7
:100943008040037FFF22EEFF7E007006538E7F53AD
:1009530089FBEF64014E7006438E805389FBEF647D
:10096300024E7003438904900002120B94FFE58F3B
:1009730054FE4FF58F900003120BD3E5F0F58C90E6
:100983000003120BD3F58A900005120B947004C276
:100993008C8002D28C7F0022ED64016003020A285E
:1009A300C28E120B7BFED394037480948040037F2A
:1009B300FF22EEC454F0FFE58954CF4FF589900030
:1009C30001120B94FED394027480948040037FFF42
:1009D30022EEFF7E007006538EBF5389BFEF640182
:1009E3004E7006438E405389BFEF64024E7003433B
:1009F3008940900002120B9425E0FFE58F54FD4FD0
:100A0300F58F900003120BD3E5F0F58D90000312E0
:100A13000BD3F58B900005120B947004C28E8002E9
:100A2300D28E7F0022ED64027061538EEF9000013D
:100A3300120B94FF7E007006538EFB538EF7EF6408
:100A4300014E7006438E04538EF7EF64024E70031B
:100A5300438E08900002120B9425E025E0FFE58FFA
:100A630054FB4FF58F900003120BD3E5F0F5D690AE
:100A73000003120BD3F5D7900005120B94C454F066
:100A8300FFE58E54EF4FF58E7F0022ED640370690E
:100A930053D1F7900001120B94FED3940274809407
:100AA3008040037FFF22EEFF7E00700653D1FD538B
:100AB300D1FBEF64014E700643D10253D1FBEF64C7
:100AC300024E700343D104900002120B94FFE5D150
:100AD30054FE4FF5D1900003120BD3E5F0F5D490FB
:100AE3000003120BD3F5D5900005120B9433333367
:100AF30054F8FFE5D154F78076ED6404707753D151
:100B03007F900001120B94FD7C00D39402748094B7
:100B13008040037FFF22ED4C700653D1DF53D1BFDA
:100B2300900001120B946401700643D12053D1BF8E
:100B3300900001120B946402700343D140900002B1
:100B4300120B94C454F0FFE5D154EF4FF5D190004C
:100B530003120BD3FDACF0ECF5D2AF058FD39000AD
:100B630005120B94C43333335480FFE5D1547F4FC4
:100B7300F5D17F00227FFF22BB010689828A83E0B1
:100B8300225002E722BBFE02E32289828A83E49396
:100B930022BB010CE58229F582E5833AF583E02245
:100BA3005006E92582F8E622BBFE06E92582F8E233
:100BB30022E58229F582E5833AF583E49322BB019A
:100BC3000689828A83F0225002F722BBFE01F322B8
:100BD300BB0110E58229F582E5833AF583E0F5F060
:100BE300A3E0225009E92582F886F008E622BBFE3D
:100BF3000AE92582F8E2F5F008E222E5832AF58383
:100C0300E993F5F0A3E9932275F008758200EF2FBD
:100C1300FFEE33FECD33CDCC33CCC58233C5829BBF
:100C2300ED9AEC99E58298400CF582EE9BFEED9AE5
:100C3300FDEC99FC0FD5F0D6E4CEFBE4CDFAE4CC81
:100C4300F9A88222B800C1B90059BA002DEC8BF083
:100C530084CFCECDFCE5F0CBF97818EF2FFFEE3340
:100C6300FEED33FDEC33FCEB33FB10D7039940046B
:100C7300EB99FB0FD8E5E4F9FA227818EF2FFFEE92
:100C830033FEED33FDEC33FCC933C910D7059BE9C3
:100C93009A4007EC9BFCE99AF90FD8E0E4C9FAE41F
:100CA300CCFB2275F010EF2FFFEE33FEED33FDCCBE
:100CB30033CCC833C810D7079BEC9AE899400AEDA8
:100CC3009BFDEC9AFCE899F80FD5F0DAE4CDFBE450
:100CD300CCFAE4C8F922EB9FF5F0EA9E42F0E99DD5
:100CE30042F0E89C45F022E8600FECC313FCED13DF
:100CF300FDEE13FEEF13FFD8F122BB010DE58229B0
:100D0300F582E5833AF583020D3A5007E92582F827
:100D1300020D2DBBFE07E92582F8020D46E5822967
:100D2300F582E5833AF583020D53E6FB08E6F908FD
:100D3300E6FA08E6CBF822E0F8A3E0F9A3E0FAA389
:100D4300E0FB22E2FB08E2F908E2FA08E2CBF82230
:100D5300E493F8740193F9740293FA740393FB22F6
:100D6300FAE6FB0808E6F925F0F618E6CA3AF62291
:100D7300D083D082F8E4937012740193700DA3A30F
:100D830093F8740193F5828883E473740293686023
:100D9300EFA3A3A380DF43BA8012000E12125112F5
:100DA3000066121224D2AF3009FDC2090537E537B8
:100DB30070020536C394D0E536940740EAE4F5366D
:100DC300F5377B017A0279C0750E08FD7FA01211F9
:100DD300B97BFF7A12799A12061EE4F508C3E50877
:100DE30094087480948050487BFF7A1279A074C071
:100DF3002508F582E43402F583E0F50C12061E742F
:100E0300C02508F582E43402F583E0F4701074C061
:100E13002508F582E43402F583E508F0800E74C0FA
:100E23002508F582E43402F583E004F0050880AD7B
:100E33007BFF7A1279A912061E7B017A0279C075AB
:100E43000E08E4FD7FA01211F3020DAAC0E0C083D7
:100E5300C082C0D075D000C006C00790FE84E030C9
:100E6300E606E054BFF0807A90FE84E030E535E09A
:100E730054DFF0E51E6005751E008066E51D600DFC
:100E8300751D0090FE87E0F51F24C0803490FE8717
:100E9300E0FFAE1F051F74C02EF582E43402F58314
:100EA300EFF0803E90FE84E030E424E054EFF0E085
:100EB30030E10890FE8674FFF08027051F74C0257B
:100EC3001FF582E43402F583E090FE86F0801390F0
:100ED300FE84E030E30CE054F7F0751E01751D014C
:100EE300D20AD007D006D0D0D082D083D0E03290BF
:100EF3000002120B946401702990FE80E04440F0DC
:100F030090FE82E4F0120B7B543FFF90FE80E0548E
:100F1300C04FF0900003120B94640190FE88702C74
:100F2300803090FE80E054BFF090FE84E4F09000A7
:100F330004120B9425E0FF90FE85E054014FF090DE
:100F43000005120B94640190FE857006E054FEF0D8
:100F53008004E04401F0900001120B9490FE807035
:100F630005E0547FF022E04480F022EFD394017433
:100F730080948040037FFF22EBD39403748094809A
:100F830040037FFF22EF64017012ED90FE81700633
:100F9300E0547FF08011E04480F0800BEF70089004
:100FA300FE83E054874DF0EBFF7E00700653B6DFFF
:100FB30053B5DFEF64014E700653B6DF43B520EF40
:100FC30064024E700643B62053B5DFEF64034E70E0
:100FD3000643B62043B5207F0022EFFB7A00D3946B
:100FE300017480948040037FFF22EDD394037480C7
:100FF300948040037FFF22EB4A7004C2A98002D28F
:10100300A9ED700553B7FDC2B9EDFF7E0064017011
:101013000553B7FDD2B9EF64024E700543B702C260
:10102300B9EF64034E700543B702D2B97F0022EFD4
:10103300FB7A00D394017480948040037FFF22EDF8
:10104300D394037480948040037FFF22EB4A70049F
:10105300C2AC8002D2ACED700553B7EFC2BCEDFF5A
:101063007E006401700553B7EFD2BCEF64024E708B
:101073000543B710C2BCEF64034E700543B710D2EB
:10108300BC7F0022C0E0C083C082C0D075D000C046
:1010930007E5AC5401602553ACFEC3E52F944074BF
:1010A3008094804003752F00AF2F052F74002FF518
:1010B30082E43401F583E5ADF0753005E5AC540207
:1010C300600653ACFD752E00D007D0D0D082D083FC
:1010D300D0E032C0E0C083C082C0D075D000C0076A
:1010E300E584540160255384FEC3E5349420748061
:1010F30094804003753400AF34053474C02FF582F7
:10110300E43401F583E585F0753505E58454026023
:10111300065384FD753300D007D0D0D082D083D05E
:10112300E032C0E0C083C082C0D075D000C007E504
:101133009A30E025539AFEC3E52A94807480948004
:101143004003752A00AF2A052A74802FF582E43400
:1011530000F583E59BF0752B05E59A30E106539A7C
:10116300FD752900D007D0D0D082D083D0E032C023
:10117300E0C083C082C0D075D000C007309824C2BD
:1011830098C3E5259480748094804003752500AF4F
:1011930025052574002FF582E43400F583E599F0E5
:1011A300752605309905C299752400D007D0D0D093
:1011B30082D083D0E032AE07120026AF051200358D
:1011C30012002C121288EE4401FF12003512002C7B
:1011D300120046EF120BC1740129F9E43AFAE50E45
:1011E30064016003120055D50EE61200A6021291A7
:1011F3008B0B8A0C890DAE05120026AF0612003543
:1012030012002CAB0B050DE50DAA0C7002050C1496
:10121300F9120B7BFF12003512002CD50EE50212DA
:1012230091750940750A01750E00750DC2750C01A3
:10123300750B00751001E4F511FB7A0079097F0144
:101243001200C67D017F0112103253A23F22E4F542
:1012530009750A01F50B750CA2750D40750E01FB9E
:101263007A007909FF120918E4FD7F01020FDD7886
:101273007FE4F6D8FD758137020D998F99752401A6
:10128300E52470FC2290FE817401F00200B590FE0B
:10129300817406F00200B5526561643D0030782523
:0912A3003032627820000D0A00CF
:00000001FF
