:10000000020003787FE4F6D8FD758135020E4B8F30
:1000100099750A01E50A70FC2253B1FC53B2FC2227
:08002300020E04AE0702000FFB
:03004300020D703B
:03006B00020EBCC6
:03008B00020CD292
:10009300020D21EFFB7A00D3940174809480400316
:1000A3007FFF22EDD394037480948040037FFF226B
:1000B300EB4A7004C2AC8002D2ACED700553B7EFCB
:1000C300C2BCEDFF7E006401700553B7EFD2BCEFF5
:1000D30064024E700543B710C2BCEF64034E700553
:1000E30043B710D2BC7F002275230175220175240A
:1000F3001775250C75261F75271775283B75293726
:10010300E4F52AF52BF52CF52DF52EFB7A00792253
:0A011300120B5DE4FD7F88020DBDB4
:10012300016B8F2B8B2C8A2D892EEF6401600302C8
:1001330002A3F508F509F50AF50BF50CF52FF530D3
:1001430074402530F5827401352FF583E4F00530D2
:10015300E5307002052F6480452F70E4E4F52FF538
:100163003074002530F5827400352FF583E4F005F3
:1001730030E5307002052F6480452F70E4AB2CAA64
:100183002DA92E120977FFE598543F4FF598EF6498
:10019300C06008EF64406003020252900002120A3A
:1001A300AF7F807E8D7D5B7C001209F98F348E33A7
:1001B3008D328C31E4FFFE7D01FCAB34AA33A932CE
:1001C300A831C3120A8B40037FFF22C3E49534F5A1
:1001D30034E49533F53374019532F532E49531F512
:1001E30031AB2CAA2DA92E900001120990FB7A00A5
:1001F3006401702CC28E538EFE5389BF5389CF4343
:100203008E40AF34AE33AD32AC317808120A9C8FD6
:100213008D85348BC2AB5389BF538FFDD28E8069DA
:10022300EB64024A7026538EEF438E01538EF743DD
:100233008E04AF34AE33AD32AC317808120A9C8FE2
:10024300D68534D753AFFB438E10803D7FFF22AB5F
:100253002CAA2DA92E120977FF7E00701490000896
:1002630012099064017005438E20801D538EDF8038
:1002730018EF64804E7012900008120990640170A8
:1002830005438780800353877FAB2CAA2DA92E902B
:1002930000071209907004C29C8002D29C7F002246
:1002A300E52B640260030203A0F50DF50EF50FF5CF
:1002B30010F511F52FF53074E02530F58274013512
:1002C3002FF583E4F00530E5307002052F64804597
:1002D3002F70E4E4F52FF53074802530F582740037
:1002E300352FF583E4F00530E5307002052F648087
:1002F300452F70E4AB2CAA2DA92E120977FF7E009F
:1003030064C06005EF64407077EF64C04E700543CE
:100313009A808003539A7F900002120AAF7F807EF7
:100323008D7D5B7C001209F98F348E338D328C31D5
:10033300E4FFFE7D01FCAB34AA33A932A831C3121A
:100343000A8B40037FFF22C3E49534F534E49533ED
:10035300F53374019532F532E49531F531538EEF6F
:10036300538EF7438E04AF34AE33AD32AC317808DD
:10037300120A9C8FD68534D753AFFB438E1080036C
:100383007FFF22AB2CAA2DA92E900007120990C43F
:1003930054F0FFE59A54EF4FF59A7F0022E52B6462
:1003A3000360030204DCF512F513F514F515F516D5
:1003B300F52FF53074602530F5827402352FF583FF
:1003C300E4F00530E5307002052F6440452F70E4FA
:1003D300E4F52FF53074002530F5827401352FF5DF
:1003E30083E4F00530E5307002052F6440452F703B
:1003F300E4AB2CAA2DA92E120977FF7E0064C060FE
:1004030008EF644060030204BFEF64C04E7005430D
:10041300AC80800353AC7F900002120AAF7F807ED2
:100423008D7D5B7C001209F98F348E338D328C31D4
:10043300E4FFFE7D01FCAB34AA33A932A831C31219
:100443000A8B40037FFF22C3E49534F534E49533EC
:10045300F53374019532F532E49531F531AB2CAABD
:100463002DA92E900001120990FB7A006403701DE0
:1004730043AC40AF34AE33AD32AC317808120A9C92
:100483008FD48534D553D1F043D10A8032EB640243
:100493004A7026538EEF53ACBF538EF7438E04AF8F
:1004A30034AE33AD32AC317808120A9C8FD6853422
:1004B300D753AFFB438E1080067FFF227FFF22AB13
:1004C3002CAA2DA92E900007120990C454F0FFE521
:1004D300AC54EF4FF5AC7F0022E52B6404600302BC
:1004E3000618F517F518F519F51AF51BF52FF5305C
:1004F30074A02530F5827402352FF583E4F00530BE
:10050300E5307002052F6420452F70E4E4F52FF5E4
:100513003074C02530F5827401352FF583E4F0057E
:1005230030E5307002052F6420452F70E4AB2CAA10
:100533002DA92E120977FF7E0064C06008EF644086
:1005430060030205FBEF64C04E70054384808003A3
:1005530053847F900002120AAF7F807E8D7D5B7C87
:10056300001209F98F348E338D328C31E4FFFE7D16
:1005730001FCAB34AA33A932A831C3120A8B40035E
:100583007FFF22C3E49534F534E49533F5337401E6
:100593009532F532E49531F531AB2CAA2DA92E9085
:1005A3000001120990FB7A006404701D438440AF7C
:1005B30034AE33AD32AC317808120A9C8FD2853415
:1005C300D353D10F43D1A08032EB64024A70265338
:1005D3008EEF5384BF538EF7438E04AF34AE33ADE7
:1005E30032AC317808120A9C8FD68534D753AFFBCF
:1005F300438E1080067FFF227FFF22AB2CAA2DA9FA
:100603002E900007120990C454F0FFE58454EF4F75
:10061300F5847F00227FFF22E5312425F8E60531AA
:100623002278223007027825E475F001120B2702A5
:1006330009772000EB7F2ED2008018EF540F24900F
:10064300D43440D4FF30040BEF24BFB41A0050035A
:100653002461FFE532600215320535E53570020588
:100663003430070D7822E475F001120B27EF020AEC
:10067300DF0200267403D2078003E4C207F5318B3F
:10068300228A238924E4F532F534F535E53260070F
:100693007F2012065680F57533FFC201C200C202E5
:1006A300C203C205C206C208120624FF700D30073A
:1006B300057F00120667AF35AE3422B4255FC2D57D
:1006C300C204120624FF24D0B40A00501A75F00A9B
:1006D300783230D50508B6FF0106C6A426F620D524
:1006E300047002D20380D924CFB41A00EF5004C29D
:1006F300E5D204020867D20180C6D20080C0D202CC
:1007030080BCD2D580BAD20580B47F201206562091
:1007130002077401B5320040F112061BFF120656A0
:1007230002068FD208D206809512061BFB12061B07
:10073300FA12061BF94A4B700679387A097BFF20B7
:10074300022EE532602A7E008E82758300120990A4
:1007530060060EEE653370F0C2D5EBC0E0EAC0E090
:10076300E9C0E0EE1208AED0E0F9D0E0FAD0E0FB49
:10077300120977FF60AAEBC0E0EAC0E0E9C0E0122B
:100783000656D0E02401F9D0E03400FAD0E0FBE5CE
:10079300330460DCD533D980877BFF7A0879AAD20A
:1007A30002809C791080027908C206C2088008D2B0
:1007B300D5790A8004790AC2D5E533047002F5338A
:1007C300E4FAFDFEFF12061BFC7B08200113120650
:1007D3001BFD7B1030000A12061BFE12061BFF7B5B
:1007E30020EC3382D592D55013C3E43000069FFF2B
:1007F300E49EFEE42001039DFDE49CFCE4CBF8C2EF
:1008030001EC700CCFCECDCCE824F8F870F3801750
:10081300C3EF33FFEE33FEED33FDEC33FCEB33FB81
:10082300994002FB0FD8E9EB300105F8D0E0C4484A
:10083300B201C0E00AEC4D4E4F78207B0070C2EA53
:10084300B5330040BCC0E01208B0D0F0D0E02001C6
:1008530004C4C0E0C4B201C0F012063FD0F0D5F02A
:10086300EB02068F120B37072C5307A65806FD4CD5
:1008730006F94207AA4F07B24407B24907124307D2
:10088300B855079C46079C45079C470958500701E4
:100893002D07052E07282B07092307262009412AA0
:1008A30006C148000007203F3F3F00790AA2D52038
:1008B3000314300509B910020404B9080104A2D5D0
:1008C3002006025001042002689202B5320050341F
:1008D300C0E07F203003197F30A2027206720550F8
:1008E3000F120907C202C206C205C2087F30800F79
:1008F300300503E9C0E0120656300503D0E0F9D015
:10090300E0B532CC3005177F30B9100C1206567F94
:10091300583004077F788003B90803120656300263
:10092300057F2D0206567F202008F87F2B2006F333
:1009330022920280CF286E756C6C2900D2011206B8
:100943001B3001F8C201783230D50108F60206C126
:100953002D5043495812061B2403B405004001E4FB
:1009630090095393120647743A120647D20375321D
:10097300040207A6BB010689828A83E0225002E7AC
:1009830022BBFE02E32289828A83E49322BB010C09
:10099300E58229F582E5833AF583E0225006E925CD
:1009A30082F8E622BBFE06E92582F8E222E58229E7
:1009B300F582E5833AF583E4932275F008758200A6
:1009C300EF2FFFEE33FECD33CDCC33CCC58233C511
:1009D300829BED9AEC99E58298400CF582EE9BFEA2
:1009E300ED9AFDEC99FC0FD5F0D6E4CEFBE4CDFAFD
:1009F300E4CCF9A88222B800C1B90059BA002DECA1
:100A03008BF084CFCECDFCE5F0CBF97818EF2FFF38
:100A1300EE33FEED33FDEC33FCEB33FB10D70399E0
:100A23004004EB99FB0FD8E5E4F9FA227818EF2F8D
:100A3300FFEE33FEED33FDEC33FCC933C910D705AC
:100A43009BE99A4007EC9BFCE99AF90FD8E0E4C9CB
:100A5300FAE4CCFB2275F010EF2FFFEE33FEED33FB
:100A6300FDCC33CCC833C810D7079BEC9AE8994028
:100A73000AED9BFDEC9AFCE899F80FD5F0DAE4CD8A
:100A8300FBE4CCFAE4C8F922EB9FF5F0EA9E42F0CE
:100A9300E99D42F0E89C45F022E8600FECC313FCAB
:100AA300ED13FDEE13FEEF13FFD8F122BB010DE5AD
:100AB3008229F582E5833AF583020AFE5007E92588
:100AC30082F8020AF1BBFE07E92582F8020B0AE568
:100AD3008229F582E5833AF583020B17BB01068968
:100AE300828A83F0225002F722BBFE01F322E6FB47
:100AF30008E6F908E6FA08E6CBF822E0F8A3E0F9FD
:100B0300A3E0FAA3E0FB22E2FB08E2F908E2FA0819
:100B1300E2CBF822E493F8740193F9740293FA7424
:100B23000393FB22FAE6FB0808E6F925F0F618E63C
:100B3300CA3AF622D083D082F8E4937012740193F8
:100B4300700DA3A393F8740193F5828883E47374FF
:100B530002936860EFA3A3A380DF900002120990C1
:100B6300D394637480948040037FFF229000031228
:100B73000990D3940C7480948040037FFF229000EB
:100B830004120990D3941F7480948040037FFF2242
:100B9300900005120990D394177480948040037FCA
:100BA300FF22900006120990D3943B7480948040F6
:100BB300037FFF22900007120990D3943B74809423
:100BC3008040037FFF22900008120990D3947F7422
:100BD30080948040037FFF22900009120990D394F0
:100BE300177480948040037FFF2290000A120990BB
:100BF300D3943B7480948040037FFF2290000B12B8
:100C03000990FED3943B7480948040037FFF22902D
:100C1300000C120990FDD3947F7480948040037F6D
:100C2300FF2290000212099090FE68F090000312D8
:100C3300099090FE69F090000412099090FE6AF00A
:100C430090000512099090FE6BF090000612099037
:100C530090FE6CF090000712099090FE6DF09000EA
:100C63000812099090FE6EF090000912099090FE10
:100C730064F090000A12099090FE65F0A3EEF0A3D1
:100C8300EDF0900001120990701590FE047480F04D
:100C930090FE04E030E0F990FE617403F08013905D
:100CA300FE0874C0F090FE08E030E0F990FE617435
:100CB30001F01209776401700E90FE6004F090FE5B
:100CC30061E030E00780F790FE60E4F07F0022C02F
:100CD300E0C083C082C0D075D000C007E5AC54012A
:100CE300602553ACFEC3E5159440748094804003A3
:100CF300751500AF15051574002FF582E43401F561
:100D030083E5ADF0751605E5AC5402600653ACFD02
:100D1300751400D007D0D0D082D083D0E032C0E0A9
:100D2300C083C082C0D075D000C007E58454016081
:100D3300255384FEC3E51A94207480948040037580
:100D43001A00AF1A051A74C02FF582E43401F58333
:100D5300E585F0751B05E584540260065384FD7533
:100D63001900D007D0D0D082D083D0E032C0E0C009
:100D730083C082C0D075D000C007E59A30E0255308
:100D83009AFEC3E51094807480948040037510002C
:100D9300AF10051074802FF582E43400F583E59BD2
:100DA300F0751105E59A30E106539AFD750F00D0F1
:100DB30007D0D0D082D083D0E032EDFB7A00D39439
:100DC3000374809480502FEB700653EEFB53DFFBCC
:100DD300EB64014A700653EEFB43DF04EB64024A03
:100DE300700643EE0453DFFBEB64034A700B43EEE0
:100DF3000443DF0480037FFF2290FE62EFF07F0055
:100E030022C0E0C083C082C0D075D000C007309834
:100E130024C298C3E50B9480748094804003750BBF
:100E230000AF0B050B74002FF582E43400F583E566
:100E330099F0750C05309905C299750A00D007D051
:100E4300D0D082D083D0E03243BA80120019120E80
:100E5300911200EBD2AF300A25C20A7BFF7A0E79DA
:100E6300E790FE70E0F525A3E0F526A3E0F527A3C0
:100E7300E0F528A3E0F529A3E0F52A12067D300961
:100E8300D5C2097BFF7A0F792512067D80C87522AA
:100E9300407523027527007526C275250175240048
:100EA3007529017B007A0079227F011201257D01DA
:100EB3007F0112009653A23F22C0E0C083C08290FC
:100EC300FE63E030E708B281E0547FF0D20990FE80
:100ED30063E030E308B280E054F7F0D20AD082D066
:100EE30083D0E032596561723D32302562642C4D06
:100EF3006F6E74683D2562642C4461793D2562649C
:100F03002C486F75723D2562642C4D696E7574654E
:100F13003D2562642C5365636F6E643D2562640DE9
:0F0F23000A0052544320416C61726D210D0A0087
:00000001FF
