:10000000020069751E03E4F51DFB7A00791D7F036C
:1000100012058C751EC0E4F51DFB7A00791D7F0466
:1000200002058C020C2C120803FF600C12003974BC
:100030000129F9E43AFA80EE228F99750A01E50A5E
:1000400070FC22020BDF120803FF600C12007574B3
:100050000129F9E43AFA80EE227DA37C08ED1D70B7
:10006000011C144C70F7DFF122787FE4F6D8FD759F
:0F007000812F0209A18F9B750F01E50F70FC22F4
:03008B00020B4124
:10009300020B908F268B278A288929EF640160033E
:1000A300020214F508F509F50AF50BF50CF52AF526
:1000B3002B7440252BF5827401352AF583E4F00572
:1000C3002BE52B7002052A6480452A70E4E4F52AA7
:1000D300F52B7400252BF5827400352AF583E4F0A3
:1000E300052BE52B7002052A6480452A70E4AB27B3
:1000F300AA28A929120803FFE598543F4FF598EF62
:1001030064C06008EF644060030201C39000021200
:10011300093B7F007E607D547C001208858F2F8E03
:100123002E8D2D8C2CE4FFFE7D01FCAB2FAA2EA976
:100133002DA82CC312091740037FFF22C3E4952F78
:10014300F52FE4952EF52E7401952DF52DE4952CC0
:10015300F52CAB27AA28A92990000112081CFB7AC9
:10016300006401702CC28E538EFE5389BF5389CF16
:10017300438E40AF2FAE2EAD2DAC2C78081209283C
:100183008F8D852F8BC2AB5389BF538FFDD28E804A
:1001930069EB64024A7026538EEF438E01538EF748
:1001A300438E04AF2FAE2EAD2DAC2C780812092848
:1001B3008FD6852FD753AFFB438E10803D7FFF2211
:1001C300AB27AA28A929120803FF7E007014900008
:1001D3000812081C64017005438E20801D538EDFB6
:1001E3008018EF64804E701290000812081C64019E
:1001F3007005438780800353877FAB27AA28A929EB
:1002030090000712081C7004C29C8002D29C7F00DD
:1002130022E52664026003020311F50DF50EF50FC6
:10022300F510F511F52AF52B74E0252BF5827401F1
:10023300352AF583E4F0052BE52B7002052A64804B
:10024300452A70E4E4F52AF52B7480252BF5827496
:1002530000352AF583E4F0052BE52B7002052A64AB
:1002630080452A70E4AB27AA28A929120803FF7E38
:100273000064C06005EF64407077EF64C04E7005A2
:10028300439A808003539A7F90000212093B7F00B8
:100293007E607D547C001208858F2F8E2E8D2D8CD1
:1002A3002CE4FFFE7D01FCAB2FAA2EA92DA82CC3A5
:1002B30012091740037FFF22C3E4952FF52FE4951E
:1002C3002EF52E7401952DF52DE4952CF52C538EDA
:1002D300EF538EF7438E04AF2FAE2EAD2DAC2C789B
:1002E300081209288FD6852FD753AFFB438E108072
:1002F300037FFF22AB27AA28A92990000712081C15
:10030300C454F0FFE59A54EF4FF59A7F0022E52697
:100313006403600302044DF512F513F514F515F5A6
:1003230016F52AF52B7460252BF5827402352AF510
:1003330083E4F0052BE52B7002052A6440452A70FF
:10034300E4E4F52AF52B7400252BF5827401352A94
:10035300F583E4F0052BE52B7002052A6440452A5A
:1003630070E4AB27AA28A929120803FF7E0064C002
:100373006008EF64406003020430EF64C04E700510
:1003830043AC80800353AC7F90000212093B7F0093
:100393007E607D547C001208858F2F8E2E8D2D8CD0
:1003A3002CE4FFFE7D01FCAB2FAA2EA92DA82CC3A4
:1003B30012091740037FFF22C3E4952FF52FE4951D
:1003C3002EF52E7401952DF52DE4952CF52CAB27E8
:1003D300AA28A92990000112081CFB7A0064037063
:1003E3001D43AC40AF2FAE2EAD2DAC2C78081209B7
:1003F300288FD4852FD553D1F043D10A8032EB64B3
:10040300024A7026538EEF53ACBF538EF7438E04CC
:10041300AF2FAE2EAD2DAC2C78081209288FD685C0
:100423002FD753AFFB438E1080067FFF227FFF221F
:10043300AB27AA28A92990000712081CC454F0FF6F
:10044300E5AC54EF4FF5AC7F0022E526640460036E
:10045300020589F517F518F519F51AF51BF52AF5AF
:100463002B74A0252BF5827402352AF583E4F0055D
:100473002BE52B7002052A6420452A70E4E4F52A53
:10048300F52B74C0252BF5827401352AF583E4F02E
:10049300052BE52B7002052A6420452A70E4AB275F
:1004A300AA28A929120803FF7E0064C06008EF642C
:1004B30040600302056CEF64C04E70054384808086
:1004C3000353847F90000212093B7F007E607D54BA
:1004D3007C001208858F2F8E2E8D2D8C2CE4FFFE31
:1004E3007D01FCAB2FAA2EA92DA82CC312091740FE
:1004F300037FFF22C3E4952FF52FE4952EF52E7489
:1005030001952DF52DE4952CF52CAB27AA28A929C7
:1005130090000112081CFB7A006404701D438440A0
:10052300AF2FAE2EAD2DAC2C78081209288FD285B3
:100533002FD353D10F43D1A08032EB64024A7026EC
:10054300538EEF5384BF538EF7438E04AF2FAE2EDB
:10055300AD2DAC2C78081209288FD6852FD753AF31
:10056300FB438E1080067FFF227FFF22AB27AA2842
:10057300A92990000712081CC454F0FFE58454EF26
:100583004FF5847F00227FFF22EFD394077480947A
:100593008040037FFF22120803FED39403748094E8
:1005A3008040037FFF22EF7044EE700B9000011236
:1005B300081CF4529352941208036401700B9000C8
:1005C3000112081C4293F45294120803FE64027051
:1005D3000A90000112081C42934294EE6403700DCA
:1005E30090000112081CFEF45293EE4294EF640152
:1005F3007046120803FE700B90000112081CF4529F
:10060300915292EE6401700B90000112081C42910A
:10061300F452921208036402700A90000112081C3B
:10062300429142921208036403700D900001120874
:100633001CFEF45291EE4292EF64027046120803DC
:10064300FE700B90000112081CF452955296EE6452
:1006530001700B90000112081C4295F45296120887
:10066300036402700A90000112081C42954296121C
:1006730008036403700D90000112081CFEF45295E8
:10068300EE4296EF64037046120803FE700B90006F
:100693000112081CF452B152B2EE6401700B9000C7
:1006A3000112081C42B1F452B21208036402700A28
:1006B30090000112081C42B142B212080364037095
:1006C3000D90000112081CFEF452B1EE42B2EF6429
:1006D300047046120803FE700B90000112081CF40C
:1006E30052B352B4EE6401700B90000112081C4225
:1006F300B3F452B41208036402700A9000011208A2
:100703001C42B342B41208036403700D900001123B
:10071300081CFEF452B3EE42B4EF640570461208AF
:1007230003FE700B90000112081CF452C952CAEE6A
:100733006401700B90000112081C42C9F452CA12E2
:1007430008036402700A90000112081C42C942CADD
:100753001208036403700D90000112081CFEF4528A
:10076300C9EE42CAEF64067046120803FE700B908E
:10077300000112081CF452CB52CCEE6401700B90B2
:10078300000112081C42CBF452CC1208036402701D
:100793000A90000112081C42CB42CC1208036403E6
:1007A300700D90000112081CFEF452CBEE42CCEF08
:1007B30064077049120803FF7E00700B900001125A
:1007C300081CF452E152E2EF64014E700B900001F9
:1007D30012081C42E1F452E21208036402700A9008
:1007E300000112081C42E142E21208036403700D87
:1007F30090000112081CFFF452E1EF42E27F002255
:10080300BB010689828A83E0225002E722BBFE02F3
:10081300E32289828A83E49322BB010CE58229F5D2
:1008230082E5833AF583E0225006E92582F8E62241
:10083300BBFE06E92582F8E222E58229F582E583FB
:100843003AF583E4932275F008758200EF2FFFEEEB
:1008530033FECD33CDCC33CCC58233C5829BED9AE9
:10086300EC99E58298400CF582EE9BFEED9AFDEC47
:1008730099FC0FD5F0D6E4CEFBE4CDFAE4CCF9A88D
:100883008222B800C1B90059BA002DEC8BF084CF95
:10089300CECDFCE5F0CBF97818EF2FFFEE33FEED6C
:1008A30033FDEC33FCEB33FB10D703994004EB9996
:1008B300FB0FD8E5E4F9FA227818EF2FFFEE33FEA9
:1008C300ED33FDEC33FCC933C910D7059BE99A40DE
:1008D30007EC9BFCE99AF90FD8E0E4C9FAE4CCFBF6
:1008E3002275F010EF2FFFEE33FEED33FDCC33CC4A
:1008F300C833C810D7079BEC9AE899400AED9BFDD3
:10090300EC9AFCE899F80FD5F0DAE4CDFBE4CCFAE5
:10091300E4C8F922EB9FF5F0EA9E42F0E99D42F02C
:10092300E89C45F022E8600FECC313FCED13FDEEE9
:1009330013FEEF13FFD8F122BB010DE58229F582E7
:10094300E5833AF5830209785007E92582F802091D
:100953006BBBFE07E92582F8020984E58229F5824B
:10096300E5833AF583020991E6FB08E6F908E6FA1E
:1009730008E6CBF822E0F8A3E0F9A3E0FAA3E0FB52
:1009830022E2FB08E2F908E2FA08E2CBF822E49358
:10099300F8740193F9740293FA740393FB2243BA34
:1009A30080120003120A40D2AF7BFF7A0C797312D4
:1009B30000267BFF7A0C79901200467F01120059C2
:1009C300D3E50C9400748094804032150CE50C70D0
:1009D3002CD3E50B940074809480401EE4F51CE551
:1009E3001CC3950B50147400251CF582E43400F5E8
:1009F30083E0FF120039051C80E5E4F50BD3E51114
:100A030094007480948040B31511E51170ADD3E563
:100A130010940074809480401EE4F51CE51CC3957B
:100A23001050147480251CF582E43400F583E0FF34
:100A3300120075051C80E5E4F5100209BE751D4022
:100A4300751E017522007521C2752001751F007581
:100A53002401E4F525FB7A00791D7F011200967DC0
:100A6300017F01120AEC751D40E4F5227521E1F5C1
:100A730020F51F752401FB7A00791D7F0212009671
:100A83007D017F01120A9653A23FE5BA54FE440149
:100A9300F5BA22EFD394017480948040037FFF2240
:100AA300EDFB7A00D394037480948040037FFF228C
:100AB300E5AF54FE4FF5AFEB4A700653B6FE53B5A0
:100AC300FEED6401700653B6FE43B501EDFF7E00F3
:100AD3006402700643B60153B5FEEF64034E70061D
:100AE30043B60143B5017F0022EFFB7A00D39401A3
:100AF3007480948040037FFF22EDD3940374809429
:100B03008040037FFF22EB4A7004C2AC8002D2AC68
:100B1300ED700553B7EFC2BCEDFF7E0064017005B5
:100B230053B7EFD2BCEF64024E700543B710C2BC9B
:100B3300EF64034E700543B710D2BC7F0022C0E0C0
:100B4300C083C082C0D075D000C007E5AC5401603B
:100B53002553ACFEC3E5159440748094804003751F
:100B63001500AF15051574002FF582E43401F583E4
:100B7300E5ADF0751605E5AC5402600653ACFD75A2
:100B83001400D007D0D0D082D083D0E032C0E0C0F0
:100B930083C082C0D075D000C007E58454016025AE
:100BA3005384FEC3E51A9420748094804003751A1D
:100BB30000AF1A051A74C02FF582E43401F583E5FA
:100BC30085F0751B05E584540260065384FD751991
:100BD30000D007D0D0D082D083D0E032C0E0C08331
:100BE300C082C0D075D000C007E59A30E025539A83
:100BF300FEC3E5109480748094804003751000AFA9
:100C030010051074802FF582E43400F583E59BF022
:100C1300751105E59A30E106539AFD750F00D0076B
:100C2300D0D0D082D083D0E032C0E0C083C082C0B5
:100C3300D075D000C007309824C298C3E50B9480C8
:100C4300748094804003750B00AF0B050B74002F69
:100C5300F582E43400F583E599F0750C05309905C8
:100C6300C299750A00D007D0D0D082D083D0E032A9
:100C730053544338205541525431205465737420E2
:100C830050726F6772616D6D65210D0A0053544395
:100C93003820554152543220546573742050726F7A
:0A0CA3006772616D6D65210D0A0096
:00000001FF
