:10000000020A52120803FF600C120016740129F94B
:10001000E43AFA80EE228F99750A01E50A70FC2213
:10002000C10000020CF6EF700753CEEF53CE7F22D3
:0F00300043CE1043CE80228FCFD2012001FD227C
:03004300020CA903
:10004B00020D3D7522407523017527007526C2757B
:10005B002501752400752901E4F52AFB7A00792224
:10006B007F011200967D017F01120BB653A23F2236
:10007B007523FFE4F522FB7A0079227F0202058CBF
:03008B00020C0B59
:10009300020C5A8F2B8B2C8A2D892EEF640160035F
:1000A300020214F508F509F50AF50BF50CF52FF521
:1000B3003074402530F5827401352FF583E4F00563
:1000C30030E5307002052F6480452F70E4E4F52F8E
:1000D300F53074002530F5827400352FF583E4F094
:1000E3000530E5307002052F6480452F70E4AB2C9A
:1000F300AA2DA92E120803FFE598543F4FF598EF58
:1001030064C06008EF644060030201C39000021200
:10011300093B7F007E607D547C001208858F348EFE
:10012300338D328C31E4FFFE7D01FCAB34AA33A95D
:1001330032A831C312091740037FFF22C3E4953469
:10014300F534E49533F53374019532F532E49531A2
:10015300F531AB2CAA2DA92E90000112081CFB7AB5
:10016300006401702CC28E538EFE5389BF5389CF16
:10017300438E40AF34AE33AD32AC31780812092828
:100183008F8D85348BC2AB5389BF538FFDD28E8045
:1001930069EB64024A7026538EEF438E01538EF748
:1001A300438E04AF34AE33AD32AC31780812092834
:1001B3008FD68534D753AFFB438E10803D7FFF220C
:1001C300AB2CAA2DA92E120803FF7E0070149000F9
:1001D3000812081C64017005438E20801D538EDFB6
:1001E3008018EF64804E701290000812081C64019E
:1001F3007005438780800353877FAB2CAA2DA92EDC
:1002030090000712081C7004C29C8002D29C7F00DD
:1002130022E52B64026003020311F50DF50EF50FC1
:10022300F510F511F52FF53074E02530F5827401E2
:10023300352FF583E4F00530E5307002052F648037
:10024300452F70E4E4F52FF53074802530F5827482
:1002530000352FF583E4F00530E5307002052F6497
:1002630080452F70E4AB2CAA2DA92E120803FF7E24
:100273000064C06005EF64407077EF64C04E7005A2
:10028300439A808003539A7F90000212093B7F00B8
:100293007E607D547C001208858F348E338D328CC2
:1002A30031E4FFFE7D01FCAB34AA33A932A831C38C
:1002B30012091740037FFF22C3E49534F534E49514
:1002C30033F53374019532F532E49531F531538EBC
:1002D300EF538EF7438E04AF34AE33AD32AC317887
:1002E300081209288FD68534D753AFFB438E10806D
:1002F300037FFF22AB2CAA2DA92E90000712081C06
:10030300C454F0FFE59A54EF4FF59A7F0022E52B92
:100313006403600302044DF512F513F514F515F5A6
:1003230016F52FF53074602530F5827402352FF5FC
:1003330083E4F00530E5307002052F6440452F70EB
:10034300E4E4F52FF53074002530F5827401352F80
:10035300F583E4F00530E5307002052F6440452F46
:1003630070E4AB2CAA2DA92E120803FF7E0064C0F3
:100373006008EF64406003020430EF64C04E700510
:1003830043AC80800353AC7F90000212093B7F0093
:100393007E607D547C001208858F348E338D328CC1
:1003A30031E4FFFE7D01FCAB34AA33A932A831C38B
:1003B30012091740037FFF22C3E49534F534E49513
:1003C30033F53374019532F532E49531F531AB2CC5
:1003D300AA2DA92E90000112081CFB7A0064037059
:1003E3001D43AC40AF34AE33AD32AC3178081209A3
:1003F300288FD48534D553D1F043D10A8032EB64AE
:10040300024A7026538EEF53ACBF538EF7438E04CC
:10041300AF34AE33AD32AC3178081209288FD685AC
:1004230034D753AFFB438E1080067FFF227FFF221A
:10043300AB2CAA2DA92E90000712081CC454F0FF60
:10044300E5AC54EF4FF5AC7F0022E52B6404600369
:10045300020589F517F518F519F51AF51BF52FF5AA
:100463003074A02530F5827402352FF583E4F0054E
:1004730030E5307002052F6420452F70E4E4F52F3A
:10048300F53074C02530F5827401352FF583E4F01F
:100493000530E5307002052F6420452F70E4AB2C46
:1004A300AA2DA92E120803FF7E0064C06008EF6422
:1004B30040600302056CEF64C04E70054384808086
:1004C3000353847F90000212093B7F007E607D54BA
:1004D3007C001208858F348E338D328C31E4FFFE1D
:1004E3007D01FCAB34AA33A932A831C312091740EA
:1004F300037FFF22C3E49534F534E49533F5337475
:10050300019532F532E49531F531AB2CAA2DA92EA4
:1005130090000112081CFB7A006404701D438440A0
:10052300AF34AE33AD32AC3178081209288FD2859F
:1005330034D353D10F43D1A08032EB64024A7026E7
:10054300538EEF5384BF538EF7438E04AF34AE33D1
:10055300AD32AC3178081209288FD68534D753AF22
:10056300FB438E1080067FFF227FFF22AB2CAA2D38
:10057300A92E90000712081CC454F0FFE58454EF21
:100583004FF5847F00227FFF22EFD394077480947A
:100593008040037FFF22120803FED39403748094E8
:1005A3008040037FFF22EF7044EE700B9000011236
:1005B300081CF4529352941208036401700B9000C8
:1005C3000112081C4293F45294120803FE64027051
:1005D3000A90000112081C42934294EE6403700DCA
:1005E30090000112081CFEF45293EE4294EF640152
:1005F3007046120803FE700B90000112081CF4529F
:10060300915292EE6401700B90000112081C42910A
:10061300F452921208036402700A90000112081C3B
:10062300429142921208036403700D900001120874
:100633001CFEF45291EE4292EF64027046120803DC
:10064300FE700B90000112081CF452955296EE6452
:1006530001700B90000112081C4295F45296120887
:10066300036402700A90000112081C42954296121C
:1006730008036403700D90000112081CFEF45295E8
:10068300EE4296EF64037046120803FE700B90006F
:100693000112081CF452B152B2EE6401700B9000C7
:1006A3000112081C42B1F452B21208036402700A28
:1006B30090000112081C42B142B212080364037095
:1006C3000D90000112081CFEF452B1EE42B2EF6429
:1006D300047046120803FE700B90000112081CF40C
:1006E30052B352B4EE6401700B90000112081C4225
:1006F300B3F452B41208036402700A9000011208A2
:100703001C42B342B41208036403700D900001123B
:10071300081CFEF452B3EE42B4EF640570461208AF
:1007230003FE700B90000112081CF452C952CAEE6A
:100733006401700B90000112081C42C9F452CA12E2
:1007430008036402700A90000112081C42C942CADD
:100753001208036403700D90000112081CFEF4528A
:10076300C9EE42CAEF64067046120803FE700B908E
:10077300000112081CF452CB52CCEE6401700B90B2
:10078300000112081C42CBF452CC1208036402701D
:100793000A90000112081C42CB42CC1208036403E6
:1007A300700D90000112081CFEF452CBEE42CCEF08
:1007B30064077049120803FF7E00700B900001125A
:1007C300081CF452E152E2EF64014E700B900001F9
:1007D30012081C42E1F452E21208036402700A9008
:1007E300000112081C42E142E21208036403700D87
:1007F30090000112081CFFF452E1EF42E27F002255
:10080300BB010689828A83E0225002E722BBFE02F3
:10081300E32289828A83E49322BB010CE58229F5D2
:1008230082E5833AF583E0225006E92582F8E62241
:10083300BBFE06E92582F8E222E58229F582E583FB
:100843003AF583E4932275F008758200EF2FFFEEEB
:1008530033FECD33CDCC33CCC58233C5829BED9AE9
:10086300EC99E58298400CF582EE9BFEED9AFDEC47
:1008730099FC0FD5F0D6E4CEFBE4CDFAE4CCF9A88D
:100883008222B800C1B90059BA002DEC8BF084CF95
:10089300CECDFCE5F0CBF97818EF2FFFEE33FEED6C
:1008A30033FDEC33FCEB33FB10D703994004EB9996
:1008B300FB0FD8E5E4F9FA227818EF2FFFEE33FEA9
:1008C300ED33FDEC33FCC933C910D7059BE99A40DE
:1008D30007EC9BFCE99AF90FD8E0E4C9FAE4CCFBF6
:1008E3002275F010EF2FFFEE33FEED33FDCC33CC4A
:1008F300C833C810D7079BEC9AE899400AED9BFDD3
:10090300EC9AFCE899F80FD5F0DAE4CDFBE4CCFAE5
:10091300E4C8F922EB9FF5F0EA9E42F0E99D42F02C
:10092300E89C45F022E8600FECC313FCED13FDEEE9
:1009330013FEEF13FFD8F122BB010DE58229F582E7
:10094300E5833AF5830209785007E92582F802091D
:100953006BBBFE07E92582F8020984E58229F5824B
:10096300E5833AF583020991E6FB08E6F908E6FA1E
:1009730008E6CBF822E0F8A3E0F9A3E0FAA3E0FB52
:1009830022E2FB08E2F908E2FA08E2CBF822E49358
:10099300F8740193F9740293FA740393FB2243BA34
:1009A3008012007B12004E120D83D2AF7BFF7A0DB3
:1009B30079BE1200037F01120DAED3E50C940074CF
:1009C3008094804013150CE50C700DD3E50B940057
:1009D300748094804002D20030003430A231C2A22D
:1009E3007F01120026E4F521E521C3950B50147411
:1009F300002521F582E43400F583E0FF120037057A
:100A03002180E5D2A2E4FF120026E4F50BC200D355
:100A1300E51C940074809480409B151CE51C709524
:100A2300D3E51D940074809480401EE4F521E521F4
:100A3300C3951D501474C02521F582E43402F58357
:100A4300E0FF120016052180E5E4F51D0209B878E0
:100A53007FE4F6D8FD758134020A990209A1E49373
:100A6300A3F8E493A34003F68001F208DFF480299E
:100A7300E493A3F85407240CC8C333C4540F44208D
:100A8300C8834004F456800146F6DFE4800B01027C
:100A9300040810204080900020E47E019360BCA3F2
:100AA300FF543F30E509541FFEE493A360010ECFCA
:100AB30054C025E060A840B8E493A3FAE493A3F8F4
:100AC300E493A3C8C582C8CAC583CAF0A3C8C582B4
:100AD300C8CAC583CADFE9DEE780BE9000011208F9
:100AE3001C6401700543CE80800353CE7F1208033C
:100AF300C4333354C0FFE5CE54BF4FF5CE9000024C
:100B030012081CC43354E0FFE5CE54DF4FF5CE90FA
:100B1300000312081CC454F0FFE5CE54EF4FF5CE8A
:100B230090000412081C33333354F8FFE5CE54F716
:100B33004FF5CE90000512081C25E025E0FFE5CE19
:100B430054FB4FF5CE90000612081CFFE5CE54FC73
:100B53004FF5CEE4F51CC20122EFD39401748094C7
:100B63008040037FFF22EDFB7A00D39403748094CB
:100B73008040037FFF22EF25E0FFE5AF54FD4FF5F3
:100B8300AFEB4A700653B6FD53B5FDED6401700635
:100B930053B6FD43B502EDFF7E006402700643B613
:100BA3000253B5FDEF64034E700643B60243B5022C
:100BB3007F0022EFFB7A00D394017480948040037A
:100BC3007FFF22EDD394037480948040037FFF2240
:100BD300EB4A7004C2AC8002D2ACED700553B7EFA0
:100BE300C2BCEDFF7E006401700553B7EFD2BCEFCA
:100BF30064024E700543B710C2BCEF64034E700528
:100C030043B710D2BC7F0022C0E0C083C082C0D0F3
:100C130075D000C007E5AC5401602553ACFEC3E5B5
:100C2300159440748094804003751500AF15051525
:100C330074002FF582E43401F583E5ADF0751605F4
:100C4300E5AC5402600653ACFD751400D007D0D058
:100C5300D082D083D0E032C0E0C083C082C0D075E0
:100C6300D000C007E584540160255384FEC3E51A10
:100C73009420748094804003751A00AF1A051A7487
:100C8300C02FF582E43401F583E585F0751B05E596
:100C930084540260065384FD751900D007D0D0D068
:100CA30082D083D0E032C0E0C083C082C0D075D090
:100CB30000C007E59A30E025539AFEC3E5109480FF
:100CC300748094804003751000AF10051074802F5A
:100CD300F582E43400F583E59BF0751105E59A3060
:100CE300E106539AFD750F00D007D0D0D082D08390
:100CF300D0E032C0E0C083C082C0D075D000C0074E
:100D0300309824C298C3E50B948074809480400388
:100D1300750B00AF0B050B74002FF582E43400F55F
:100D230083E599F0750C05309905C299750A00D0D1
:100D330007D0D0D082D083D0E032C0E0C083C0825D
:100D4300C0D075D000C007E5CE30E404C2018022D4
:100D5300C3E51D9480748094804003751D00AF1D0E
:100D6300051D74C02FF582E43402F583E5CFF075D9
:100D73001C0575CDC0D007D0D0D082D083D0E0324F
:100D8300752201E4F523F524F525F526752701F5EC
:100D930028FB7A007922120ADE7D037F01120B5CA5
:100DA300E5A254F34404F5A2D2A2227DA37C08ED6C
:100DB3001D70011C144C70F7DFF12253544338208B
:100DC3005541525431D3EB535049CDB8B4ABB3CCA6
:050DD300D0F20D0A0042
:00000001FF
