:10000000020016120803FF600C120036740129F971
:10001000E43AFA80EE22787FE4F6D8FD75812F026B
:0200200009FED7
:10002300020B41751E03E4F51DFB7A00791D7F0564
:0D00330002058C8FAD751401E51470FC22E0
:10004300020AF4751D40751E037522007521C275E1
:100053002001751F007524017B007A00791D7F0341
:100063001200967D017F011209A1E5BA54FD4402F5
:10007300F5BA227DA37C08ED1D70011C144C70F7AA
:03008300DFF12288
:03008B00020A5610
:10009300020AA58F268B278A288929EF640160032A
:1000A300020214F508F509F50AF50BF50CF52AF526
:1000B3002B7440252BF5827401352AF583E4F00572
:1000C3002BE52B7002052A6480452A70E4E4F52AA7
:1000D300F52B7400252BF5827400352AF583E4F0A3
:1000E300052BE52B7002052A6480452A70E4AB27B3
:1000F300AA28A929120803FFE598543F4FF598EF62
:1001030064C06008EF644060030201C39000021200
:10011300093B7F007E607D547C001208858F2F8E03
:100123002E8D2D8C2CE4FFFE7D01FCAB2FAA2EA976
:100133002DA82CC312091740037FFF22C3E4952F78
:10014300F52FE4952EF52E7401952DF52DE4952CC0
:10015300F52CAB27AA28A92990000112081CFB7AC9
:10016300006401702CC28E538EFE5389BF5389CF16
:10017300438E40AF2FAE2EAD2DAC2C78081209283C
:100183008F8D852F8BC2AB5389BF538FFDD28E804A
:1001930069EB64024A7026538EEF438E01538EF748
:1001A300438E04AF2FAE2EAD2DAC2C780812092848
:1001B3008FD6852FD753AFFB438E10803D7FFF2211
:1001C300AB27AA28A929120803FF7E007014900008
:1001D3000812081C64017005438E20801D538EDFB6
:1001E3008018EF64804E701290000812081C64019E
:1001F3007005438780800353877FAB27AA28A929EB
:1002030090000712081C7004C29C8002D29C7F00DD
:1002130022E52664026003020311F50DF50EF50FC6
:10022300F510F511F52AF52B74E0252BF5827401F1
:10023300352AF583E4F0052BE52B7002052A64804B
:10024300452A70E4E4F52AF52B7480252BF5827496
:1002530000352AF583E4F0052BE52B7002052A64AB
:1002630080452A70E4AB27AA28A929120803FF7E38
:100273000064C06005EF64407077EF64C04E7005A2
:10028300439A808003539A7F90000212093B7F00B8
:100293007E607D547C001208858F2F8E2E8D2D8CD1
:1002A3002CE4FFFE7D01FCAB2FAA2EA92DA82CC3A5
:1002B30012091740037FFF22C3E4952FF52FE4951E
:1002C3002EF52E7401952DF52DE4952CF52C538EDA
:1002D300EF538EF7438E04AF2FAE2EAD2DAC2C789B
:1002E300081209288FD6852FD753AFFB438E108072
:1002F300037FFF22AB27AA28A92990000712081C15
:10030300C454F0FFE59A54EF4FF59A7F0022E52697
:100313006403600302044DF512F513F514F515F5A6
:1003230016F52AF52B7460252BF5827402352AF510
:1003330083E4F0052BE52B7002052A6440452A70FF
:10034300E4E4F52AF52B7400252BF5827401352A94
:10035300F583E4F0052BE52B7002052A6440452A5A
:1003630070E4AB27AA28A929120803FF7E0064C002
:100373006008EF64406003020430EF64C04E700510
:1003830043AC80800353AC7F90000212093B7F0093
:100393007E607D547C001208858F2F8E2E8D2D8CD0
:1003A3002CE4FFFE7D01FCAB2FAA2EA92DA82CC3A4
:1003B30012091740037FFF22C3E4952FF52FE4951D
:1003C3002EF52E7401952DF52DE4952CF52CAB27E8
:1003D300AA28A92990000112081CFB7A0064037063
:1003E3001D43AC40AF2FAE2EAD2DAC2C78081209B7
:1003F300288FD4852FD553D1F043D10A8032EB64B3
:10040300024A7026538EEF53ACBF538EF7438E04CC
:10041300AF2FAE2EAD2DAC2C78081209288FD685C0
:100423002FD753AFFB438E1080067FFF227FFF221F
:10043300AB27AA28A92990000712081CC454F0FF6F
:10044300E5AC54EF4FF5AC7F0022E526640460036E
:10045300020589F517F518F519F51AF51BF52AF5AF
:100463002B74A0252BF5827402352AF583E4F0055D
:100473002BE52B7002052A6420452A70E4E4F52A53
:10048300F52B74C0252BF5827401352AF583E4F02E
:10049300052BE52B7002052A6420452A70E4AB275F
:1004A300AA28A929120803FF7E0064C06008EF642C
:1004B30040600302056CEF64C04E70054384808086
:1004C3000353847F90000212093B7F007E607D54BA
:1004D3007C001208858F2F8E2E8D2D8C2CE4FFFE31
:1004E3007D01FCAB2FAA2EA92DA82CC312091740FE
:1004F300037FFF22C3E4952FF52FE4952EF52E7489
:1005030001952DF52DE4952CF52CAB27AA28A929C7
:1005130090000112081CFB7A006404701D438440A0
:10052300AF2FAE2EAD2DAC2C78081209288FD285B3
:100533002FD353D10F43D1A08032EB64024A7026EC
:10054300538EEF5384BF538EF7438E04AF2FAE2EDB
:10055300AD2DAC2C78081209288FD6852FD753AF31
:10056300FB438E1080067FFF227FFF22AB27AA2842
:10057300A92990000712081CC454F0FFE58454EF26
:100583004FF5847F00227FFF22EFD394077480947A
:100593008040037FFF22120803FED39403748094E8
:1005A3008040037FFF22EF7044EE700B9000011236
:1005B300081CF4529352941208036401700B9000C8
:1005C3000112081C4293F45294120803FE64027051
:1005D3000A90000112081C42934294EE6403700DCA
:1005E30090000112081CFEF45293EE4294EF640152
:1005F3007046120803FE700B90000112081CF4529F
:10060300915292EE6401700B90000112081C42910A
:10061300F452921208036402700A90000112081C3B
:10062300429142921208036403700D900001120874
:100633001CFEF45291EE4292EF64027046120803DC
:10064300FE700B90000112081CF452955296EE6452
:1006530001700B90000112081C4295F45296120887
:10066300036402700A90000112081C42954296121C
:1006730008036403700D90000112081CFEF45295E8
:10068300EE4296EF64037046120803FE700B90006F
:100693000112081CF452B152B2EE6401700B9000C7
:1006A3000112081C42B1F452B21208036402700A28
:1006B30090000112081C42B142B212080364037095
:1006C3000D90000112081CFEF452B1EE42B2EF6429
:1006D300047046120803FE700B90000112081CF40C
:1006E30052B352B4EE6401700B90000112081C4225
:1006F300B3F452B41208036402700A9000011208A2
:100703001C42B342B41208036403700D900001123B
:10071300081CFEF452B3EE42B4EF640570461208AF
:1007230003FE700B90000112081CF452C952CAEE6A
:100733006401700B90000112081C42C9F452CA12E2
:1007430008036402700A90000112081C42C942CADD
:100753001208036403700D90000112081CFEF4528A
:10076300C9EE42CAEF64067046120803FE700B908E
:10077300000112081CF452CB52CCEE6401700B90B2
:10078300000112081C42CBF452CC1208036402701D
:100793000A90000112081C42CB42CC1208036403E6
:1007A300700D90000112081CFEF452CBEE42CCEF08
:1007B30064077049120803FF7E00700B900001125A
:1007C300081CF452E152E2EF64014E700B900001F9
:1007D30012081C42E1F452E21208036402700A9008
:1007E300000112081C42E142E21208036403700D87
:1007F30090000112081CFFF452E1EF42E27F002255
:10080300BB010689828A83E0225002E722BBFE02F3
:10081300E32289828A83E49322BB010CE58229F5D2
:1008230082E5833AF583E0225006E92582F8E62241
:10083300BBFE06E92582F8E222E58229F582E583FB
:100843003AF583E4932275F008758200EF2FFFEEEB
:1008530033FECD33CDCC33CCC58233C5829BED9AE9
:10086300EC99E58298400CF582EE9BFEED9AFDEC47
:1008730099FC0FD5F0D6E4CEFBE4CDFAE4CCF9A88D
:100883008222B800C1B90059BA002DEC8BF084CF95
:10089300CECDFCE5F0CBF97818EF2FFFEE33FEED6C
:1008A30033FDEC33FCEB33FB10D703994004EB9996
:1008B300FB0FD8E5E4F9FA227818EF2FFFEE33FEA9
:1008C300ED33FDEC33FCC933C910D7059BE99A40DE
:1008D30007EC9BFCE99AF90FD8E0E4C9FAE4CCFBF6
:1008E3002275F010EF2FFFEE33FEED33FDCC33CC4A
:1008F300C833C810D7079BEC9AE899400AED9BFDD3
:10090300EC9AFCE899F80FD5F0DAE4CDFBE4CCFAE5
:10091300E4C8F922EB9FF5F0EA9E42F0E99D42F02C
:10092300E89C45F022E8600FECC313FCED13FDEEE9
:1009330013FEEF13FFD8F122BB010DE58229F582E7
:10094300E5833AF5830209785007E92582F802091D
:100953006BBBFE07E92582F8020984E58229F5824B
:10096300E5833AF583020991E6FB08E6F908E6FA1E
:1009730008E6CBF822E0F8A3E0F9A3E0FAA3E0FB52
:1009830022E2FB08E2F908E2FA08E2CBF822E49358
:10099300F8740193F9740293FA740393FB22EFD36F
:1009A30094017480948040037FFF22EDFB7A00D38F
:1009B30094037480948040037FFF22EF33333354D6
:1009C300F8FFE5AF54F74FF5AFEB4A700653EEFE71
:1009D30053DFFEED6401700653EEFE43DF01EDFFCE
:1009E3007E006402700643EE0153DFFEEF64034EA4
:1009F300700643EE0143DF017F002243BA801200F9
:100A030026120046D2AF7BFF7A0B79881200037F50
:100A130001120076D3E51694007480948040F0159B
:100A230016E51670EAD3E515940074809480401E91
:100A3300E4F51CE51CC3951550147400251CF582C0
:100A4300E43401F583E0FF120036051C80E5E4F58C
:100A53001580BCC0E0C083C082C0D075D000C00781
:100A6300E5AC5401602553ACFEC3E5159440748096
:100A730094804003751500AF15051574002FF5829A
:100A8300E43401F583E5ADF0751605E5AC54026079
:100A93000653ACFD751400D007D0D0D082D083D0DC
:100AA300E032C0E0C083C082C0D075D000C007E58B
:100AB30084540160255384FEC3E51A942074809402
:100AC300804003751A00AF1A051A74C02FF582E42B
:100AD3003401F583E585F0751B05E5845402600652
:100AE3005384FD751900D007D0D0D082D083D0E0D5
:100AF30032C0E0C083C082C0D075D000C007E59A81
:100B030030E025539AFEC3E51094807480948040AE
:100B130003751000AF10051074802FF582E43400C4
:100B2300F583E59BF0751105E59A30E106539AFDCF
:100B3300750F00D007D0D0D082D083D0E032C0E090
:100B4300C083C082C0D075D000C007309824C2983B
:100B5300C3E50B9480748094804003750B00AF0B46
:100B6300050B74002FF582E43400F583E599F075E5
:100B73000C05309905C299750A00D007D0D0D082F0
:100B8300D083D0E03253544338205541525433205C
:100B9300546573742050726F6772616D6D65210DBA
:020BA3000A0046
:00000001FF
