:10000000020026750A03E4F509FB7A0079097F03EB
:100010000208CC7DA37C08ED1D70011C144C70F708
:10002000DFF122020046787FE4F6D8FD75813502C3
:100030000D068F99752401E52470FC22AE0702009D
:01004000328D
:10004300020D53C0E0C083C082C0D075D000C0078A
:10005300309820C298E525C394804003752500AFEE
:1000630025052574002FF582E43400F583E599F026
:10007300752605309905C299752400D007D0D0D0D4
:0600830082D083D0E032C0
:03008B00020D9CC7
:10009300020DE58F128B138A148915E51264016032
:1000A3000302020CF522F523F524F525F526F516B2
:1000B300F51774402517F58274013516F583E4F0BE
:1000C3000517E517700205166480451670E4E4F51C
:1000D30016F51774002517F58274003516F583E4B9
:1000E300F00517E517700205166480451670E4AB3A
:1000F30013AA14A915120B20FFE598543F4FF59846
:10010300EF64C06008EF644060030201C190000225
:10011300120C587F007E607D547C00120BA28F1B53
:100123008E1A8D198C18E4FFFE7D01FCAB1BAA1AF5
:10013300A919A818C3120C3440037FFF22C3E49506
:100143001BF51BE4951AF51A74019519F519E49535
:1001530018F518AB13AA14A915900001120B39FB5B
:100163006401702CC28E538EFE5389BF5389CF43D3
:100173008E40AF1BAE1AAD19AC187808120C458F20
:100183008D851B8BC2AB5389BF538FFDD28E80628B
:10019300EB64027026538EEF438E01538EF7438E2A
:1001A30004AF1BAE1AAD19AC187808120C458FD6E4
:1001B300851BD753AFFB438E1080377FFF22AB13D2
:1001C300AA14A915120B20FF7013900008120B3903
:1001D300B40105438E20801A538EDF8015EFB4805F
:1001E30011900008120B39B4010543878080035333
:1001F300877FAB13AA14A915900007120B3970045B
:10020300C29C8002D29C7F0022E51264026003023A
:100213000305F527F528F529F52AF52BF516F51726
:1002230074E02517F58274013516F583E4F005179C
:10023300E517700205166480451670E4E4F516F5BB
:100243001774802517F58274003516F583E4F005DD
:1002530017E517700205166480451670E4AB13AA00
:1002630014A915120B20FF64C06005EF644070757C
:10027300EFB4C005439A808003539A7F9000021223
:100283000C587F007E607D547C00120BA28F1B8E66
:100293001A8D198C18E4FFFE7D01FCAB1BAA1AA969
:1002A30019A818C3120C3440037FFF22C3E4951B23
:1002B300F51BE4951AF51A74019519F519E49518C7
:1002C300F518538EEF538EF7438E04AF1BAE1AAD62
:1002D30019AC187808120C458FD6851BD753AFFB82
:1002E300438E1080037FFF22AB13AA14A91590003D
:1002F30007120B39C454F0FFE59A54EF4FF59A7F78
:100303000022E51264036003020439F52CF52DF590
:100313002EF52FF530F516F51774602517F5827451
:10032300023516F583E4F00517E517700205166428
:1003330040451670E4E4F516F51774002517F582A9
:1003430074013516F583E4F00517E51770020516F9
:100353006440451670E4AB13AA14A915120B20FFD1
:1003630064C06008EF6440600302041CEFB4C0057E
:1003730043AC80800353AC7F900002120C587F0083
:100383007E607D547C00120BA28F1B8E1A8D198CFC
:1003930018E4FFFE7D01FCAB1BAA1AA919A818C318
:1003A300120C3440037FFF22C3E4951BF51BE49535
:1003B3001AF51A74019519F519E49518F518AB1384
:1003C300AA14A915900001120B39FBB4031D43AC09
:1003D30040AF1BAE1AAD19AC187808120C458FD478
:1003E300851BD553D1F043D10A8031EB64027026CB
:1003F300538EEF53ACBF538EF7438E04AF1BAE1A2D
:10040300AD19AC187808120C458FD6851BD753AF9E
:10041300FB438E1080067FFF227FFF22AB13AA14BB
:10042300A915900007120B39C454F0FFE5AC54EF43
:100433004FF5AC7F0022E5126404600302056DF5FD
:1004430031F532F533F534F535F516F51774A02586
:1004530017F58274023516F583E4F00517E5177076
:100463000205166420451670E4E4F516F51774C00A
:100473002517F58274013516F583E4F00517E517A2
:10048300700205166420451670E4AB13AA14A9156F
:10049300120B20FF64C06008EF6440600302055044
:1004A300EFB4C005438480800353847F900002121D
:1004B3000C587F007E607D547C00120BA28F1B8E34
:1004C3001A8D198C18E4FFFE7D01FCAB1BAA1AA937
:1004D30019A818C3120C3440037FFF22C3E4951BF1
:1004E300F51BE4951AF51A74019519F519E4951895
:1004F300F518AB13AA14A915900001120B39FBB41C
:10050300041D438440AF1BAE1AAD19AC1878081212
:100513000C458FD2851BD353D10F43D1A08031EB30
:1005230064027026538EEF5384BF538EF7438E04B9
:10053300AF1BAE1AAD19AC187808120C458FD685CF
:100543001BD753AFFB438E1080067FFF227FFF2212
:10055300AB13AA14A915900007120B39C454F0FF6A
:10056300E58454EF4FF5847F00227FFF22E51824B2
:100573000CF8E60518227809300702780CE475F0C8
:1005830001120CD0020B202000EB7F2ED20080182A
:10059300EF540F2490D43440D4FF30040BEF24BF26
:1005A300B41A0050032461FFE51960021519051CF4
:1005B300E51C7002051B30070D7809E475F0011284
:1005C3000CD0EF020C8802003C7403D2078003E4D2
:1005D300C207F5188B098A0A890BE4F519F51BF58F
:1005E3001CE51960077F201205AB80F5751AFFC261
:1005F30001C200C202C203C205C206C208120579C3
:10060300FF700D3007057F001205BCAF1CAE1B2227
:10061300B4255FC2D5C204120579FF24D0B40A0001
:10062300501A75F00A781930D50508B6FF0106C6C9
:10063300A426F620D5047002D20380D924CFB41A9D
:1006430000EF5004C2E5D2040207BCD20180C6D237
:100653000080C0D20280BCD2D580BAD20580B47FDC
:10066300201205AB2002077401B5190040F11205F1
:1006730070FF1205AB0205E4D208D206809512057D
:1006830070FB120570FA120570F94A4B7006798DEA
:100693007A087BFF20022EE519602A7E008E827580
:1006A3008300120B3960060EEE651A70F0C2D5EBAB
:1006B300C0E0EAC0E0E9C0E0EE120803D0E0F9D000
:1006C300E0FAD0E0FB120B20FF60AAEBC0E0EAC027
:1006D300E0E9C0E01205ABD0E02401F9D0E034003A
:1006E300FAD0E0FBE51A0460DCD51AD980877BFFDA
:1006F3007A0779FFD202809C791080027908C206BA
:10070300C2088008D2D5790A8004790AC2D5E51ACD
:10071300047002F51AE4FAFDFEFF120570FC7B0873
:10072300200113120570FD7B1030000A120570FEC4
:10073300120570FF7B20EC3382D592D55013C3E4AE
:100743003000069FFFE49EFEE42001039DFDE49C30
:10075300FCE4CBF8C201EC700CCFCECDCCE824F88E
:10076300F870F38017C3EF33FFEE33FEED33FDEC88
:1007730033FCEB33FB994002FB0FD8E9EB30010567
:10078300F8D0E0C448B201C0E00AEC4D4E4F7820E7
:100793007B0070C2EAB51A0040BCC0E0120805D065
:1007A300F0D0E0200104C4C0E0C4B201C0F01205DF
:1007B30094D0F0D5F0EB0205E4120CE00681530669
:1007C300FB5806524C064E4206FF4F0707440707E5
:1007D30049066743070D5506F14606F14506F147FD
:1007E30008AD5006562D065A2E067D2B065E2306AF
:1007F3007B2008962A061648000006753F3F3F00F7
:10080300790AA2D5200314300509B910020404B9EA
:10081300080104A2D52006025001042002689202B6
:10082300B519005034C0E07F203003197F30A20295
:1008330072067205500F12085CC202C206C205C2DC
:10084300087F30800F300503E9C0E01205AB3005A7
:1008530003D0E0F9D0E0B519CC3005177F30B910DB
:100863000C1205AB7F583004077F788003B9080367
:100873001205AB3002057F2D0205AB7F202008F85F
:100883007F2B2006F322920280CF286E756C6C2991
:1008930000D2011205703001F8C201781930D50178
:1008A30008F60206162D504349581205702403B466
:1008B30005004001E49008A89312059C743A1205C0
:1008C3009CD2037519040206FBEFD3940740037F00
:1008D300FF22120B20FED3940340037FFF22EF700D
:1008E30041EE700B900001120B39F45293529412A3
:1008F3000B20B4010B900001120B394293F4529474
:10090300120B20FEB4020A900001120B39429342EB
:1009130094EEB4030D900001120B39FEF45293EEE2
:100923004294EF64017043120B20FE700B900001A0
:10093300120B39F452915292EEB4010B9000011252
:100943000B394291F45292120B20B4020A90000127
:10095300120B3942914292120B20B4030D90000105
:10096300120B39FEF45291EE4292EF64027043127D
:100973000B20FE700B900001120B39F45295529626
:10098300EEB4010B900001120B394295F45296120A
:100993000B20B4020A900001120B394295429612C1
:1009A3000B20B4030D900001120B39FEF45295EEA7
:1009B3004296EF64037043120B20FE700B9000010C
:1009C300120B39F452B152B2EEB4010B9000011282
:1009D3000B3942B1F452B2120B20B4020A90000157
:1009E300120B3942B142B2120B20B4030D90000135
:1009F300120B39FEF452B1EE42B2EF6404704312AB
:100A03000B20FE700B900001120B39F452B352B459
:100A1300EEB4010B900001120B3942B3F452B4123D
:100A23000B20B4020A900001120B3942B342B412F4
:100A33000B20B4030D900001120B39FEF452B3EEF8
:100A430042B4EF64057043120B20FE700B9000015B
:100A5300120B39F452C952CAEEB4010B90000112C1
:100A63000B3942C9F452CA120B20B4020A90000196
:100A7300120B3942C942CA120B20B4030D90000174
:100A8300120B39FEF452C9EE42CAEF6406704312E8
:100A93000B20FE700B900001120B39F452CB52CC99
:100AA300EEB4010B900001120B3942CBF452CC127D
:100AB3000B20B4020A900001120B3942CB42CC1234
:100AC3000B20B4030D900001120B39FEF452CBEE50
:100AD30042CCEF64077043120B20FF700B900001B0
:100AE300120B39F452E152E2EFB4010B9000011200
:100AF3000B3942E1F452E2120B20B4020A900001D6
:100B0300120B3942E142E2120B20B4030D900001B3
:100B1300120B39FFF452E1EF42E27F0022BB0106E0
:100B230089828A83E0225002E722BBFE02E3228904
:100B3300828A83E49322BB010CE58229F582E58353
:100B43003AF583E0225006E92582F8E622BBFE0649
:100B5300E92582F8E222E58229F582E5833AF583E5
:100B6300E4932275F008758200EF2FFFEE33FECD7C
:100B730033CDCC33CCC58233C5829BED9AEC99E55A
:100B83008298400CF582EE9BFEED9AFDEC99FC0FEA
:100B9300D5F0D6E4CEFBE4CDFAE4CCF9A88222B8B2
:100BA30000C1B90059BA002DEC8BF084CFCECDFC37
:100BB300E5F0CBF97818EF2FFFEE33FEED33FDECC4
:100BC30033FCEB33FB10D703994004EB99FB0FD8AD
:100BD300E5E4F9FA227818EF2FFFEE33FEED33FD4B
:100BE300EC33FCC933C910D7059BE99A4007EC9B4A
:100BF300FCE99AF90FD8E0E4C9FAE4CCFB2275F0DA
:100C030010EF2FFFEE33FEED33FDCC33CCC833C8EA
:100C130010D7079BEC9AE899400AED9BFDEC9AFCF0
:100C2300E899F80FD5F0DAE4CDFBE4CCFAE4C8F99F
:100C330022EB9FF5F0EA9E42F0E99D42F0E89C45E5
:100C4300F022E8600FECC313FCED13FDEE13FEEF8F
:100C530013FFD8F122BB010DE58229F582E5833A22
:100C6300F583020CA75007E92582F8020C9ABBFE14
:100C730007E92582F8020CB3E58229F582E5833A78
:100C8300F583020CC0BB010689828A83F0225002DD
:100C9300F722BBFE01F322E6FB08E6F908E6FA08B1
:100CA300E6CBF822E0F8A3E0F9A3E0FAA3E0FB2205
:100CB300E2FB08E2F908E2FA08E2CBF822E493F84F
:100CC300740193F9740293FA740393FB22FAE6FB1B
:100CD3000808E6F925F0F618E6CA3AF622D083D0DA
:100CE30082F8E4937012740193700DA3A393F874C4
:100CF3000193F5828883E4737402936860EFA3A37E
:100D0300A380DF43BA80120003120E6CD2AF7BFFC5
:100D13007A0E79991205D27F01120013E526D39436
:100D23000040F4D526F1E525D39400401EE4F508F0
:100D3300E508C39525501474002508F582E43400B2
:100D4300F583E0FF120032050880E5E4F52580C74E
:100D5300C0E0C083C082C0D075D000C007E59A3020
:100D6300E021539AFEE52AC394804003752A00AF1D
:100D73002A052A74802FF582E43400F583E59BF07D
:100D8300752B05E59A30E106539AFD752900D007C6
:100D9300D0D0D082D083D0E032C0E0C083C082C044
:100DA300D075D000C007E5AC30E02153ACFEE52F91
:100DB300C394404003752F00AF2F052F74002FF508
:100DC30082E43401F583E5ADF0753005E5AC30E13F
:100DD3000653ACFD752E00D007D0D0D082D083D07F
:100DE300E032C0E0C083C082C0D075D000C007E548
:100DF3008430E0215384FEE534C3942040037534EA
:100E030000AF34053474C02FF582E43401F583E573
:100E130085F0753505E58430E1065384FD753300AF
:100E2300D007D0D0D082D083D0E032EFD39401402A
:100E3300037FFF22EDD3940340037FFF22EF70046F
:100E4300C2AC8002D2ACED700553B7EFC2BCBD019A
:100E53000553B7EFD2BCBD020543B710C2BCBD03F7
:100E63000543B710D2BC7F0022750940750A01758E
:100E73000E00750DC2750C01750B00751001E4F5BC
:100E830011FB7A0079097F011200967D017F01121F
:100E93000E2E53A23F225354433848384B36345511
:100EA30020554152543120546573742050726F673A
:090EB30072616D6D65210D0A00EC
:00000001FF
