:1000000002001643937F5394807591FF75920053BD
:10001000B1FC53B2FC22787FE4F6D8FD758135023D
:020020000B1FB4
:100023000200461208CCFF600C120039740129F952
:10003300E43AFA80EE228F99752401E52470FC22BC
:10004300020BCDC0E0C083C082C0D075D000C00712
:10005300309820C298E525C394804003752500AFEE
:1000630025052574002FF582E43400F583E599F026
:10007300752605309905C299752400D007D0D0D0D4
:0600830082D083D0E032C0
:10008B00020C16AE07020039020C5F8F128B138A1B
:10009B00148915E5126401600302020CF522F523A5
:1000AB00F524F525F526F516F51774402517F58279
:1000BB0074013516F583E4F00517E5177002051684
:1000CB006480451670E4E4F516F51774002517F5F2
:1000DB008274003516F583E4F00517E517700205F9
:1000EB00166480451670E4AB13AA14A9151208CC3C
:1000FB00FFE598543F4FF598EF64C06008EF6440FC
:10010B0060030201C1900002120A047F807E8D7D84
:10011B005B7C0012094E8F1B8E1A8D198C18E4FF15
:10012B00FE7D01FCAB1BAA1AA919A818C31209E082
:10013B0040037FFF22C3E4951BF51BE4951AF51AC8
:10014B0074019519F519E49518F518AB13AA14A9B0
:10015B00159000011208E5FB6401702CC28E538EC2
:10016B00FE5389BF5389CF438E40AF1BAE1AAD19D7
:10017B00AC1878081209F18F8D851B8BC2AB538994
:10018B00BF538FFDD28E8062EB64027026538EEFCD
:10019B00438E01538EF7438E04AF1BAE1AAD19ACD1
:1001AB001878081209F18FD6851BD753AFFB438EF6
:1001BB001080377FFF22AB13AA14A9151208CCFFAE
:1001CB0070139000081208E5B40105438E20801AC5
:1001DB00538EDF8015EFB480119000081208E5B440
:1001EB000105438780800353877FAB13AA14A9159E
:1001FB009000071208E57004C29C8002D29C7F001D
:10020B0022E51264026003020305F527F528F529A0
:10021B00F52AF52BF516F51774E02517F582740101
:10022B003516F583E4F00517E517700205166480A3
:10023B00451670E4E4F516F51774802517F58274EE
:10024B00003516F583E4F00517E517700205166403
:10025B0080451670E4AB13AA14A9151208CCFF64E1
:10026B00C06005EF64407075EFB4C005439A8080A1
:10027B0003539A7F900002120A047F807E8D7D5B70
:10028B007C0012094E8F1B8E1A8D198C18E4FFFE01
:10029B007D01FCAB1BAA1AA919A818C31209E040CF
:1002AB00037FFF22C3E4951BF51BE4951AF51A7423
:1002BB00019519F519E49518F518538EEF538EF730
:1002CB00438E04AF1BAE1AAD19AC1878081209F1A6
:1002DB008FD6851BD753AFFB438E1080037FFF2236
:1002EB00AB13AA14A9159000071208E5C454F0FF2C
:1002FB00E59A54EF4FF59A7F0022E51264036003F1
:10030B00020439F52CF52DF52EF52FF530F516F5F4
:10031B001774602517F58274023516F583E4F00522
:10032B0017E517700205166440451670E4E4F516E0
:10033B00F51774002517F58274013516F583E4F073
:10034B000517E517700205166440451670E4AB13EC
:10035B00AA14A9151208CCFF64C06008EF644060B2
:10036B000302041CEFB4C00543AC80800353AC7F85
:10037B00900002120A047F807E8D7D5B7C00120947
:10038B004E8F1B8E1A8D198C18E4FFFE7D01FCAB72
:10039B001BAA1AA919A818C31209E040037FFF2250
:1003AB00C3E4951BF51BE4951AF51A74019519F521
:1003BB0019E49518F518AB13AA14A915900001129E
:1003CB0008E5FBB4031D43AC40AF1BAE1AAD19AC33
:1003DB001878081209F18FD4851BD553D1F043D16E
:1003EB000A8031EB64027026538EEF53ACBF538EF1
:1003FB00F7438E04AF1BAE1AAD19AC18780812096F
:10040B00F18FD6851BD753AFFB438E1080067FFF32
:10041B00227FFF22AB13AA14A9159000071208E53F
:10042B00C454F0FFE5AC54EF4FF5AC7F0022E5125E
:10043B006404600302056DF531F532F533F534F5DF
:10044B0035F516F51774A02517F58274023516F5D8
:10045B0083E4F00517E51770020516642045167046
:10046B00E4E4F516F51774C02517F58274013516FB
:10047B00F583E4F00517E5177002051664204516A1
:10048B0070E4AB13AA14A9151208CCFF64C0600862
:10049B00EF64406003020550EFB4C00543848080D5
:1004AB000353847F900002120A047F807E8D7D5B54
:1004BB007C0012094E8F1B8E1A8D198C18E4FFFECF
:1004CB007D01FCAB1BAA1AA919A818C31209E0409D
:1004DB00037FFF22C3E4951BF51BE4951AF51A74F1
:1004EB00019519F519E49518F518AB13AA14A9156C
:1004FB009000011208E5FBB4041D438440AF1BAE12
:10050B001AAD19AC1878081209F18FD2851BD35389
:10051B00D10F43D1A08031EB64027026538EEF5381
:10052B0084BF538EF7438E04AF1BAE1AAD19AC18B4
:10053B0078081209F18FD6851BD753AFFB438E106A
:10054B0080067FFF227FFF22AB13AA14A915900010
:10055B00071208E5C454F0FFE58454EF4FF5847F90
:10056B0000227FFF22E518240CF8E60518227809F3
:10057B00300702780CE475F001120A7C0208CC20DB
:10058B0000EB7F2ED2008018EF540F2490D4344010
:10059B00D4FF30040BEF24BFB41A0050032461FFC7
:1005AB00E51960021519051CE51C7002051B3007C7
:1005BB000D7809E475F001120A7CEF020A3402008F
:1005CB008E7403D2078003E4C207F5188B098A0ADD
:1005DB00890BE4F519F51BF51CE51960077F201253
:1005EB0005AB80F5751AFFC201C200C202C203C27D
:1005FB0005C206C208120579FF700D3007057F0092
:10060B001205BCAF1CAE1B22B4255FC2D5C20412AF
:10061B000579FF24D0B40A00501A75F00A78193006
:10062B00D50508B6FF0106C6A426F620D504700230
:10063B00D20380D924CFB41A00EF5004C2E5D20400
:10064B000207BCD20180C6D20080C0D20280BCD2CD
:10065B00D580BAD20580B47F201205AB2002077477
:10066B0001B5190040F1120570FF1205AB0205E44C
:10067B00D208D2068095120570FB120570FA12058E
:10068B0070F94A4B7006798D7A087BFF20022EE5B4
:10069B0019602A7E008E827583001208E560060EB3
:1006AB00EE651A70F0C2D5EBC0E0EAC0E0E9C0E03D
:1006BB00EE120803D0E0F9D0E0FAD0E0FB1208CC40
:1006CB00FF60AAEBC0E0EAC0E0E9C0E01205ABD0E6
:1006DB00E02401F9D0E03400FAD0E0FBE51A046025
:1006EB00DCD51AD980877BFF7A0779FFD202809CF1
:1006FB00791080027908C206C2088008D2D5790A1F
:10070B008004790AC2D5E51A047002F51AE4FAFDE1
:10071B00FEFF120570FC7B08200113120570FD7B98
:10072B001030000A120570FE120570FF7B20EC33AF
:10073B0082D592D55013C3E43000069FFFE49EFE92
:10074B00E42001039DFDE49CFCE4CBF8C201EC70BA
:10075B000CCFCECDCCE824F8F870F38017C3EF3371
:10076B00FFEE33FEED33FDEC33FCEB33FB99400234
:10077B00FB0FD8E9EB300105F8D0E0C448B201C05B
:10078B00E00AEC4D4E4F78207B0070C2EAB51A00A0
:10079B0040BCC0E0120805D0F0D0E0200104C4C07A
:1007AB00E0C4B201C0F0120594D0F0D5F0EB020515
:1007BB00E4120A8C06815306FB5806524C064E4235
:1007CB0006FF4F070744070749066743070D550602
:1007DB00F14606F14506F14708AD5006562D065A6F
:1007EB002E067D2B065E23067B2008962A061648CE
:1007FB00000006753F3F3F00790AA2D52003143055
:10080B000509B910020404B9080104A2D520060297
:10081B005001042002689202B519005034C0E07FE9
:10082B00203003197F30A20272067205500F120896
:10083B005CC202C206C205C2087F30800F300503BE
:10084B00E9C0E01205AB300503D0E0F9D0E0B519F3
:10085B00CC3005177F30B9100C1205AB7F58300424
:10086B00077F788003B908031205AB3002057F2D93
:10087B000205AB7F202008F87F2B2006F322920283
:10088B0080CF286E756C6C2900D201120570300177
:10089B00F8C201781930D50108F60206162D50431F
:1008AB0049581205702403B405004001E49008A8D0
:1008BB009312059C743A12059CD203751904020617
:1008CB00FBBB010689828A83E0225002E722BBFE32
:1008DB0002E32289828A83E49322BB010CE58229FD
:1008EB00F582E5833AF583E0225006E92582F8E6A6
:1008FB0022BBFE06E92582F8E222E58229F582E594
:10090B00833AF583E4932275F008758200EF2FFF8D
:10091B00EE33FECD33CDCC33CCC58233C5829BEDCC
:10092B009AEC99E58298400CF582EE9BFEED9AFDD0
:10093B00EC99FC0FD5F0D6E4CEFBE4CDFAE4CCF980
:10094B00A88222B800C1B90059BA002DEC8BF084F3
:10095B00CFCECDFCE5F0CBF97818EF2FFFEE33FEC1
:10096B00ED33FDEC33FCEB33FB10D703994004EB79
:10097B0099FB0FD8E5E4F9FA227818EF2FFFEE3345
:10098B00FEED33FDEC33FCC933C910D7059BE99A57
:10099B004007EC9BFCE99AF90FD8E0E4C9FAE4CCE8
:1009AB00FB2275F010EF2FFFEE33FEED33FDCC3352
:1009BB00CCC833C810D7079BEC9AE899400AED9B3B
:1009CB00FDEC9AFCE899F80FD5F0DAE4CDFBE4CC1A
:1009DB00FAE4C8F922EB9FF5F0EA9E42F0E99D425A
:1009EB00F0E89C45F022E8600FECC313FCED13FD1F
:1009FB00EE13FEEF13FFD8F122BB010DE58229F5B3
:100A0B0082E5833AF583020A535007E92582F802FF
:100A1B000A46BBFE07E92582F8020A5FE58229F543
:100A2B0082E5833AF583020A6CBB010689828A83CD
:100A3B00F0225002F722BBFE01F322E6FB08E6F997
:100A4B0008E6FA08E6CBF822E0F8A3E0F9A3E0FA0F
:100A5B00A3E0FB22E2FB08E2F908E2FA08E2CBF89A
:100A6B0022E493F8740193F9740293FA740393FBE1
:100A7B0022FAE6FB0808E6F925F0F618E6CA3AF67C
:100A8B0022D083D082F8E4937012740193700DA37B
:100A9B00A393F8740193F5828883E47374029368CB
:100AAB0060EFA3A3A380DFEFD3940F40028060E439
:100ABB00F5BDF5BEE5BC54F044404FF5BC0000005D
:100ACB0000000000000000E4FDE5BC30E53D53BC38
:100ADB00DFE5DEAFBD30E50EEFFEACBEECFBEEF5B9
:100AEB0009EBF50A80207509008F0AE5BEC4540F87
:100AFB00FBE50AC4F8540FC868FFE509C454F04875
:100B0B00F509EF4BF50AAE09AF0A220DBDFABA7E15
:100B1B00107F002243BA80120003120D24120D4FD6
:100B2B00D2AF7BFF7A0D798C120026E4F5087FFAA1
:100B3B00120D71AF08120AB27BFF7A0D79AE8508E0
:100B4B000C8E0D8F0E1205D2E5085407FFBF070957
:100B5B007BFF7A0D79BC1205D20508E508C394100A
:100B6B0040CC7BFF7A0D79BC12002680BE90000131
:100B7B001208E5FFE5DE54F04FF5DE900002120897
:100B8B00E5C43354E0FFE5DE54DF4FF5DE1208CC4D
:100B9B00FFD3941F502B9000031208E5FED3940152
:100BAB00501F9000041208E5FDD394035013EDC4BD
:100BBB003354E0FDEEC433333354804D4F90FEA8D5
:100BCB00F022C0E0C083C082C0D075D000C007E562
:100BDB009A30E021539AFEE52AC394804003752A8C
:100BEB0000AF2A052A74802FF582E43400F583E5E3
:100BFB009BF0752B05E59A30E106539AFD7529009C
:100C0B00D007D0D0D082D083D0E032C0E0C083C038
:100C1B0082C0D075D000C007E5AC30E02153ACFEEC
:100C2B00E52FC394404003752F00AF2F052F7400A1
:100C3B002FF582E43401F583E5ADF0753005E5ACB5
:100C4B0030E10653ACFD752E00D007D0D0D082D04A
:100C5B0083D0E032C0E0C083C082C0D075D000C06A
:100C6B0007E58430E0215384FEE534C39420400330
:100C7B00753400AF34053474C02FF582E43401F5BC
:100C8B0083E585F0753505E58430E1065384FD7504
:100C9B003300D007D0D0D082D083D0E032EFD394C2
:100CAB000140037FFF22EDD3940340037FFF22EF2C
:100CBB007004C2AD8002D2ADED700553B7DFC2BD7B
:100CCB00BD010553B7DFD2BDBD020543B720C2BD81
:100CDB00BD030543B720D2BD7F0022EFD394014063
:100CEB00037FFF22EDD3940340037FFF22EF7004B9
:100CFB00C2AC8002D2ACED700553B7EFC2BCBD01E4
:100D0B000553B7EFD2BCBD020543B710C2BCBD0340
:100D1B000543B710D2BC7F0022750940750A0175D7
:100D2B000E00750DC2750C01750B007510017B0063
:100D3B007A0079097F011200967D017F01120CE682
:100D4B0053A23F2275091FE4F50C750D01750A0FAF
:100D5B00750B01FB7A007909120B787F01120D815B
:100D6B00E4FDFF020CA87D607C09ED1D70011C14D5
:100D7B004C70F7DFF122BF010443BC802253BC7FD0
:100D8B00225354433820414420746F205541525410
:100D9B0020546573742050726F6772616D6D65219D
:100DAB000D0A00414425303262643D253034642005
:040DBB00000D0A001D
:00000001FF
