:10000000020006020046787FE4F6D8FD75813002D2
:02001000096283
:0D00130002004A8F99750A01E50A70FC226F
:10002300020AF3EFD3940140037FFF22EFC433337B
:0D00330054C0FFE58F54BF4FF58FE4FF224E
:0F004300020A18753001327530023275300332FF
:0700530002004E753004327B
:10005B00020056EFD3940140037FFF22EFC43354C9
:10006B00E0FFE58F54DF4FF58FE4FF22753005324B
:0300830002007701
:03008B00020A6105
:10009300020AAA8F258B268A278928E52564016011
:1000A3000302020CF508F509F50AF50BF50CF52921
:1000B300F52A7440252AF58274013529F583E4F085
:1000C300052AE52A700205296480452970E4E4F5D0
:1000D30029F52A7400252AF58274003529F583E46D
:1000E300F0052AE52A700205296480452970E4ABEE
:1000F30026AA27A9281207C4FFE598543F4FF5986D
:10010300EF64C06008EF644060030201C190000225
:100113001208FC7F007E607D547C001208468F2EFF
:100123008E2D8D2C8C2BE4FFFE7D01FCAB2EAA2D96
:10013300A92CA82BC31208D840037FFF22C3E49540
:100143002EF52EE4952DF52D7401952CF52CE495C3
:100153002BF52BAB26AA27A9289000011207DDFB5C
:100163006401702CC28E538EFE5389BF5389CF43D3
:100173008E40AF2EAE2DAD2CAC2B78081208E98F34
:100183008D852E8BC2AB5389BF538FFDD28E806278
:10019300EB64027026538EEF438E01538EF7438E2A
:1001A30004AF2EAE2DAD2CAC2B78081208E98FD6F8
:1001B300852ED753AFFB438E1080377FFF22AB26AC
:1001C300AA27A9281207C4FF70139000081207DD9D
:1001D300B40105438E20801A538EDF8015EFB4805F
:1001E300119000081207DDB4010543878080035393
:1001F300877FAB26AA27A9289000071207DD700482
:10020300C29C8002D29C7F0022E525640260030227
:100213000305F50DF50EF50FF510F511F529F52A82
:1002230074E0252AF58274013529F583E4F0052A63
:10023300E52A700205296480452970E4E4F529F56F
:100243002A7480252AF58274003529F583E4F005A4
:100253002AE52A700205296480452970E4AB26AAA1
:1002630027A9281207C4FF64C06005EF64407075B6
:10027300EFB4C005439A808003539A7F9000021223
:1002830008FC7F007E607D547C001208468F2E8E12
:100293002D8D2C8C2BE4FFFE7D01FCAB2EAA2DA90A
:1002A3002CA82BC31208D840037FFF22C3E4952E4A
:1002B300F52EE4952DF52D7401952CF52CE4952B55
:1002C300F52B538EEF538EF7438E04AF2EAE2DAD29
:1002D3002CAC2B78081208E98FD6852ED753AFFBA9
:1002E300438E1080037FFF22AB26AA27A928900004
:1002F300071207DDC454F0FFE59A54EF4FF59A7FD8
:100303000022E52564036003020439F512F513F5B1
:1003130014F515F516F529F52A7460252AF5827466
:10032300023529F583E4F0052AE52A7002052964DC
:1003330040452970E4E4F529F52A7400252AF5825D
:1003430074013529F583E4F0052AE52A70020529AD
:100353006440452970E4AB26AA27A9281207C4FFE5
:1003630064C06008EF6440600302041CEFB4C0057E
:1003730043AC80800353AC7F9000021208FC7F00E3
:100383007E607D547C001208468F2E8E2D8D2C8C22
:100393002BE4FFFE7D01FCAB2EAA2DA92CA82BC3B9
:1003A3001208D840037FFF22C3E4952EF52EE4956F
:1003B3002DF52D7401952CF52CE4952BF52BAB26FF
:1003C300AA27A9289000011207DDFBB4031D43AC43
:1003D30040AF2EAE2DAD2CAC2B78081208E98FD48C
:1003E300852ED553D1F043D10A8031EB64027026B8
:1003F300538EEF53ACBF538EF7438E04AF2EAE2D07
:10040300AD2CAC2B78081208E98FD6852ED753AFC5
:10041300FB438E1080067FFF227FFF22AB26AA2795
:10042300A9289000071207DDC454F0FFE5AC54EF90
:100433004FF5AC7F0022E5256404600302056DF5EA
:1004430017F518F519F51AF51BF529F52A74A025E2
:100453002AF58274023529F583E4F0052AE52A702A
:100463000205296420452970E4E4F529F52A74C0BE
:10047300252AF58274013529F583E4F0052AE52A56
:10048300700205296420452970E4AB26AA27A92810
:100493001207C4FF64C06008EF64406003020550A4
:1004A300EFB4C005438480800353847F900002121D
:1004B30008FC7F007E607D547C001208468F2E8EE0
:1004C3002D8D2C8C2BE4FFFE7D01FCAB2EAA2DA9D8
:1004D3002CA82BC31208D840037FFF22C3E4952E18
:1004E300F52EE4952DF52D7401952CF52CE4952B23
:1004F300F52BAB26AA27A9289000011207DDFBB430
:10050300041D438440AF2EAE2DAD2CAC2B780812C6
:1005130008E98FD2852ED353D10F43D1A08031EB7D
:1005230064027026538EEF5384BF538EF7438E04B9
:10053300AF2EAE2DAD2CAC2B78081208E98FD685E3
:100543002ED753AFFB438E1080067FFF227FFF22FF
:10055300AB26AA27A9289000071207DDC454F0FF91
:10056300E58454EF4FF5847F00227FFF22EFD3947D
:100573000740037FFF221207C4FED3940340037F87
:10058300FF22EF7041EE700B9000011207DDF45271
:100593009352941207C4B4010B9000011207DD4279
:1005A30093F452941207C4FEB4020A900001120796
:1005B300DD42934294EEB4030D9000011207DDFE79
:1005C300F45293EE4294EF640170431207C4FE7039
:1005D3000B9000011207DDF452915292EEB4010B1D
:1005E3009000011207DD4291F452921207C4B40243
:1005F3000A9000011207DD429142921207C4B4032C
:100603000D9000011207DDFEF45291EE4292EF6469
:100613000270431207C4FE700B9000011207DDF451
:1006230052955296EEB4010B9000011207DD4295EC
:10063300F452961207C4B4020A9000011207DD4275
:100643009542961207C4B4030D9000011207DDFE14
:10065300F45295EE4296EF640370431207C4FE70A2
:100663000B9000011207DDF452B152B2EEB4010B4C
:100673009000011207DD42B1F452B21207C4B40272
:100683000A9000011207DD42B142B21207C4B4035B
:100693000D9000011207DDFEF452B1EE42B2EF6499
:1006A3000470431207C4FE700B9000011207DDF4BF
:1006B30052B352B4EEB4010B9000011207DD42B302
:1006C300F452B41207C4B4020A9000011207DD42C7
:1006D300B342B41207C4B4030D9000011207DDFE48
:1006E300F452B3EE42B4EF640570431207C4FE70D4
:1006F3000B9000011207DDF452C952CAEEB4010B8C
:100703009000011207DD42C9F452CA1207C4B402B1
:100713000A9000011207DD42C942CA1207C4B4039A
:100723000D9000011207DDFEF452C9EE42CAEF64D8
:100733000670431207C4FE700B9000011207DDF42C
:1007430052CB52CCEEB4010B9000011207DD42CB29
:10075300F452CC1207C4B4020A9000011207DD421E
:10076300CB42CC1207C4B4030D9000011207DDFE87
:10077300F452CBEE42CCEF640770431207C4FF7010
:100783000B9000011207DDF452E152E2EFB4010BCA
:100793009000011207DD42E1F452E21207C4B402F1
:1007A3000A9000011207DD42E142E21207C4B403DA
:1007B3000D9000011207DDFFF452E1EF42E27F00EA
:1007C30022BB010689828A83E0225002E722BBFE14
:1007D30002E32289828A83E49322BB010CE5822906
:1007E300F582E5833AF583E0225006E92582F8E6AF
:1007F30022BBFE06E92582F8E222E58229F582E59D
:10080300833AF583E4932275F008758200EF2FFF96
:10081300EE33FECD33CDCC33CCC58233C5829BEDD5
:100823009AEC99E58298400CF582EE9BFEED9AFDD9
:10083300EC99FC0FD5F0D6E4CEFBE4CDFAE4CCF989
:10084300A88222B800C1B90059BA002DEC8BF084FC
:10085300CFCECDFCE5F0CBF97818EF2FFFEE33FECA
:10086300ED33FDEC33FCEB33FB10D703994004EB82
:1008730099FB0FD8E5E4F9FA227818EF2FFFEE334E
:10088300FEED33FDEC33FCC933C910D7059BE99A60
:100893004007EC9BFCE99AF90FD8E0E4C9FAE4CCF1
:1008A300FB2275F010EF2FFFEE33FEED33FDCC335B
:1008B300CCC833C810D7079BEC9AE899400AED9B44
:1008C300FDEC9AFCE899F80FD5F0DAE4CDFBE4CC23
:1008D300FAE4C8F922EB9FF5F0EA9E42F0E99D4263
:1008E300F0E89C45F022E8600FECC313FCED13FD28
:1008F300EE13FEEF13FFD8F122BB010DE58229F5BC
:1009030082E5833AF5830209395007E92582F80223
:10091300092CBBFE07E92582F8020945E58229F582
:1009230082E5833AF583020952E6FB08E6F908E615
:10093300FA08E6CBF822E0F8A3E0F9A3E0FAA3E093
:10094300FB22E2FB08E2F908E2FA08E2CBF822E430
:1009530093F8740193F9740293FA740393FB2212CC
:100963000CB9120C61D2AF7BFF7A0C79D9120CA6A9
:1009730030B2FD30B3FD7F0A120CC930B2FD30B383
:10098300FD120B36E4F5304387020000000000003F
:100993000000E530B401097BFF7A0D7903120CA640
:1009A300E530B402097BFF7A0D7914120CA6E53009
:1009B300B403097BFF7A0D7925120CA6E530B40444
:1009C300097BFF7A0D7936120CA6E530B405097B55
:1009D300FF7A0D7947120CA6E4F530052FE52F7544
:1009E300F064842430FF120016E52F75F06484E56B
:1009F300F075F00A842430FF120016E52F75F00A13
:100A030084E5F02430FF1200167BFF7A0D7958122B
:100A13000CA6020973C0E0C083C082C0D075D000A9
:100A2300C007E59A30E021539AFEE510C394804055
:100A330003751000AF10051074802FF582E43400A5
:100A4300F583E59BF0751105E59A30E106539AFDB0
:100A5300750F00D007D0D0D082D083D0E032C0E071
:100A6300C083C082C0D075D000C007E5AC30E021A0
:100A730053ACFEE515C394404003751500AF15054F
:100A83001574002FF582E43401F583E5ADF0751696
:100A930005E5AC30E10653ACFD751400D007D0D0AA
:100AA300D082D083D0E032C0E0C083C082C0D07592
:100AB300D000C007E58430E0215384FEE51AC394D7
:100AC300204003751A00AF1A051A74C02FF582E48B
:100AD3003401F583E585F0751B05E58430E10653A4
:100AE30084FD751900D007D0D0D082D083D0E032F6
:100AF300C0E0C083C082C0D075D000C0073098204A
:100B0300C298E50BC394804003750B00AF0B050B34
:100B130074002FF582E43400F583E599F0750C0534
:100B2300309905C299750A00D007D0D0D082D083FE
:100B3300D0E032751C017B007A00791CE4FF120CB3
:100B43002FE4FD7F01120B75751C017B007A007980
:100B53001C7F01120C2FE4FD7F01120BB3E4FD7F18
:100B630001120C8EE4FD7F0112005EE4FD7F0102A1
:100B73000026EFD3940140037FFF22EDD39403407B
:100B8300037FFF22EF7004C2A88002D2A8ED700594
:100B930053B7FEC2B8BD010553B7FED2B8BD0205B7
:100BA30043B701C2B8BD030543B701D2B87F0022E2
:100BB300EFD3940140037FFF22EDD3940340037FDF
:100BC300FF22EF7004C2AA8002D2AAED700553B7C8
:100BD300FBC2BABD010553B7FBD2BABD020543B789
:100BE30004C2BABD030543B704D2BA7F0022EFD3D0
:100BF300940140037FFF22EDD3940340037FFF2240
:100C0300EF7004C2AC8002D2ACED700553B7EFC2F3
:100C1300BCBD010553B7EFD2BCBD020543B710C23B
:100C2300BCBD030543B710D2BC7F0022EFD39401B0
:100C330040037FFF22EF7010C2891207C47004C201
:100C4300888002D2887F0022BF0110C28B1207C4A2
:100C53007004C28A8002D28A7F00227FFF22751C21
:100C630040751D017521007520C2751F01751E0099
:100C7300752301E4F524FB7A00791C7F01120096A9
:100C83007D017F01120BF153A23F22EFD394014068
:100C9300037FFF22EFC454F0FFE58F54EF4FF58F2E
:100CA300E4FF221207C4FF600C120016740129F935
:100CB300E43AFA80EE22751DFFE4F51CFB7A007915
:100CC3001C7F030205707DA37C08ED1D70011C14BD
:100CD3004C70F7DFF1225354433848384B363455C0
:100CE300204558494E542057616B657570205465F3
:100CF30073742050726F6772616D6D65210D0A0008
:100D0300CDE2D6D0B6CF494E5430BBBDD0D1202092
:100D130000CDE2D6D0B6CF494E5431BBBDD0D120A1
:100D23002000CDE2D6D0B6CF494E5432BBBDD0D190
:100D3300202000CDE2D6D0B6CF494E5433BBBDD030
:100D4300D1202000CDE2D6D0B6CF494E5434BBBD1E
:0E0D5300D0D1202000B4CEBBBDD0D10D0A00FF
:00000001FF
