:1005DA007522FFE4F521FB7A0079217F02020003EC
:10049300752108E4F525FB7A0079217F0312035DBA
:1004A300E4F522752380F524FB7A007921FF1203FA
:1004B3005D7522407523407524007B007A00792105
:1004C3007F0112035D7522C07523207524007B0014
:1004D3007A0079217F0212035DE4FB7D427F0312E0
:1004E3000574E4FB7D42FF120574E4FB7D427F014A
:1004F300120574E4FB7D427F02120574E5A254CF1A
:060503004420F5A2D2DE47
:0105090022CF
:10027A0043BA801205DA120493751700751880754F
:10028A001900751A40751B02751C00C200C201C212
:10029A0002AD18AC17E4FF12050AAD1AAC197F01BA
:1002AA0012050AAD1CAC1B7F0212050A7F05120556
:1002BA00EA300016E51815187002151714D39410B1
:1002CA00E51794005017C20080130518E51870024C
:1002DA000517C394F0E51794004002D200AD18AC9C
:1002EA0017E4FF12050A300116E51A151A700215ED
:1002FA001914D39408E51994005017C20180130504
:10030A001AE51A70020519C39478E5199400400297
:10031A00D201AD1AAC197F0112050A300216E51C8A
:10032A00151C7002151B14D39418E51B9400501762
:10033A00C2028013051CE51C7002051BC394E8E584
:10034A001B94034002D202AD1CAC1B7F0212050AA9
:03035A000202B6E6
:0F05EA007D607C09ED1D70011C144C70F7DFF172
:0105F90022DF
:10000300EFD394077480948040037FFF221204157A
:10001300FED394037480948040037FFF22EF7044E7
:10002300EE700B90000112042EF4529352941204BA
:10003300156401700B90000112042E4293F4529444
:10004300120415FE6402700A90000112042E4293FA
:100053004294EE6403700D90000112042EFEF452DC
:1000630093EE4294EF64017046120415FE700B90F8
:10007300000112042EF452915292EE6401700B901F
:10008300000112042E4291F452921204156402707C
:100093000A90000112042E42914292120415640345
:1000A300700D90000112042EFEF45291EE4292EF75
:1000B30064027046120415FE700B90000112042EA8
:1000C300F452955296EE6401700B90000112042EC7
:1000D3004295F452961204156402700A90000112BC
:1000E300042E429542961204156403700D9000018C
:1000F30012042EFEF45295EE4296EF6403704612FC
:100103000415FE700B90000112042EF452B152B28A
:10011300EE6401700B90000112042E42B1F452B24E
:100123001204156402700A90000112042E42B142B7
:10013300B21204156403700D90000112042EFEF434
:1001430052B1EE42B2EF64047046120415FE700B16
:1001530090000112042EF452B352B4EE6401700BFA
:1001630090000112042E42B3F452B4120415640237
:10017300700A90000112042E42B342B412041564B3
:1001830003700D90000112042EFEF452B3EE42B43C
:10019300EF64057046120415FE700B900001120403
:1001A3002EF452C952CAEE6401700B90000112047E
:1001B3002E42C9F452CA1204156402700A90000157
:1001C30012042E42C942CA1204156403700D900032
:1001D3000112042EFEF452C9EE42CAEF64067046C1
:1001E300120415FE700B90000112042EF452CB5230
:1001F300CCEE6401700B90000112042E42CBF4523A
:10020300CC1204156402700A90000112042E42CB32
:1002130042CC1204156403700D90000112042EFEEB
:10022300F452CBEE42CCEF64077049120415FF7E03
:1002330000700B90000112042EF452E152E2EF64BD
:10024300014E700B90000112042E42E1F452E212AF
:1002530004156402700A90000112042E42E142E286
:100263001204156403700D90000112042EFFF45262
:07027300E1EF42E27F0022EF
:10050A00EF701FEC5403C4F854F0C8E4C4540F4805
:10051A00FFE5F254CD4FFBEC5404C3134BF5F28DB7
:10052A00FA22EF6401701FEC5403C4F854F0C8E4D3
:10053A00C4540F48FFE5F354CD4FFBEC5404C313E6
:10054A004BF5F38DFB22EF6402701EEC5403C4F8E2
:10055A0054F0C8E4C4540F48FFE5F454CD4FFBEC03
:0A056A005404C3134BF5F48DFC227A
:10035D00AD07EDD39403748094804003020414EF31
:10036D0064037021C2DEF5F9F5E9120415FFE5D934
:10037D0054F14FF5D990000412042E64016003026C
:10038D000414D2DE22ED702790000112042EFFE539
:10039D00F2543F4FF5F290000212045BF50C85F01C
:1003AD000BC203850B11F5128512EAE511F5FAED75
:1003BD006401702790000112042EFFE5F3543F4FA6
:1003CD00F5F390000212045BF50E85F00DC2048565
:1003DD000D13F5148514EBE513F5FBED6402702791
:1003ED0090000112042EFFE5F4543F4FF5F49000F8
:1003FD000212045BF51085F00FC205850F15F51679
:08040D008516ECE515F5FC2253
:10057400EBD394037480948040037FFF22EB7005D7
:1005840053B77FC2BFEBF5827583006401700553D6
:10059400B77FD2BFE58264024583700543B780C24A
:1005A400BFE58264034583700543B780D2BFEF146F
:1005B400600E14600F146010240370178DDA80131A
:1005C4008DDB800F8DDC800BED5401FFE5D954FEEB
:0605D4004FF5D97F002263
:030000000205FAFC
:0C05FA00787FE4F6D8FD75812502027AB6
:10041500BB010689828A83E0225002E722BBFE02E5
:09042500E32289828A83E4932218
:10042E00BB010CE58229F582E5833AF583E0225083
:10043E0006E92582F8E622BBFE06E92582F8E222CD
:0D044E00E58229F582E5833AF583E49322E7
:10045B00BB0110E58229F582E5833AF583E0F5F0DF
:10046B00A3E0225009E92582F886F008E622BBFEBC
:10047B000AE92582F8E2F5F008E222E5832AF58302
:08048B00E993F5F0A3E99322C7
:00000001FF
