:030000000204FAFD
:0C04FA00787FE4F6D8FD75814A020541C8
:10060A0053797374656D2052756E21200D0A006945
:05061A00726D0D0A00E5
:0F0630007D517C04ED1D70011C144C70F7DFF13F
:01063F002298
:0D06400053B1F753B2F753C9CF43CA30226C
:1005860043BA8012064012000612068E7BFF7A06D8
:10059600790A120088C2CCD2CD3013FDC2137BFF7C
:1005A6007A0679191200887B007A00791D1205E512
:0205B60080E7DC
:10000600759850E4F589758BE8758DFFD28E758EDF
:0800160040F509F508C21222B1
:08066F002012FDD2128F992226
:1005E5008B238A248925AB23AA24A92512046C60B0
:1005F500130525E5257002052414F912046CFF1274
:05060500066F80E222F7
:030023000205B81B
:1005B800C0E0C0D075D000C000C007309904C2990F
:1005C800C21230980FC298AF090509740A2FF8A60D
:0D05D8009953090FD007D000D0D0D0E032E9
:080677008F993099FDC2992210
:0C064D0074696D653A20256C640D0A008C
:05069400C113011A0072
:10061F00EF1FAC0670011E4C60060000000080F05A
:01062F0022A8
:0B065900758908E4F58AF58CD28C222C
:07068700D288D2A8D2AF22F5
:08067F00E4F58CF58AD28C220F
:0B066400C28CAF8CEFFEAD8AEDFF22D0
:0300030002038273
:10038200C0E0C0F0C083C082C0D075D000C000C041
:0D03920001C002C003C004C005C006C007C2
:10039F0012066412067FD3EF9434EE9421400AEFD5
:1003AF00941CEE942550028011D3EF94A0EE940F7D
:1003BF00400DEF9488EE94135005751A008077D393
:1003CF00EF9490EE94014008EF94BCEE94024066D7
:1003DF00D3EF9490EE9401401BEF94BCEE94025037
:1003EF0013E51A131313541F241BF8C000E625E05E
:1003FF00D0008030D3EF94DCEE9405402CEF9408BE
:10040F00EE94075024E51A131313541F241BF8C03E
:10041F0000E625E0D000F6E51A131313541F241B32
:10042F00F8E64401F6051A800D7BFF7A06794D8EAA
:10043F003A8F3B120088E51AC394204005751A00C5
:02044F00D213C6
:10045100D007D006D005D004D003D002D001D000FF
:0B046100D0D0D082D083D0F0D0E032A9
:06068E0012065902068766
:10050600020586E493A3F8E493A34003F68001F280
:1005160008DFF48029E493A3F85407240CC8C333F6
:10052600C4540F4420C8834004F456800146F6DFC5
:10053600E4800B0102040810204080900694E47EBB
:10054600019360BCA3FF543F30E509541FFEE493BA
:10055600A360010ECF54C025E060A840B8E493A381
:10056600FAE493A3F8E493A3C8C582C8CAC583CAAC
:10057600F0A3C8C582C8CAC583CADFE9DEE780BE64
:010699000060
:10046C00BB010689828A83E0225002E722BBFE028E
:09047C00E32289828A83E49322C1
:10002600E546243AF8E60546227837301002783A53
:10003600E475F0011204C402046C2009EB7F2ED291
:10004600098018EF540F2490D43440D4FF300D0BA0
:10005600EF24BFB41A0050032461FFE54760021580
:1000660047054AE54A7002054930100D7837E475B0
:10007600F0011204C4EF0204B20206777403D21030
:100086008003E4C210F5468B378A388939E4F54790
:10009600F549F54AE54760077F2012006180F5754E
:1000A60048FFC20AC209C20BC20CC20EC20FC2115D
:1000B60012002FFF700D3010057F00120072AF4A3C
:1000C600AE4922B4255FC2D5C20D12002FFF24D03F
:1000D600B40A00501A75F00A784730D50508B6FFFD
:1000E6000106C6A426F620D5047002D20C80D924B7
:1000F600CFB41A00EF5004C2E5D20D020272D20A42
:1001060080C6D20980C0D20B80BCD2D580BAD20EAE
:1001160080B47F20120061200B077401B5470040B0
:10012600F1120026FF12006102009AD211D20F804E
:1001360095120026FB120026FA120026F94A4B7089
:100146000679437A037BFF200B2EE547602A7E0063
:100156008E8275830012048560060EEE654870F087
:10016600C2D5EBC0E0EAC0E0E9C0E0EE1202B9D0C9
:10017600E0F9D0E0FAD0E0FB12046CFF60AAEBC015
:10018600E0EAC0E0E9C0E0120061D0E02401F9D065
:10019600E03400FAD0E0FBE5480460DCD548D980BD
:1001A600877BFF7A0279B5D20B809C791080027921
:1001B60008C20FC2118008D2D5790A8004790AC212
:1001C600D5E548047002F548E4FAFDFEFF12002664
:1001D600FC7B08200A13120026FD7B1030090A1248
:1001E6000026FE120026FF7B20EC3382D592D550E6
:1001F60013C3E43009069FFFE49EFEE4200A039D34
:10020600FDE49CFCE4CBF8C20AEC700CCFCECDCC5E
:10021600E824F8F870F38017C3EF33FFEE33FEEDF2
:1002260033FDEC33FCEB33FB994002FB0FD8E9EBD3
:10023600300A05F8D0E0C448B20AC0E00AEC4D4ED8
:100246004F78207B0070C2EAB5480040BCC0E0127F
:1002560002BBD0F0D0E0200A04C4C0E0C4B20AC099
:10026600F012004AD0F0D5F0EB02009A1204D40145
:10027600375301B15801084C01044201B54F01BD85
:0F0286004401BD49011D4301C35501A74601A70E
:100295004501A747036350010C2D01102E01332B97
:1002A500011423013120034C2A00CC480000012B06
:1002B5003F3F3F00790AA2D5200C14300E09B91032
:1002C500020404B9080104A2D5200F02500104203C
:1002D5000B68920BB547005034C0E07F20300C19F5
:1002E5007F30A20B720F720E500F120312C20BC297
:1002F5000FC20EC2117F30800F300E03E9C0E0122D
:100305000061300E03D0E0F9D0E0B547CC300E17D0
:100315007F30B9100C1200617F58300D077F78804F
:1003250003B90803120061300B057F2D0200617FC0
:10033500202011F87F2B200FF322920B80CF286EFF
:10034500756C6C2900D20A120026300AF8C20A78A8
:100355004730D50108F60200CC2D5043495812000C
:10036500262403B405004001E490035E9312005275
:0D037500743A120052D20C7547040201B117
:10048500BB010CE58229F582E5833AF583E022502C
:1004950006E92582F8E622BBFE06E92582F8E22276
:0D04A500E58229F582E5833AF583E4932290
:1004B200BB010689828A83F0225002F722BBFE0129
:0204C200F32223
:1004C400FAE6FB0808E6F925F0F618E6CA3AF62239
:1004D400D083D082F8E4937012740193700DA3A3B7
:1004E40093F8740193F5828883E4737402936860CB
:0604F400EFA3A3A380DFCB
:00000001FF
