:10000000020ED28CC3AF058FC4A2AF92D5C2AF751A
:0C001000C65A75C6A50000A2D592AF220A
:10002300020D92AD07AC0675C78075F51675C5034D
:10003300120003020EC48F99752201E52270FC227F
:10004300020D4574002DF582E43400F583E0FFEFE3
:10005300C39430400CEFD394395006C3EF9430FF70
:1000630022EFC39441400BEFD394465005EF24C9CC
:10007300FF22EFC39461400BEFD394665005EF2446
:06008300A9FF227FFF220D
:03008B00020CA7BD
:10009300020CF68F168B178A188919EF6401600317
:1000A300020214F520F521F522F523F524F51AF5BE
:1000B3001B7440251BF5827401351AF583E4F005A2
:1000C3001BE51B7002051A6480451A70E4E4F51AF7
:1000D300F51B7400251BF5827400351AF583E4F0D3
:1000E300051BE51B7002051A6480451A70E4AB1703
:1000F300AA18A919120A38FFE598543F4FF598EF4B
:1001030064C06008EF644060030201C39000021200
:100113000B987F007E607D547C00120ACC8F1F8E6B
:100123001E8D1D8C1CE4FFFE7D01FCAB1FAA1EA9C6
:100133001DA81CC3120B7440037FFF22C3E4951F49
:10014300F51FE4951EF51E7401951DF51DE4951C20
:10015300F51CAB17AA18A919900001120A51FB7AD2
:10016300006401702CC28E538EFE5389BF5389CF16
:10017300438E40AF1FAE1EAD1DAC1C7808120B851D
:100183008F8D851F8BC2AB5389BF538FFDD28E805A
:1001930069EB64024A7026538EEF438E01538EF748
:1001A300438E04AF1FAE1EAD1DAC1C7808120B8529
:1001B3008FD6851FD753AFFB438E10803D7FFF2221
:1001C300AB17AA18A919120A38FF7E007014900001
:1001D30008120A5164017005438E20801D538EDF7F
:1001E3008018EF64804E7012900008120A51640167
:1001F3007005438780800353877FAB17AA18A9191B
:10020300900007120A517004C29C8002D29C7F00A6
:1002130022E51664026003020311F525F526F5278E
:10022300F528F529F51AF51B74E0251BF5827401F1
:10023300351AF583E4F0051BE51B7002051A64808B
:10024300451A70E4E4F51AF51B7480251BF58274D6
:1002530000351AF583E4F0051BE51B7002051A64EB
:1002630080451A70E4AB17AA18A919120A38FF7E41
:100273000064C06005EF64407077EF64C04E7005A2
:10028300439A808003539A7F900002120B987F0059
:100293007E607D547C00120ACC8F1F8E1E8D1D8CB8
:1002A3001CE4FFFE7D01FCAB1FAA1EA91DA81CC3F5
:1002B300120B7440037FFF22C3E4951FF51FE495DF
:1002C3001EF51E7401951DF51DE4951CF51C538E3A
:1002D300EF538EF7438E04AF1FAE1EAD1DAC1C78DB
:1002E30008120B858FD6851FD753AFFB438E108023
:1002F300037FFF22AB17AA18A919900007120A510E
:10030300C454F0FFE59A54EF4FF59A7F0022E516A7
:100313006403600302044DF52AF52BF52CF52DF546
:100323002EF51AF51B7460251BF5827402351AF538
:1003330083E4F0051BE51B7002051A6440451A703F
:10034300E4E4F51AF51B7400251BF5827401351AD4
:10035300F583E4F0051BE51B7002051A6440451A9A
:1003630070E4AB17AA18A919120A38FF7E0064C0FB
:100373006008EF64406003020430EF64C04E700510
:1003830043AC80800353AC7F900002120B987F0034
:100393007E607D547C00120ACC8F1F8E1E8D1D8CB7
:1003A3001CE4FFFE7D01FCAB1FAA1EA91DA81CC3F4
:1003B300120B7440037FFF22C3E4951FF51FE495DE
:1003C3001EF51E7401951DF51DE4951CF51CAB1758
:1003D300AA18A919900001120A51FB7A006403704C
:1003E3001D43AC40AF1FAE1EAD1DAC1C7808120BF5
:1003F300858FD4851FD553D1F043D10A8032EB6466
:10040300024A7026538EEF53ACBF538EF7438E04CC
:10041300AF1FAE1EAD1DAC1C7808120B858FD685A1
:100423001FD753AFFB438E1080067FFF227FFF222F
:10043300AB17AA18A919900007120A51C454F0FF68
:10044300E5AC54EF4FF5AC7F0022E516640460037E
:10045300020589F52FF530F531F532F533F51AF547
:100463001B74A0251BF5827402351AF583E4F0058D
:100473001BE51B7002051A6420451A70E4E4F51AA3
:10048300F51B74C0251BF5827401351AF583E4F05E
:10049300051BE51B7002051A6420451A70E4AB17AF
:1004A300AA18A919120A38FF7E0064C06008EF6415
:1004B30040600302056CEF64C04E70054384808086
:1004C3000353847F900002120B987F007E607D545B
:1004D3007C00120ACC8F1F8E1E8D1D8C1CE4FFFE28
:1004E3007D01FCAB1FAA1EA91DA81CC3120B7440DF
:1004F300037FFF22C3E4951FF51FE4951EF51E74C9
:1005030001951DF51DE4951CF51CAB17AA18A91937
:10051300900001120A51FB7A006404701D43844069
:10052300AF1FAE1EAD1DAC1C7808120B858FD28594
:100533001FD353D10F43D1A08032EB64024A7026FC
:10054300538EEF5384BF538EF7438E04AF1FAE1EFB
:10055300AD1DAC1C7808120B858FD6851FD753AF02
:10056300FB438E1080067FFF227FFF22AB17AA1862
:10057300A919900007120A51C454F0FFE58454EFFF
:100583004FF5847F00227FFF22EFD394077480947A
:100593008040037FFF22120A38FED39403748094B1
:1005A3008040037FFF22EF7044EE700B9000011236
:1005B3000A51F452935294120A386401700B90005A
:1005C30001120A514293F45294120A38FE640270E3
:1005D3000A900001120A5142934294EE6403700D93
:1005E300900001120A51FEF45293EE4294EF64011B
:1005F3007046120A38FE700B900001120A51F45231
:10060300915292EE6401700B900001120A514291D3
:10061300F45292120A386402700A900001120A51CD
:1006230042914292120A386403700D900001120A3B
:1006330051FEF45291EE4292EF64027046120A3870
:10064300FE700B900001120A51F452955296EE641B
:1006530001700B900001120A514295F45296120A4E
:10066300386402700A900001120A514295429612B0
:100673000A386403700D900001120A51FEF452957A
:10068300EE4296EF64037046120A38FE700B900038
:1006930001120A51F452B152B2EE6401700B900090
:1006A30001120A5142B1F452B2120A386402700ABA
:1006B300900001120A5142B142B2120A3864037027
:1006C3000D900001120A51FEF452B1EE42B2EF64F2
:1006D300047046120A38FE700B900001120A51F49E
:1006E30052B352B4EE6401700B900001120A5142EE
:1006F300B3F452B4120A386402700A900001120A69
:100703005142B342B4120A386403700D90000112CF
:100713000A51FEF452B3EE42B4EF64057046120A76
:1007230038FE700B900001120A51F452C952CAEEFE
:100733006401700B900001120A5142C9F452CA12AB
:100743000A386402700A900001120A5142C942CA6F
:10075300120A386403700D900001120A51FEF4521C
:10076300C9EE42CAEF64067046120A38FE700B9057
:100773000001120A51F452CB52CCEE6401700B907B
:100783000001120A5142CBF452CC120A38640270AF
:100793000A900001120A5142CB42CC120A38640378
:1007A300700D900001120A51FEF452CBEE42CCEFD1
:1007B30064077049120A38FF7E00700B9000011223
:1007C3000A51F452E152E2EF64014E700B900001C2
:1007D300120A5142E1F452E2120A386402700A909A
:1007E3000001120A5142E142E2120A386403700D19
:1007F300900001120A51FFF452E1EF42E27F00221E
:1008030043BA80120EA4120E41D2AF7BFF7A0E7947
:10081300DE120E917BFF7A0F7910120E917BFF7A15
:100823000F7949120E917BFF7A0F7984120E917F13
:1008330001120EB4D3E52494007480948040F01523
:1008430024E52470EAF508E508C3952350147400E1
:100853002508F582E43400F583E0FF12003905082A
:1008630080E5750CFFC3E5239408748094805003DE
:10087300020A25900001E064206003020A25F508BE
:10088300C3E508940874809480502D74002508F5FE
:1008930082E43400F583E0FFC394614017EFD394FF
:1008A3007A5011EF24E0FF74002508F582E4340048
:1008B300F583EFF0050880C8120C538E0A8F0BE402
:1008C300FCFDFB7AF8F9F8D3120B5E5003020A25FC
:1008D300900000E0B44510AF0BAE0A1200267BFF78
:1008E3007A0F79BD020982900000E0645760030229
:1008F3000988900008E064206003020988E5232446
:10090300F7F509D394647480948040037509647B7C
:10091300017A007909751200850913AF0BAE0A122B
:100923000DD97BFF7A0F79CA120E91C3E50994643E
:10093300748094804015E50975F064842430FF12B7
:100943000039E50975F0648485F009C3E509940A63
:10095300748094804015E50975F00A842430FF12F1
:100963000039E50975F00A8485F009E50975F00A8F
:1009730084E5F02430FF1200397BFF7A0F79D1121E
:100983000E91020A22900000E064526003020A25DD
:10099300900008E064206003020A25120E6A8F09A2
:1009A300D3EF9464748094804003750964D3E5099C
:1009B300940074809480406A7BFF7A0F79DA120E78
:1009C30091E50975F00A842430FF120039E50975B1
:1009D300F00A84E5F02430FF1200397BFF7A0F79A7
:1009E300DF120E917B017A0279C07512008509131B
:1009F300AF0BAE0A120E10E4F508E508C3950950D3
:100A03001474C02508F582E43402F583E0FF120074
:100A130039050880E57F0D1200397F0A120039E499
:100A2300F50CE50C60097BFF7A0F79F2120E91E465
:100A3300F523020832BB010689828A83E022500231
:100A4300E722BBFE02E32289828A83E49322BB016D
:100A53000CE58229F582E5833AF583E0225006E925
:100A63002582F8E622BBFE06E92582F8E222E5822A
:100A730029F582E5833AF583E49322BB0106898253
:100A83008A83F0225002F722BBFE01F32275F0089D
:100A9300758200EF2FFFEE33FECD33CDCC33CCC5C3
:100AA3008233C5829BED9AEC99E58298400CF582DE
:100AB300EE9BFEED9AFDEC99FC0FD5F0D6E4CEFB50
:100AC300E4CDFAE4CCF9A88222B800C1B90059BA3E
:100AD300002DEC8BF084CFCECDFCE5F0CBF978186C
:100AE300EF2FFFEE33FEED33FDEC33FCEB33FB1066
:100AF300D703994004EB99FB0FD8E5E4F9FA227880
:100B030018EF2FFFEE33FEED33FDEC33FCC933C991
:100B130010D7059BE99A4007EC9BFCE99AF90FD89B
:100B2300E0E4C9FAE4CCFB2275F010EF2FFFEE33BB
:100B3300FEED33FDCC33CCC833C810D7079BEC9AFA
:100B4300E899400AED9BFDEC9AFCE899F80FD5F083
:100B5300DAE4CDFBE4CCFAE4C8F922EB9FF5F0EA42
:100B63009E42F0E99D42F0EC6480C864809845F0B1
:100B730022EB9FF5F0EA9E42F0E99D42F0E89C45A6
:100B8300F022E8600FECC313FCED13FDEE13FEEF50
:100B930013FFD8F122BB010DE58229F582E5833AE3
:100BA300F583020BD55007E92582F8020BC8BBFE7B
:100BB30007E92582F8020BE1E58229F582E5833A0C
:100BC300F583020BEEE6FB08E6F908E6FA08E6CB46
:100BD300F822E0F8A3E0F9A3E0FAA3E0FB22E2FBAA
:100BE30008E2F908E2FA08E2CBF822E493F8740188
:100BF30093F9740293FA740393FB22EFFB7A00D305
:100C030094017480948040037FFF22EDD394037496
:100C130080948040037FFF22EB4A7004C2AC8002C1
:100C2300D2ACED700553B7EFC2BCEDFF7E0064019B
:100C3300700553B7EFD2BCEF64024E700543B71093
:100C4300C2BCEF64034E700543B710D2BC7F0022D1
:100C5300E4FBFA900002E064307044A3E06458704F
:100C63003E7C04ECC3940874809480502D74002C53
:100C7300120049AD07EDC394107480948040028044
:100C83001EEBC4F8540FC868FFEAC454F048FEEDE5
:100C93007A002FFBEA3EFA0C80C9AE02AF03227E34
:100CA300FF7FFF22C0E0C083C082C0D075D000C0E8
:100CB30007E5AC5401602553ACFEC3E52D944074A5
:100CC3008094804003752D00AF2D052D74002FF502
:100CD30082E43401F583E5ADF0752E05E5AC5402ED
:100CE300600653ACFD752C00D007D0D0D082D083E2
:100CF300D0E032C0E0C083C082C0D075D000C0074E
:100D0300E584540160255384FEC3E5329420748046
:100D130094804003753200AF32053274C02FF582E0
:100D2300E43401F583E585F0753305E58454026009
:100D3300065384FD753100D007D0D0D082D083D044
:100D4300E032C0E0C083C082C0D075D000C007E5E8
:100D53009A30E025539AFEC3E528948074809480EA
:100D63004003752800AF28052874802FF582E434EA
:100D730000F583E59BF0752905E59A30E106539A62
:100D8300FD752700D007D0D0D082D083D0E032C009
:100D9300E0C083C082C0D075D000C007309824C2A1
:100DA30098C3E5239480748094804003752300AF37
:100DB30023052374002FF582E43400F583E599F0CD
:100DC300752405309905C299752200D007D0D0D07B
:100DD30082D083D0E032AD07AC0675C78075F516B7
:100DE30075C5028CC3AF058FC4120A38F5C2120051
:100DF300090DBD00010C740129F9E43AFAE5131554
:100E0300137002151214451270D9020EC4AD07AC4B
:100E13000675C78075F51675C501120003E5C21284
:100E23000A7E0DBD00010C740129F9E43AFAE513B9
:100E330015137002151214451270DF020EC4750DDE
:100E430040750E017512007511C2751001750F0002
:100E5300751401E4F515FB7A00790D7F01120096F4
:100E63007D017F01020BFEE4FE7D09EDC395235056
:100E73001A120046EFC3940A74809480500D120036
:100E830046EE75F00AA42FFE0D80E0AF0622120A8B
:100E930038FF600C120039740129F9E43AFA80EE44
:100EA30022750E03E4F50DFB7A00790D7F0302052D
:100EB3008C7DA37C08ED1D70011C144C70F7DFF1D1
:100EC30022E4F5C7F5C5F5C675C3FF75C4FF2278DF
:100ED3007FE4F6D8FD75813302080353544338CFBA
:100EE300B5C1D0B5A5C6ACBBFA454550524F4DB2BE
:100EF300E2CAD4B3CCD0F2A3ACB4AEBFDAC3FCC164
:100F0300EEC9E8D6C3C8E7CFC23A0D0A0045203080
:100F13007830303430202020202020202020202032
:100F230020202D2D3E20B6D4307830303430B5D843
:100F3300D6B7C9C8C7F8C4DAC8DDBDF8D0D0B2C1C6
:100F4300B3FD2E0D0A005720307830303430203175
:100F530032333435363738393020202D2D3E20B604
:100F6300D4307830303430B5D8D6B7D0B4C8EBD716
:100F7300D6B7FB313233343536373839302E0D0A94
:100F8300005220307830303430203130202020207F
:100F93002020202020202D2D3E20B6D43078303044
:100FA3003430B5D8D6B7B6C1B3F63130B8F6D7D6E4
:100FB300BDDAC4DAC8DD2E0D0A00B2C1B3FDB3C970
:100FC300B9A6A3A10D0A00D2D1D0B4C8EB00D7D6DD
:100FD300BDDAA3A10D0A00B6C1B3F600B8F6D7D6A1
:100FE300BDDAC4DAC8DDC8E7CFC2A3BA0D0A00C3AD
:0C0FF300FCC1EEB4EDCEF3A3A10D0A008A
:00000001FF
