:10000000021292AE0702129ED209320200081200BA
:10001000B7C2811200BEC2800200BE02001EB2EE54
:0100200032AD
:100023000211CBAE077D08EE30E704D2818002C215
:1000330081EE25E0FE1200B9C2801200BEDDE82287
:1000430002117E5393FC5394FC5395CF5396CF5395
:10005300B1FC53B2FC22C2811200B9D2810200BEAC
:1000630002008EE4F52475230175270175262DFB07
:100073007A007922120F4BE4FB7D78FF120FC7E55C
:0E008300BA54CF4410F5BA220210E0B2ED32AA
:0600930002112FB2EC3255
:06009B00020096B2EB32F8
:1000A30002009EAF041200261200B7A28192D5C2AD
:1000B300800200BED2811200BED2807F0CDFFE22FE
:1000C300020EA88F2B8B2C8A2D892EEF64016003DF
:1000D300020244F508F509F50AF50BF50CF52FF5C1
:1000E3003074402530F5827401352FF583E4F00533
:1000F30030E5307002052F6480452F70E4E4F52F5E
:10010300F53074002530F5827400352FF583E4F063
:100113000530E5307002052F6480452F70E4AB2C69
:10012300AA2DA92E120918FFE598543F4FF598EF11
:1001330064C06008EF644060030201F390000212A0
:100143000AEF7F807E8D7D5B7C00120A398F348EAF
:10015300338D328C31E4FFFE7D01FCAB34AA33A92D
:1001630032A831C3120ACB40037FFF22C3E4953484
:10017300F534E49533F53374019532F532E4953172
:10018300F531AB2CAA2DA92E900001120931FB7A6F
:10019300006401702CC28E538EFE5389BF5389CFE6
:1001A300438E40AF34AE33AD32AC317808120ADC43
:1001B3008F8D85348BC2AB5389BF538FFDD28E8015
:1001C30069EB64024A7026538EEF438E01538EF718
:1001D300438E04AF34AE33AD32AC317808120ADC4F
:1001E3008FD68534D753AFFB438E10803D7FFF22DC
:1001F300AB2CAA2DA92E120918FF7E0070149000B3
:100203000812093164017005438E20801D538EDF6F
:100213008018EF64804E7012900008120931640157
:100223007005438780800353877FAB2CAA2DA92EAB
:100233009000071209317004C29C8002D29C7F0097
:1002430022E52B64026003020341F50DF50EF50F61
:10025300F510F511F52FF53074E02530F5827401B2
:10026300352FF583E4F00530E5307002052F648007
:10027300452F70E4E4F52FF53074802530F5827452
:1002830000352FF583E4F00530E5307002052F6467
:1002930080452F70E4AB2CAA2DA92E120918FF7EDE
:1002A3000064C06005EF64407077EF64C04E700572
:1002B300439A808003539A7F900002120AEF7F8053
:1002C3007E8D7D5B7C00120A398F348E338D328CA8
:1002D30031E4FFFE7D01FCAB34AA33A932A831C35C
:1002E300120ACB40037FFF22C3E49534F534E4952F
:1002F30033F53374019532F532E49531F531538E8C
:10030300EF538EF7438E04AF34AE33AD32AC317856
:1003130008120ADC8FD68534D753AFFB438E108087
:10032300037FFF22AB2CAA2DA92E900007120931BF
:10033300C454F0FFE59A54EF4FF59A7F0022E52B62
:100343006403600302047DF512F513F514F515F546
:1003530016F52FF53074602530F5827402352FF5CC
:1003630083E4F00530E5307002052F6440452F70BB
:10037300E4E4F52FF53074002530F5827401352F50
:10038300F583E4F00530E5307002052F6440452F16
:1003930070E4AB2CAA2DA92E120918FF7E0064C0AD
:1003A3006008EF64406003020460EF64C04E7005B0
:1003B30043AC80800353AC7F900002120AEF7F802E
:1003C3007E8D7D5B7C00120A398F348E338D328CA7
:1003D30031E4FFFE7D01FCAB34AA33A932A831C35B
:1003E300120ACB40037FFF22C3E49534F534E4952E
:1003F30033F53374019532F532E49531F531AB2C95
:10040300AA2DA92E900001120931FB7A0064037012
:100413001D43AC40AF34AE33AD32AC317808120A71
:10042300DC8FD48534D553D1F043D10A8032EB64C9
:10043300024A7026538EEF53ACBF538EF7438E049C
:10044300AF34AE33AD32AC317808120ADC8FD685C7
:1004530034D753AFFB438E1080067FFF227FFF22EA
:10046300AB2CAA2DA92E900007120931C454F0FF1A
:10047300E5AC54EF4FF5AC7F0022E52B6404600339
:100483000205B9F517F518F519F51AF51BF52FF54A
:100493003074A02530F5827402352FF583E4F0051E
:1004A30030E5307002052F6420452F70E4E4F52F0A
:1004B300F53074C02530F5827401352FF583E4F0EF
:1004C3000530E5307002052F6420452F70E4AB2C16
:1004D300AA2DA92E120918FF7E0064C06008EF64DC
:1004E30040600302059CEF64C04E70054384808026
:1004F3000353847F900002120AEF7F807E8D7D5B21
:100503007C00120A398F348E338D328C31E4FFFE36
:100513007D01FCAB34AA33A932A831C3120ACB4004
:10052300037FFF22C3E49534F534E49533F5337444
:10053300019532F532E49531F531AB2CAA2DA92E74
:10054300900001120931FB7A006404701D4384405A
:10055300AF34AE33AD32AC317808120ADC8FD285BA
:1005630034D353D10F43D1A08032EB64024A7026B7
:10057300538EEF5384BF538EF7438E04AF34AE33A1
:10058300AD32AC317808120ADC8FD68534D753AF3D
:10059300FB438E1080067FFF227FFF22AB2CAA2D08
:1005A300A92E900007120931C454F0FFE58454EFDB
:1005B3004FF5847F00227FFF22E5312425F8E605ED
:1005C300312278223007027825E475F001120B55A9
:1005D3000209182000EB7F2ED2008018EF540F245D
:1005E30090D43440D4FF30040BEF24BFB41A00502E
:1005F300032461FFE532600215320535E5357002EB
:10060300053430070D7822E475F001120B55EF0223
:10061300095E0200037403D2078003E4C207F531C5
:100623008B228A238924E4F532F534F535E53260EB
:10063300077F201205F780F57533FFC201C200C2A0
:1006430002C203C205C206C2081205C5FF700D30FF
:1006530007057F00120608AF35AE3422B4255FC20A
:10066300D5C2041205C5FF24D0B40A00501A75F090
:100673000A783230D50508B6FF0106C6A426F6204F
:10068300D5047002D20380D924CFB41A00EF5004EA
:10069300C2E5D204020808D20180C6D20080C0D2CB
:1006A3000280BCD2D580BAD20580B47F201205F770
:1006B3002002077401B5320040F11205BCFF120598
:1006C300F7020630D208D20680951205BCFB12054C
:1006D300BCFA1205BCF94A4B700679D97A087BFF3C
:1006E30020022EE532602A7E008E82758300120975
:1006F3003160060EEE653370F0C2D5EBC0E0EAC0A0
:10070300E0E9C0E0EE12084FD0E0F9D0E0FAD0E023
:10071300FB120918FF60AAEBC0E0EAC0E0E9C0E001
:100723001205F7D0E02401F9D0E03400FAD0E0FB61
:10073300E5330460DCD533D980877BFF7A08794BB6
:10074300D202809C791080027908C206C208800810
:10075300D2D5790A8004790AC2D5E533047002F54B
:1007630033E4FAFDFEFF1205BCFC7B0820011312E3
:1007730005BCFD7B1030000A1205BCFE1205BCFF50
:100783007B20EC3382D592D55013C3E43000069F0F
:10079300FFE49EFEE42001039DFDE49CFCE4CBF812
:1007A300C201EC700CCFCECDCCE824F8F870F38006
:1007B30017C3EF33FFEE33FEED33FDEC33FCEB33C6
:1007C300FB994002FB0FD8E9EB300105F8D0E0C4F8
:1007D30048B201C0E00AEC4D4E4F78207B0070C256
:1007E300EAB5330040BCC0E0120851D0F0D0E0209D
:1007F3000104C4C0E0C4B201C0F01205E0D0F0D5DA
:10080300F0EB020630120B6506CD53074758069EE0
:100813004C069A42074B4F07534407534906B343C9
:10082300075955073D46073D45073D4708F950061B
:10083300A22D06A62E06C92B06AA2306C72008E268
:100843002A066248000006C13F3F3F00790AA2D54D
:10085300200314300509B910020404B9080104A2E5
:10086300D52006025001042002689202B5320050DE
:1008730034C0E07F203003197F30A2027206720574
:10088300500F1208A8C202C206C205C2087F3080F8
:100893000F300503E9C0E01205F7300503D0E0F996
:1008A300D0E0B532CC3005177F30B9100C1205F704
:1008B3007F583004077F788003B908031205F730A7
:1008C30002057F2D0205F77F202008F87F2B2006E5
:1008D300F322920280CF286E756C6C2900D201122C
:1008E30005BC3001F8C201783230D50108F60206A2
:1008F300622D504349581205BC2403B4050040013E
:10090300E49008F4931205E8743A1205E8D20375EB
:100913003204020747BB010689828A83E022500220
:10092300E722BBFE02E32289828A83E49322BB018E
:100933000CE58229F582E5833AF583E0225006E946
:100943002582F8E622BBFE06E92582F8E222E5824B
:1009530029F582E5833AF583E49322BB0106898274
:100963008A83F0225002F722BBFE01F322BC000B64
:10097300BE0029EF8DF084FFADF022E4CCF875F0D2
:1009830008EF2FFFEE33FEEC33FCEE9DEC984005B1
:10099300FCEE9DFE0FD5F0E9E4CEFD22EDF8F5F077
:1009A300EE8420D21CFEADF075F008EF2FFFED337F
:1009B300FD4007985006D5F0F222C398FD0FD5F0FD
:1009C300EA22BB0110E58229F582E5833AF583E04B
:1009D300F5F0A3E0225009E92582F886F008E62223
:1009E300BBFE0AE92582F8E2F5F008E222E5832A54
:1009F300F583E993F5F0A3E9932275F00875820076
:100A0300EF2FFFEE33FECD33CDCC33CCC58233C5D0
:100A1300829BED9AEC99E58298400CF582EE9BFE61
:100A2300ED9AFDEC99FC0FD5F0D6E4CEFBE4CDFABC
:100A3300E4CCF9A88222B800C1B90059BA002DEC60
:100A43008BF084CFCECDFCE5F0CBF97818EF2FFFF8
:100A5300EE33FEED33FDEC33FCEB33FB10D70399A0
:100A63004004EB99FB0FD8E5E4F9FA227818EF2F4D
:100A7300FFEE33FEED33FDEC33FCC933C910D7056C
:100A83009BE99A4007EC9BFCE99AF90FD8E0E4C98B
:100A9300FAE4CCFB2275F010EF2FFFEE33FEED33BB
:100AA300FDCC33CCC833C810D7079BEC9AE89940E8
:100AB3000AED9BFDEC9AFCE899F80FD5F0DAE4CD4A
:100AC300FBE4CCFAE4C8F922EB9FF5F0EA9E42F08E
:100AD300E99D42F0E89C45F022E8600FECC313FC6B
:100AE300ED13FDEE13FEEF13FFD8F122BB010DE56D
:100AF3008229F582E5833AF583020B2C5007E92519
:100B030082F8020B1FBBFE07E92582F8020B38E5CA
:100B13008229F582E5833AF583020B45E6FB08E675
:100B2300F908E6FA08E6CBF822E0F8A3E0F9A3E037
:100B3300FAA3E0FB22E2FB08E2F908E2FA08E2CBBF
:100B4300F822E493F8740193F9740293FA7403930B
:100B5300FB22FAE6FB0808E6F925F0F618E6CA3A9E
:100B6300F622D083D082F8E4937012740193700D4F
:100B7300A3A393F8740193F5828883E473740293B7
:100B83006860EFA3A3A380DFAD07ED707EC28C1274
:100B93000918FED394037480948040037FFF22E5F9
:100BA3008954FC4EF589900001120931FED3940259
:100BB3007480948040037FFF22EEFF7E0070065313
:100BC3008E7F5389FBEF64014E7006438E805389F9
:100BD300FBEF64024E700343890490000212093153
:100BE300FFE58F54FE4FF58F9000031209C5E5F022
:100BF300F58C9000031209C5F58A9000051209319E
:100C03007004C28C8002D28C7F0022ED64016003E9
:100C1300020C9BC28E120918FED394037480948035
:100C230040037FFF22EEC454F0FFE58954CF4FF514
:100C330089900001120931FED3940274809480409C
:100C4300037FFF22EEFF7E007006538EBF5389BFE2
:100C5300EF64014E7006438E405389BFEF64024E2A
:100C6300700343894090000212093125E0FFE58FAC
:100C730054FD4FF58F9000031209C5E5F0F58D90F3
:100C830000031209C5F58B9000051209317004C2E7
:100C93008E8002D28E7F0022ED64027061538EEF4C
:100CA300900001120931FF7E007006538EFB538EB4
:100CB300F7EF64014E7006438E04538EF7EF640220
:100CC3004E7003438E0890000212093125E025E09F
:100CD300FFE58F54FB4FF58F9000031209C5E5F034
:100CE300F5D69000031209C5F5D790000512093116
:100CF300C454F0FFE58E54EF4FF58E7F0022ED6470
:100D030003706953D1F7900001120931FED39402A5
:100D13007480948040037FFF22EEFF7E00700653B1
:100D2300D1FD53D1FBEF64014E700643D10253D181
:100D3300FBEF64024E700343D104900002120931A9
:100D4300FFE5D154FE4FF5D19000031209C5E5F03C
:100D5300F5D49000031209C5F5D5900005120931A9
:100D630033333354F8FFE5D154F78076ED640470E0
:100D73007753D17F900001120931FD7C00D3940297
:100D83007480948040037FFF22ED4C700653D1DFC3
:100D930053D1BF9000011209316401700643D12081
:100DA30053D1BF9000011209316402700343D14053
:100DB300900002120931C454F0FFE5D154EF4FF50E
:100DC300D19000031209C5FDACF0ECF5D2AF058F4D
:100DD300D3900005120931C43333335480FFE5D176
:100DE300547F4FF5D17F00227FFF2243BA80120048
:100DF30046121271120066121244D2AF3009FDC2BC
:100E030009300A1DC20A7BFF7A1279A89002C0E05A
:100E1300F525A3E0F526A3E0F527A3E0F5281206C0
:100E23001E053CE53C7002053BC394E8E53B940397
:100E330040CAE4F53BF53C0536E53694C874809426
:100E4300804003E4F5367BFF7A1279C1853625129B
:100E5300061EE536FB7C037DE8FF7E001209708FDA
:100E6300377C037DE8AF037E001209707E007F6448
:100E7300CFCDCFCECCCE1209708F38E53675F06466
:100E830084E5F075F00A84F539E53675F00A848552
:100E9300F03A7B007A007937752704E4FD7F5A1214
:100EA3001212020DFFC0E0C083C082C0D075D00013
:100EB300C006C00790FE84E030E606E054BFF08031
:100EC3007A90FE84E030E535E054DFF0E51D6005FF
:100ED300751D008066E51C600D751C0090FE87E0A3
:100EE300F51E24C0803490FE87E0FFAE1E051E74FD
:100EF300C02EF582E43402F583EFF0803E90FE8449
:100F0300E030E424E054EFF0E030E10890FE867432
:100F1300FFF08027051E74C0251EF582E43402F518
:100F230083E090FE86F0801390FE84E030E30CE0D3
:100F330054F7F0751D01751C01D20AD007D006D0F5
:100F4300D0D082D083D0E032900002120931640104
:100F5300702990FE80E04440F090FE82E4F0120994
:100F630018543FFF90FE80E054C04FF090000312EE
:100F73000931640190FE88702C803090FE80E0542B
:100F8300BFF090FE84E4F090000412093125E0FFE5
:100F930090FE85E054014FF0900005120931640181
:100FA30090FE857006E054FEF08004E04401F0906A
:100FB300000112093190FE807005E0547FF022E0B9
:100FC3004480F022EFD394017480948040037FFF28
:100FD30022EBD394037480948040037FFF22EF6459
:100FE300017012ED90FE817006E0547FF08011E0F5
:100FF3004480F0800BEF700890FE83E054874DF03F
:10100300EBFF7E00700653B6DF53B5DFEF64014E8E
:10101300700653B6DF43B520EF64024E700643B645
:101023002053B5DFEF64034E700643B62043B5206B
:101033007F0022EFFB7A00D39401748094804003F5
:101043007FFF22EDD394037480948040037FFF22BB
:10105300EB4A7004C2A98002D2A9ED700553B7FD13
:10106300C2B9EDFF7E006401700553B7FDD2B9EF3D
:1010730064024E700543B702C2B9EF64034E7005B4
:1010830043B702D2B97F0022EFFB7A00D3940174F5
:1010930080948040037FFF22EDD394037480948077
:1010A30040037FFF22EB4A7004C2AC8002D2ACED56
:1010B300700553B7EFC2BCEDFF7E006401700553AA
:1010C300B7EFD2BCEF64024E700543B710C2BCEF5A
:1010D30064034E700543B710D2BC7F0022C0E0C04A
:1010E30083C082C0D075D000C007E5AC5401602531
:1010F30053ACFEC3E515944074809480400375158A
:1011030000AF15051574002FF582E43401F583E56E
:10111300ADF0751605E5AC5402600653ACFD7514CD
:1011230000D007D0D0D082D083D0E032C0E0C083DB
:10113300C082C0D075D000C007E584540160255338
:1011430084FEC3E51A9420748094804003751A00CA
:10115300AF1A051A74C02FF582E43401F583E585CF
:10116300F0751B05E584540260065384FD75190070
:10117300D007D0D0D082D083D0E032C0E0C083C0CB
:1011830082C0D075D000C007E59A30E025539AFE9F
:10119300C3E5109480748094804003751000AF10F1
:1011A300051074802FF582E43400F583E59BF07518
:1011B3001105E59A30E106539AFD750F00D007D06B
:1011C300D0D082D083D0E032C0E0C083C082C0D010
:1011D30075D000C007309824C298C3E50B9480747F
:1011E3008094804003750B00AF0B050B74002FF543
:1011F30082E43400F583E599F0750C05309905C256
:1012030099750A00D007D0D0D082D083D0E032AE17
:1012130007AC0512000EAF061200261200AB20D554
:101223001D1200A620D517120918FF1200267401FB
:1012330029F9E43AFA1200AB20D503D527E90200D5
:10124300597522407523017527007526C27525013E
:10125300752400752901E4F52AFB7A0079227F01C0
:101263001200C67D017F0112108B53A23F22E4F5C9
:1012730022752301F5247525A2752640752701FBE8
:101283007A007922FF120B8BE4FD7F01021036787E
:101293007FE4F6D8FD75813C020DEE8F99750A0146
:1012A300E50A70FC2249324320526561643A2025E5
:1012B30062642562642562642562640D0A005349F1
:1012C30032432053656E643A2025303462750D0A2B
:0112D300001A
:00000001FF
